:020000040800F2
:100000005C4D002001030008610300086103000843
:10001000610300086103000861030008000000009C
:100020000000000000000000000000008D1F00081C
:10003000610300080000000069200008A9200008F2
:100040006103000861030008610300086103000800
:1000500061030008610300086103000861030008F0
:1000600061030008610300086103000861030008E0
:1000700061030008610300086103000861030008D0
:1000800061030008610300086103000861030008C0
:1000900061030008610300086103000861030008B0
:1000A00061030008610300086103000861030008A0
:1000B0006103000861030008610300086103000890
:1000C0006103000861030008610300086103000880
:1000D0006103000861030008610300086103000870
:1000E0006103000861030008610300086103000860
:1000F0006103000861030008610300086103000850
:10010000610300086103000861030008610300083F
:10011000610300086103000861030008610300082F
:10012000610300086103000861030008610300081F
:100130005FF808F180B485B000AF78600023FB6001
:1001400007E0FB680133FB60FB68052BF9D900234E
:10015000FB607B685A1E7A60002BF5D100BF143714
:10016000BD4680BC704700BF80B582B000AF7860EC
:1001700003E04FF47A70FFF7DDFF7B685A1E7A6068
:10018000002BF6D100BF0837BD4680BD80B500AF5B
:10019000154A154B1B6843F0010313601249124BBB
:1001A0005A68124B13404B600F4A0F4B1B6823F0E9
:1001B000847323F4803313600B4A0B4B1B6823F4C6
:1001C00080231360084A084B5B6823F4FE035360E6
:1001D000054B4FF41F029A6000F00CF8044B4FF0EF
:1001E00000629A6000BF80BD001002400000FFF86E
:1001F00000ED00E080B500AF00F002F800BF80BD68
:1002000080B483B000AF00237B6000233B603A4A98
:10021000394B1B6843F480331360374B1B6803F47E
:1002200000333B607B6801337B603B68002B03D16C
:100230007B68B3F5A06FF0D12F4B1B6803F400333C
:10024000002B02D001233B6001E000233B603B68B0
:10025000012B4BD1294A294B1B6843F01003136033
:10026000264A264B1B6823F003031360234A234BC3
:100270001B6843F0020313601F4A1F4B5B68536007
:100280001D4A1D4B5B6853601B4A1B4B5B6843F464
:1002900080635360184A184B5B6823F47C135360E7
:1002A000154A154B5B6843F4E8135360124A124B2E
:1002B0001B6843F08073136000BF0F4B1B6803F093
:1002C0000073002BF9D00C4A0B4B5B6823F003033F
:1002D0005360094A084B5B6843F00203536000BF58
:1002E000054B5B6803F00C03082BF9D100BF0C37FA
:1002F000BD4680BC704700BF001002400020024095
:1003000080B582B000AF114B7B60114B3B6007E0C2
:100310003B681A1D3A607A68111D796012681A608C
:100320003B680C4A9342F3D30B480C494FF0000250
:100330008842B8BF40F8042BFADBFFF727FF00F034
:10034000A7F900BF0837BD4680BD00BF9629000849
:10035000000000200C000020100000205C4900205C
:1003600080B400AFFEE700BF80B489B000AF786012
:1003700039600023FB6100233B610023BB61002344
:10038000FB6000237B610023BB603B68DB7803F0EC
:100390000F03FB613B68DB7803F01003002B05D0F3
:1003A0003B689B781A46FB691343FB613B681B88DB
:1003B000DBB2002B44D07B681B687B610023BB61F0
:1003C00038E00122BB6902FA03F3FB603B681B883B
:1003D0001A46FB6813403B613A69FB689A4226D192
:1003E000BB699B00FB600F22FB6802FA03F3BB6052
:1003F000BB68DB437A6913407B61FA69FB6802FAE8
:1004000003F37A6913437B613B68DB78282B05D1C2
:100410000122BB699A407B685A6108E03B68DB783F
:10042000482B04D10122BB699A407B681A61BB69E1
:100430000133BB61BB69072BC3D97B687A691A603A
:100440003B681B88FF2B46D97B685B687B61002378
:10045000BB613AE0BB690833012202FA03F3FB6097
:100460003B681B881A46FB6813403B613A69FB688E
:100470009A4227D1BB699B00FB600F22FB6802FAFE
:1004800003F3BB60BB68DB437A6913407B61FA69A5
:10049000FB6802FA03F37A6913437B613B68DB78FC
:1004A000282B05D1BB69083301229A407B685A6129
:1004B0003B68DB78482B05D1BB69083301229A40A1
:1004C0007B681A61BB690133BB61BB69072BC1D96A
:1004D0007B687A695A6000BF2437BD4680BC70478C
:1004E00080B485B000AF78600B467B800023FB733F
:1004F0007B689A687B881340002B02D00123FB7332
:1005000001E00023FB73FB7B18461437BD4680BC1B
:10051000704700BF80B485B000AF78600B467B8029
:100520000023FB737B68DA687B881340002B02D0C2
:100530000123FB7301E00023FB73FB7B1846143798
:10054000BD4680BC704700BF80B483B000AF786008
:100550000B467B807A887B681A6100BF0C37BD46EA
:1005600080BC704780B483B000AF78600B467B805E
:100570007A887B685A6100BF0C37BD4680BC7047E3
:1005800080B483B000AF78600B467B8013467B70ED
:100590007B78002B03D07A887B681A6102E07A8826
:1005A0007B685A6100BF0C37BD4680BC704700BFF6
:1005B00080B487B000AF78600B46FB7000233B61CE
:1005C0000023FB6000237B610023BB607B68002B62
:1005D00003DA2E4BDB697B6102E02C4B5B687B61AD
:1005E0007B681B0C03F00F03BB607B689BB23B6115
:1005F0007B6803F44013B3F5401F0AD17B6923F0F5
:1006000070637B61214A214B5B6823F07063536008
:1006100021E07B6803F48013002B0ED00322BB681B
:1006200002FA03F3FB60FB68DB437A6913407B61EA
:100630007B6943F070637B610DE07B685B0D1B01A0
:100640003A6902FA03F3DB437A6913407B617B6901
:1006500043F070637B61FB78002B08D07B685B0DF7
:100660001B013A6902FA03F37A6913437B617B68E1
:10067000002B03DA054A7B69D36102E0034A7B69F8
:10068000536000BF1C37BD4680BC7047000001406E
:1006900080B584B004AF01F025F900230393002353
:1006A00002930023019302230093002378220A4936
:1006B0000A4800F0C5FD00230393002302930023A2
:1006C000019302230093002378220549054800F096
:1006D000B7FD00F08BFEFEE7482900086D1C0008FE
:1006E0005C290008610F000880B483B000AF786017
:1006F0000B46FB707B68FA781A70012318460C379A
:10070000BD4680BC704700BF80B485B000AF786044
:1007100039600023FB600AE07B685A1C7A603A6803
:10072000511C396012781A70FB680133FB603B681A
:100730001B78002BF0D1FB6818461437BD4680BCEF
:10074000704700BF80B586B000AFF8607A603B604C
:100750000B46FB7200237B617B68013B7B603B683F
:10076000092B1DD93B681D4AA2FB0323DB08F97A3C
:100770007A68F868FFF7E6FF78617B69FA681344E6
:10078000FB6010E0FB7A1946F868FFF7ADFFFB68E5
:100790000133FB607B6901337B617B68013B7B60DC
:1007A0007B68002BEEDC39680C4BA3FB0123DA08D5
:1007B00013469B0013445B00CA1AD3B23033DBB23A
:1007C0001946F868FFF790FF02467B6913447B6186
:1007D0007B6918461837BD4680BD00BFCDCCCCCC58
:1007E00080B586B000AFF8607A603B600B46FB7264
:1007F00000237B613B68002B03DA3B685B423B6173
:1008000001E03B683B617B68013B7B603B69092BF6
:100810001FD93B68002B0CDA3B692E4AA2FB03234D
:10082000DB085B42F97A7A68F868FFF7D9FF7861EC
:100830000AE03B69274AA2FB0323DB08F97A7A68BE
:10084000F868FFF7CDFF78617B69FA681344FB60B5
:1008500025E03B68002B11DA7B68013B7B600DE0F3
:10086000FB7A1946F868FFF73FFFFB680133FB602E
:100870007B6901337B617B68013B7B607B68002B7C
:10088000EEDC3B68002B0ADA2D21F868FFF72CFF1D
:1008900002467B6913447B61FB680133FB60396965
:1008A0000C4BA3FB0123DA0813469B0013445B00A7
:1008B000CA1AD3B23033DBB21946F868FFF714FF17
:1008C00002467B6913447B617B6918461837BD4635
:1008D00080BD00BFCDCCCCCC80B588B002AFF86075
:1008E0007A601A460B46FB721346BB7200237B618B
:1008F0007B68013B7B603B6A1B09002B20D03B6A75
:100900001B09BA7AF97A009313467A68F868FFF7F8
:10091000E3FF02467B6913447B617B69FA681344F9
:10092000FB6010E0FB7A1946F868FFF7DDFEFB6814
:100930000133FB607B6901337B617B68013B7B603A
:100940007B68002BEEDC3B6A03F00F03092B0BD80E
:100950003B6ADBB203F00F03DBB23033DBB2194684
:10096000F868FFF7C1FE19E0BB7A002B0BD03B6A99
:10097000DBB203F00F03DBB23733DBB21946F868A2
:10098000FFF7B2FE0AE03B6ADBB203F00F03DBB213
:100990005733DBB21946F868FFF7A6FE7B690133CF
:1009A0007B617B6918461837BD4680BD80B58AB02B
:1009B00002AFF860B9607A603B600023BB6100233E
:1009C0007B61FB68002B00F0FC80FB6800221A7042
:1009D000F7E07B681B78252B0BD0FB685A1CFA606C
:1009E0007A68511C796012781A707B6901337B61D7
:1009F000E7E07B6801331B78252B0BD1FB685A1C81
:100A0000FA6025221A707B6802337B607B690133B0
:100A10007B61D6E02023FB770023BB777B68013323
:100A20007B607B681B78302B14D13023FB777B688D
:100A300001337B600EE0BB7F1A46920013445B00DB
:100A4000DAB27B681B781344DBB2303BBB777B6840
:100A500001337B607B681B782F2B03D97B681B7865
:100A6000392BE8D9BA7F7B6913441A46BB689A428E
:100A700005D9BB68DAB27B69DBB2D31ABB777B6876
:100A80001B78583B202B00F28E8001A252F823F0F5
:100A9000610B0008A70B0008A70B0008A70B0008B4
:100AA000A70B0008A70B0008A70B0008A70B00085E
:100AB000A70B0008A70B0008A70B0008910B000864
:100AC000150B0008A70B0008A70B0008A70B0008D0
:100AD000A70B0008150B0008A70B0008A70B0008C0
:100AE000A70B0008A70B0008A70B0008A70B00081E
:100AF000A70B0008A70B0008A70B00087D0B000838
:100B0000A70B00082D0B0008A70B0008A70B000877
:100B1000450B0008B87F3B681A1D3A601B68F97FD7
:100B20000246F868FFF75CFEB8613FE0B87F3B68BB
:100B30001A1D3A601B68F97F0246F868FFF702FE4B
:100B4000B86133E0B87F3B681A1D3A601B68F97FD3
:100B5000009300230246F868FFF7BEFEB86125E067
:100B6000B87F3B681A1D3A601B68F97F0093012328
:100B70000246F868FFF7B0FEB86117E03B681A1D3F
:100B80003A601B681946F868FFF7BEFDB8610DE0D2
:100B90003B681A1D3A601B68DBB21946F868FFF71C
:100BA000A3FDB86102E04FF0FF3325E07B6801331D
:100BB0007B60BB69FA681344FB607A69BB691344C4
:100BC0007B617B681B78002B04D07A69BB689A42F2
:100BD000FFF4FFAE7A69BB689A4203D2FB68002239
:100BE0001A7008E0FB68013BFB60FB6800221A708A
:100BF0007B69013B7B617B6918462037BD4680BD20
:100C000080B584B000AFF860B9607A607B68BA687C
:100C10006421F868FFF7CAFE034618461037BD4640
:100C200080BD00BF0EB480B585B000AF786007F11D
:100C30002003BB60BA68F9697868FFF7E1FFF860E4
:100C4000FB6818461437BD46BDE8804003B07047C6
:100C500080B400AF134A134B1B6843F001031360C9
:100C60001049104B5A68104B13404B600D4A0D4B06
:100C70001B6823F0847323F480331360094A094B03
:100C80001B6823F480231360064A064B5B6823F439
:100C9000FE035360034B4FF41F029A6000BFBD4632
:100CA00080BC7047001002400000FFF880B483B0A1
:100CB00000AF7860134A134B1B6823F48033136032
:100CC000104A104B1B6823F4802313607B68B3F534
:100CD000803F03D0B3F5802F07D00DE0094A094BC0
:100CE0001B6843F48033136006E0064A054B1B681B
:100CF00043F4A023136000BF00BF0C37BD4680BC87
:100D0000704700BF0010024080B582B000AF0023E2
:100D10003B600023FB710023BB71312000F0E6F83B
:100D20000346BB713B6801333B603B68B3F5A06F82
:100D300002D0BB79002BF0D0312000F0D7F8034669
:100D4000002B02D00123FB7101E00023FB71FB7932
:100D500018460837BD4680BD80B485B000AF7860C6
:100D600039600023FB600A4B5B68FB60FB6823F47F
:100D70007C13FB607A683B681343FA681343FB609B
:100D8000034AFB68536000BF1437BD4680BC704700
:100D90000010024080B483B000AF0346FB71044AE8
:100DA000FB79136000BF0C37BD4680BC704700BFA5
:100DB0006000424280B485B000AF78600023FB60E1
:100DC000094B5B68FB60FB6823F00303FB60FA6878
:100DD0007B681343FB60044AFB68536000BF143711
:100DE000BD4680BC704700BF0010024080B400AF19
:100DF000044B5B68DBB203F00C03DBB21846BD4664
:100E000080BC70470010024080B485B000AF7860AD
:100E10000023FB60094B5B68FB60FB6823F0F00379
:100E2000FB60FA687B681343FB60044AFB6853600D
:100E300000BF1437BD4680BC704700BF00100240A1
:100E400080B485B000AF78600023FB60094B5B681D
:100E5000FB60FB6823F4E063FB60FA687B68134384
:100E6000FB60044AFB68536000BF1437BD4680BC7A
:100E7000704700BF0010024080B485B000AF7860BA
:100E80000023FB60094B5B68FB60FB6823F4605345
:100E9000FB607B68DB00FA681343FB60034AFB6876
:100EA000536000BF1437BD4680BC7047001002403D
:100EB00080B483B000AF78600B46FB70FB78002BEA
:100EC00006D00949084B9A697B6813438B6106E099
:100ED0000549054B9A697B68DB4313408B6100BF72
:100EE0000C37BD4680BC70470010024080B487B00C
:100EF00000AF0346FB710023FB6000237B610023EE
:100F0000FB74FB795B09DBB2FB60FB68012B03D14F
:100F1000124B1B687B6109E0FB68022B03D10F4B6E
:100F20001B6A7B6102E00D4B5B6A7B61FB7903F01E
:100F30001F03FB607A69FB6822FA03F303F00103E5
:100F4000002B02D00123FB7401E00023FB74FB7C27
:100F500018461C37BD4680BC704700BF00100240D9
:100F600090B583B000AF786000F0F4F80346002B32
:100F7000FAD100F049F90346184601F001FB034697
:100F80000C461A4623460B490B48FFF74BFE00F070
:100F900049F90346184601F0F3FA03460C461A468F
:100FA000234604490548FFF73DFE47F2305000F064
:100FB000F3F9D9E770290008444900204849002086
:100FC00080B584B000AF0346FB71FB79002B01D0E4
:100FD000142300E04823FB730323BB730423BB816A
:100FE00007F10C0319460348FFF7BEF900BF10379D
:100FF000BD4680BD000C014080B584B000AF034603
:10100000FB710023FB60FB79002B12D002E0FB6830
:101010000133FB6004210F48FFF762FA0346002BFF
:1010200012D1FB68B3F57A7FF1DB0DE0FB68013389
:10103000FB6004210748FFF753FA0346002B03D057
:10104000FB68B3F57A7FF1DBFB6818461037BD46C5
:1010500080BD00BF000C014080B582B000AF012010
:10106000FFF7AEFF04211948FFF77CFA1620FFF7BF
:101070007BF804211548FFF767FA0020FFF7A0FF6F
:101080000020FFF7B9FF0120FFF7B6FF78600020CE
:10109000FFF7B2FF38607B68002B11D03B68002B54
:1010A0000ED07B68B3F57A7F0ADA3B68B3F57A7FB6
:1010B00006DA7B685B10064A13604FF0FF3300E0EE
:1010C000002318460837BD4680BD00BF000C014014
:1010D0001000002080B582B000AF0120FFF78CFF28
:1010E0000020FFF789FF78607B68002B0CD07B68BD
:1010F000B3F57A7F08DA074B1B687A689A42CCBF4F
:1011000001230023DBB200E0002318460837BD4668
:1011100080BD00BF1000002080B483B000AF00236A
:10112000FB7100233B6009E0094A3B6813441A78CD
:10113000FB791344FB713B6801333B603B68032B35
:10114000F2DDFB7918460C37BD4680BC704700BF06
:101150004C49002090B585B000AF0023FB6007E04C
:10116000274AFB68134400221A70FB680133FB60B6
:10117000FB68042BF4DD72B6FFF76EFF0346002B0D
:1011800038D00023BB6025E0FFF7A4FF0346002B07
:101190001DD0BA681B4B1340002B03DA013B63F0F0
:1011A00007030133DBB2C3F10703FB71BB68DB103C
:1011B000BA68D21012498A5C51B2FA79012000FA59
:1011C00002F252B20A4352B2D1B20D4AD154BB68B4
:1011D0000133BB60BB68272BD6DD62B6084B1C7998
:1011E000FFF79AFF03469C4201D1002304E06FF011
:1011F000010301E04FF0FF3318461437BD4690BDA0
:101200004C4900200700008080B500AF044B93F9E3
:101210000030184601F0C2FA0346184680BD00BFF0
:101220004E49002080B500AF044B93F900301846BA
:1012300001F0B4FA0346184680BD00BF4C490020B7
:1012400080B58AB002AFF860B9603B601346FB809E
:10125000FB88396B184600F013FBB861BB69002BA3
:1012600074D0BB691A6BFB8803F18043013B9B0080
:1012700013447B617B6923F007037B61FB88009348
:101280007B6BBA6AB968B86900F054FA3A68F968D1
:10129000786900F053FE0246BB691A60FB6A002BB6
:1012A00002D0FB6ABA691A6000F0B6FE334B1B68C5
:1012B0000133324A1360324B1B68002B09D1304A8C
:1012C000BB6913602D4B1B68012B0FD100F066FA30
:1012D0000CE02C4B1B68002B08D1294B1B68DA6AE9
:1012E000BB6A9A4202D8264ABB691360BB69DA6AB4
:1012F000254B1B689A4203D9BB69DB6A224A1360FB
:10130000224B1A68BB695A64204B1B6801331F4A81
:101310001360BB69DA6A1E4B1B689A4203D9BB692A
:10132000DB6A1B4A1360BB69DA6A13469B001344ED
:101330009B00184A1A44BB6904331946104600F052
:1013400075FD0123FB6100F079FE02E04FF0FF33F1
:10135000FB61FB69012B0BD10A4B1B68002B07D0EB
:10136000074B1B68DA6ABB6A9A4201D200F048FE5A
:10137000FB6918462037BD4680BD00BFC000002075
:1013800014000020D0000020C8000020E40000204D
:10139000CC0000201800002080B584B000AF786039
:1013A0000023FB607B68002B12D000F04DF80D4B42
:1013B0001A687B681344BB600B4B1B6804331846E8
:1013C00000F094FDB86800F025FA00F04BF8F860E2
:1013D000FB68002B01D100F013FE00BF1037BD46A3
:1013E00080BD00BFC40000201400002080B586B07E
:1013F00004AF0023039300230293002301930023EF
:101400000093002378220C490C48FFF719FF7860FD
:101410007B68012B0BD14FF0BF0080F31188084B84
:1014200001221A60074B00221A6000F0CDFD00BFB8
:101430000837BD4680BD00BF782900081517000891
:10144000D0000020C400002080B400AF044B1B6813
:101450000133034A136000BFBD4680BC704700BF24
:10146000D400002090B583B000AF00237B6000F073
:10147000D3FD314B1B68013B2F4A13602E4B1B6879
:10148000002B52D12D4B1B68002B4ED000233B600C
:1014900027E02B4BDB68DC6804F11803184600F0EA
:1014A00025FD231D184600F021FDE26A254B1B682F
:1014B0009A4202D9E36A234A1360E26A13469B0008
:1014C00013449B00204A1344221D1146184600F085
:1014D000ADFCE26A1D4B1B68DB6A9A4201D3012313
:1014E0003B60174B1B68002BD3D1194B1B68002B9B
:1014F0000DD006E000F030F8154B1B68013B144A94
:101500001360134B1B68002BF4D101233B603B6835
:10151000012B03D00F4B1B68012B06D101237B60ED
:101520000C4B00221A6000F06BFD00F087FD7B6819
:1015300018460C37BD4690BDD4000020C0000020E6
:10154000AC000020CC000020180000201400002077
:10155000D8000020DC00002080B584B000AF404BF4
:101560001B68002B72D13F4B1B6801333D4A13604F
:101570003C4B1B68002B21D13B4B1B68FB603B4B5A
:101580001B68394A1360394AFB681360384B1B6883
:101590000133374A1360344B1B681B68002B04D19E
:1015A000344B4FF0FF321A6008E02F4B1B68DB68AA
:1015B000DB68BB60BB685B682E4A1360294B1A6806
:1015C0002C4B1B689A4247D3274B1B681B68002B88
:1015D00004D1284B4FF0FF321A603DE0224B1B68CC
:1015E000DB68DB68BB60BB685B687B601D4B1A68AF
:1015F0007B689A4203D21F4A7B6813602CE0BB6869
:101600000433184600F072FCBB689B6A002B04D0C0
:10161000BB681833184600F069FCBB68DA6A164BE1
:101620001B689A4203D9BB68DB6A134A1360BB6824
:10163000DA6A13469B0013449B00104A1A44BB68A5
:1016400004331946104600F0F1FBBDE70C4B1B6854
:1016500001330B4A1360FFE700BF1037BD4680BD62
:10166000D4000020C4000020A4000020A800002016
:10167000E000002000000020CC0000201800002026
:10168000D800002080B483B000AF1D4B1B68002B36
:1016900008D01C4B01221A602DE01B4B1B68013B3C
:1016A000194A1360184B1A68184913469B001344D3
:1016B0009B000B441B68002BEFD0134B1A6813469A
:1016C0009B0013449B00114A13447B607B685B685A
:1016D0005A687B685A607B685A687B6808339A420C
:1016E00004D17B685B685A687B685A607B685B687A
:1016F000DB68074A136000BF0C37BD4680BC7047EB
:10170000D4000020DC000020CC00002018000020C5
:101710001400002080B582B000AF786000F074F84B
:10172000034B1B68012BF9D900F06AFCF6E700BFF8
:101730001800002080B584B000AFF860B9607A600E
:101740003B60FB6834331022B968184601F0C8F8D2
:10175000FB68002283F843207B68042B01D9042313
:101760007B60FB687A68DA62FB680433184600F035
:1017700051FBFB681833184600F04CFBFB68FA6815
:101780001A617B68C3F10502FB689A61FB68FA681D
:101790005A6200BF1037BD4680BD00BF80B582B021
:1017A00000AF00237B600CE07A6813469B00134473
:1017B0009B000F4A1344184600F00CFB7B68013372
:1017C0007B607B68042BEFD90A4800F003FB0A48D2
:1017D00000F000FB094800F0FDFA094B054A1A60C9
:1017E000084B054A1A6000BF0837BD4680BD00BFE0
:1017F000180000207C00002090000020AC00002099
:10180000A4000020A800002080B400AF00BFBD46A7
:1018100080BC704780B582B000AF7860134B1B6806
:101820007A685A60124B1B687A689A4209D2114B47
:101830001A680E4B1B6804331946104600F01EFB55
:1018400010E00D4B1A68094B1B680433194610460B
:1018500000F014FB094B1B687A689A4202D2074ACF
:101860007B68136000BF0837BD4680BD14000020B0
:10187000C4000020A8000020A400002000000020D8
:1018800080B584B000AF03463960FB804C2000F087
:1018900037FCF860FB68002B1ED03B68002B06D19C
:1018A000FB889B00184600F02BFC034600E03B68D9
:1018B000FA681363FB681B6B002B05D1F86800F016
:1018C000C1FC0023FB6007E0FB68186BFB889B00F2
:1018D0001A46A52100F0B6FFFB6818461037BD4632
:1018E00080BD00BF80B500AF00F068F900F0A6F938
:1018F00000F002F800BF80BD80B582B000AF0121CA
:101900005148FEF755FE4FF41943BB801023FB717D
:101910000323BB713B1D19464C48FEF725FD41F2E0
:101920000303BB801023FB710323BB713B1D1946CE
:101930004748FEF719FD4FF42873BB801023FB7155
:101940000323BB713B1D19464248FEF70DFD0423DE
:10195000BB801023FB710323BB713B1D19463E481E
:10196000FEF702FD80213B48FEF7EEFD0423BB801D
:101970001423FB710323BB713B1D19463448FEF74A
:10198000F3FCC023BB801C23FB710323BB713B1DF5
:1019900019462F48FEF7E8FC48F23823BB8018238D
:1019A000FB710323BB713B1D19462848FEF7DCFC85
:1019B00049F62803BB801823FB710323BB713B1D31
:1019C00019462348FEF7D0FC4FF4C053BB801823C0
:1019D000FB710323BB713B1D19461E48FEF7C4FC77
:1019E00046F20543BB800423FB710323BB713B1DFF
:1019F00019461648FEF7B8FC44F21043BB80042396
:101A0000FB710323BB713B1D19461148FEF7ACFC6B
:101A100042F21F43BB800423FB710323BB713B1DB8
:101A200019460C48FEF7A0FCC023BB800023FB71C5
:101A30000323BB713B1D19460448FEF795FC00BF0C
:101A40000837BD4680BD00BF0002300000080140DD
:101A5000000C0140001001400014014080B400AFB0
:101A6000544B02221A60534B1A681346DB0013448E
:101A7000514A1360504B1B68102B09D94D4B012262
:101A80001A604C4B1A681346DB0013444A4A136031
:101A9000494B1B68102B00F28880474B1B68012BB9
:101AA00040F28380434B1B68012B04D1414B4FF420
:101AB00080321A6007E03F4B1B68022B03D13D4B7D
:101AC0004FF440321A603C4B1B68023B0E2B6BD824
:101AD00001A252F823F000BF151B00081D1B0008CF
:101AE000271B0008311B00083B1B0008451B000892
:101AF0004F1B0008591B0008631B00086D1B0008E2
:101B0000771B0008811B00088B1B0008951B000831
:101B10009F1B0008284B00221A6046E0264B4FF41A
:101B200080221A6041E0244B4FF400221A603CE00E
:101B3000214B4FF440221A6037E01F4B4FF48012C4
:101B40001A6032E01C4B4FF4A0121A602DE01A4BC1
:101B50004FF4C0121A6028E0174B4FF4E0121A60DD
:101B600023E0154B4FF400121A601EE0124B4FF4A5
:101B700010121A6019E0104B4FF420121A6014E092
:101B80000D4B4FF430121A600FE00B4B4FF4401224
:101B90001A600AE0084B4FF450121A6005E0064B39
:101BA0004FF460121A6000E0FEE700BFBD4680BC43
:101BB000704700BF584900205449002080B582B0CA
:101BC00000AFFFF74BFFFFF743F84FF48030FFF70C
:101BD0006DF8FFF799F80346FB71FB79012B25D1CE
:101BE0000020FFF711F90020FFF746F94FF480605D
:101BF000FFF726F90F4B1A680F4B1B681946104662
:101C0000FFF7AAF80120FFF7C5F800BF3920FFF75A
:101C10006DF90346002BF9D00220FFF7CBF800BF87
:101C2000FFF7E4F80346082BFAD100E0FEE7083797
:101C3000BD4680BD584900205449002080B500AF02
:101C400001210120FFF734F901210420FFF730F9C9
:101C500001210820FFF72CF901211020FFF728F9B6
:101C600001212020FFF724F900BF80BD80B582B09C
:101C700000AF7860534B1B78002B0CBF012300236F
:101C8000DBB21A464FF400614F48FEF779FC4FF47F
:101C900000614D48FEF73EFC0346002B0CBF0123BC
:101CA0000023DBB21A46474B1A70464B5B78002B79
:101CB0000CBF01230023DBB21A464FF48051424887
:101CC000FEF75EFC4FF480513F48FEF723FC0346CD
:101CD000002B0CBF01230023DBB21A46394B5A708C
:101CE000384B9B78002B0CBF01230023DBB21A4634
:101CF0004FF480713448FEF743FC324BDB78002B05
:101D00000CBF01230023DBB21A464FF400712F48A9
:101D1000FEF736FC01212C48FEF7E2FB03461A468B
:101D2000284B1A7302212848FEF7DAFB03461A46AD
:101D3000244BDA724FF480712548FEF7D1FB03463D
:101D40001A46204BDA714FF400712148FEF7C8FBA8
:101D500003461A461B4B1A7201211C48FEF7C0FBB2
:101D600003461A46174B1A7102211848FEF7B8FBB2
:101D700003461A46134B5A7104211448FEF7B0FB70
:101D800003461A460F4B9A7108211048FEF7A8FB2C
:101D900003461A460B4B9A7210210C48FEF7A0FB23
:101DA00003461A46074B5A734FF400510748FEF793
:101DB00097FB03461A46034B5A726420FFF7ECFA6E
:101DC00058E700BF344900200008014000100140DE
:101DD000000C014080B483B000AF78607B6803F1F1
:101DE00008027B685A607B684FF0FF329A607B681C
:101DF00003F108027B68DA607B6803F108027B6804
:101E00001A617B6800221A6000BF0C37BD4680BC97
:101E1000704700BF80B483B000AF78607B68002259
:101E20001A6100BF0C37BD4680BC704780B485B0D6
:101E300000AF786039607B685B68FB60FB685A685C
:101E40003B685A607B685A683B689A60FB685B68CD
:101E50003A689A60FB683A685A607B683A685A60E8
:101E60003B687A681A617B681B685A1C7B681A6039
:101E700000BF1437BD4680BC704700BF80B485B03A
:101E800000AF786039603B681B68BB60BB68B3F12A
:101E9000FF3F03D17B681B69FB600CE07B68083364
:101EA000FB6002E0FB685B68FB60FB685B681A68CC
:101EB000BB689A42F6D9FB685A683B685A603B682F
:101EC0005B683A689A603B68FA689A60FB683A68AF
:101ED0005A603B687A681A617B681B685A1C7B6889
:101EE0001A6000BF1437BD4680BC704780B485B00F
:101EF00000AF78607B685B687A6892689A607B68FC
:101F00009B687A6852685A607B681B69FB60FB6853
:101F10005A687B689A4203D17B689A68FB685A606A
:101F20007B6800221A61FB681B685A1EFB681A60F6
:101F300000BF1437BD4680BC704700BF80B485B079
:101F400000AFF860B9607A60FB68043BFB60FB6837
:101F50004FF080721A60FB68043BFB60BA68FB6854
:101F60001A60FB68043BFB60FB6800221A60FB6898
:101F7000143BFB607A68FB681A60FB68203BFB60DF
:101F8000FB6818461437BD4680BC7047064B19687D
:101F90000868B0E8F00F80F309884FF0000080F384
:101FA00011884EF00D0E70471400002000BF00BFD6
:101FB00004480068006880F3088862B600DF00BF4C
:101FC00000BF000008ED00E080B500AF0A4A0A4BF0
:101FD0001B6843F47F031360074A074B1B6843F0F9
:101FE0007F43136000F07AF8044B00221A60FFF779
:101FF000DFFF0023184680BD20ED00E00400002034
:1020000080B400AF034B4FF080521A6000BFBD4652
:1020100080BC704704ED00E080B400AF4FF0BF001B
:1020200080F31188044B1B680133034A136000BF1F
:10203000BD4680BC704700BF0400002080B400AFE4
:10204000084B1B68013B074A1360064B1B68002BBB
:1020500003D14FF0000080F3118800BFBD4680BC63
:10206000704700BF04000020EFF309800C4B1A6892
:1020700020E9F00F10602DE908404FF0BF0080F319
:102080001188FFF7FFFA4FF0000080F31188BDE8D8
:10209000084019680868B0E8F00F80F309887047B5
:1020A0001400002000BF00BF80B582B000AF0A4B13
:1020B0004FF080521A6000237B604FF0BF0080F326
:1020C0001188FFF749FA4FF0000080F3118800BF34
:1020D0000837BD4680BD00BF04ED00E080B400AF0E
:1020E000044B054A1A60054B07221A6000BFBD4623
:1020F00080BC704714E000E03F19010010E000E0F0
:1021000080B58AB000AF78600023FB61FFF79CF9CF
:10211000474B1B68002B18D1464B474A1A60454B6A
:1021200000225A60454B4FF490425A60434B0022C4
:102130001A60414B7B617B694FF490425A607B6926
:102140003E4A1A603A4B01221A607B68002B0ED07F
:1021500010231A467B6813447B607B6803F00703F7
:10216000002B04D07B6823F0070308337B607B6877
:10217000002B56D07B68B3F5904F52D22D4B3B626B
:102180002C4B1B687B6204E07B6A3B627B6A1B68AA
:102190007B627B6A5A687B689A4203D27B6A1B68BF
:1021A000002BF1D17B6A254A93423AD03B6A1B68E7
:1021B00010221344FB617B6A1A683B6A1A607B6ACF
:1021C0005A687B68D31A10225200934222D97A6A45
:1021D0007B6813443B617B6A5A687B68D21A3B690F
:1021E0005A607B6A7A685A603B695B68FB60114B96
:1021F000BB6102E0BB691B68BB61BB691B685A68B5
:10220000FB689A42F6D3BB691A683B691A60BB69DE
:102210003A691A600A4B1A687B6A5B68D31A084AE3
:102220001360FFF71FF9FB6918462837BD4680BDCC
:1022300030490020204900202001002028490020AA
:102240000800002080B586B000AF78607B683B61F5
:102250007B68002B27D010235B423A6913443B6113
:102260003B69FB60FFF7F0F8FB685B68BB60104BF5
:102270007B6102E07B691B687B617B691B685A6834
:10228000BB689A42F6D37B691A68FB681A607B695F
:10229000FA681A60FB685A68064B1B681344054AC3
:1022A0001360FFF7DFF800BF1837BD4680BD00BFE1
:1022B000204900200800002081F0004102E000BF1A
:1022C00083F0004330B54FEA41044FEA430594EAF6
:1022D000050F08BF90EA020F1FBF54EA000C55EA31
:1022E000020C7FEA645C7FEA655C00F0E2804FEA02
:1022F0005454D4EB5555B8BF6D420CDD2C4480EAE4
:10230000020281EA030382EA000083EA010180EA13
:10231000020281EA0303362D88BF30BD11F0004F61
:102320004FEA01314FF4801C4CEA113102D0404297
:1023300061EB410113F0004F4FEA03334CEA1333D2
:1023400002D0524263EB430394EA050F00F0A780EA
:10235000A4F10104D5F1200E0DDB02FA0EFC22FAE5
:1023600005F2801841F1000103FA0EF2801843FAD9
:1023700005F359410EE0A5F120050EF1200E012ACA
:1023800003FA0EFC28BF4CF0020C43FA05F3C01808
:1023900051EBE37101F0004507D54FF0000EDCF181
:1023A000000C7EEB00006EEB0101B1F5801F1BD32A
:1023B000B1F5001F0CD349085FEA30004FEA3C0C2E
:1023C00004F101044FEA445212F5800F80F09A8024
:1023D000BCF1004F08BF5FEA500C50F1000041EB28
:1023E000045141EA050130BD5FEA4C0C404141EB2C
:1023F000010111F4801FA4F10104E9D191F0000F53
:1024000004BF01460020B1FA81F308BF2033A3F1D5
:102410000B03B3F120020CDA0C3208DD02F1140CCC
:10242000C2F10C0201FA0CF021FA02F10CE002F107
:102430001402D8BFC2F1200C01FA02F120FA0CFC00
:10244000DCBF41EA0C019040E41AA2BF01EB045149
:10245000294330BD6FEA04041F3C1CDA0C340EDC47
:1024600004F11404C4F1200220FA04F001FA02F38A
:1024700040EA030021FA04F345EA030130BDC4F148
:102480000C04C4F1200220FA02F001FA04F340EA3D
:102490000300294630BD21FA04F0294630BD94F0EE
:1024A000000F83F4801306BF81F480110134013DD5
:1024B0004EE77FEA645C18BF7FEA655C29D094EA46
:1024C000050F08BF90EA020F05D054EA000C04BFC4
:1024D0001946104630BD91EA030F1EBF00210020AF
:1024E00030BD5FEA545C05D14000494128BF41F04E
:1024F000004130BD14F580043CBF01F5801130BDB2
:1025000001F0004545F0FE4141F470014FF000003C
:1025100030BD7FEA645C1ABF194610467FEA655CED
:102520001CBF0B46024650EA013406BF52EA03358F
:1025300091EA030F41F4002130BD00BF90F0000F7D
:1025400004BF0021704730B54FF4806404F13204B9
:102550004FF000054FF0000150E700BF90F0000F72
:1025600004BF0021704730B54FF4806404F1320499
:1025700010F0004548BF40424FF000013EE700BF69
:1025800042004FEAE2014FEA31014FEA02701FBFF9
:1025900012F07F4393F07F4F81F06051704792F0CB
:1025A000000F14BF93F07F4F704730B54FF4607445
:1025B00001F0004521F0004120E700BF50EA010290
:1025C00008BF704730B54FF000050AE050EA01023D
:1025D00008BF704730B511F0004502D5404261EBAD
:1025E00041014FF4806404F132045FEA915C3FF4EE
:1025F000DCAE4FF003025FEADC0C18BF03325FEA87
:10260000DC0C18BF033202EBDC02C2F1200300FA3B
:1026100003FC20FA02F001FA03FE40EA0E0021FA60
:1026200002F11444C1E600BF80F0004002E000BFA8
:1026300081F0004142001FBF5FEA410392EA030FAD
:102640007FEA226C7FEA236C6AD04FEA1262D2EBF7
:102650001363C1BFD218414048404140B8BF5B42FC
:10266000192B88BF704710F0004F40F4000020F095
:102670007F4018BF404211F0004F41F4000121F0AB
:102680007F4118BF494292EA030F3FD0A2F10102F5
:1026900041FA03FC10EB0C00C3F1200301FA03F133
:1026A00000F0004302D5494260EB4000B0F5000F56
:1026B00013D3B0F1807F06D340084FEA310102F115
:1026C0000102FE2A51D2B1F1004F40EBC25008BFC7
:1026D00020F0010040EA03007047490040EB000091
:1026E00010F4000FA2F10102EDD1B0FA80FCACF1C0
:1026F000080CB2EB0C0200FA0CF0AABF00EBC250BF
:1027000052421843BCBFD0401843704792F0000FAC
:1027100081F4000106BF80F400000132013BB5E7FF
:102720004FEA41037FEA226C18BF7FEA236C21D075
:1027300092EA030F04D092F0000F08BF08467047DA
:1027400090EA010F1CBF0020704712F07F4F04D1A8
:10275000400028BF40F00040704712F100723CBFBB
:1027600000F50000704700F0004343F0FE4040F4E5
:10277000000070477FEA226216BF08467FEA2363A3
:102780000146420206BF5FEA412390EA010F40F48E
:10279000800070474FF0000304E000BF10F00043DA
:1027A00048BF40425FEA000C08BF704743F09643C1
:1027B00001464FF000001CE050EA010208BF7047DC
:1027C0004FF000030AE000BF50EA010208BF704763
:1027D00011F0004302D5404261EB41015FEA010C78
:1027E00002BF84460146002043F0B64308BFA3F170
:1027F0008053A3F50003BCFA8CF2083AA3EBC25352
:1028000010DB01FA02FC634400FA02FCC2F1200270
:10281000BCF1004F20FA02F243EB020008BF20F0A7
:102820000100704702F1200201FA02FCC2F120020D
:1028300050EA4C0021FA02F243EB020008BF20EA02
:10284000DC70704770B4840746D0541E002A41D013
:10285000CDB2034602E0621EE4B3144603F8015B06
:102860009A07F8D1032C2ED9CDB245EA05250F2CB5
:1028700045EA054519D9264603F11002103E0F2EF0
:1028800042F8105C42F80C5C42F8085C42F8045CC8
:1028900002F11002F2D8A4F1100222F00F0204F0AB
:1028A0000F041032032C13440DD91E462246043A5D
:1028B000032A46F8045BFAD8221F22F003020432EE
:1028C000134404F003042CB1C9B21C4403F8011BE7
:1028D000A342FBD170BC704714460346C2E700BF59
:1028E00040EA01039B0770B42BD1032A29D90C4677
:1028F0000346214654F8046BA6F1013525EA060586
:1029000015F0803F06D1043A032A43F8046B2146B0
:10291000EFD8A2B10C78013A1C70013101333CB1FF
:102920006AB111F8014B013A03F8014B002CF7D1C1
:102930002AB11A44002103F8011B9A42FBD170BC52
:1029400070470346E5E700BF47657420616E642069
:1029500053657420494F2070696E730053656E7320
:102960006F7220444854313120726573756C740065
:1029700025642A0A0000000049444C45000000007C
:102980000D0A0000257309092563092575092575B8
:062990000925750D0A0087
:0C299600FFFFFFFFAAAAAAAA0048000049
:0400000508000000EF
:00000001FF
