:020000040800F2
:1000000004090020010300086103000861030008DF
:10001000610300086103000861030008000000009C
:100020000000000000000000000000006103000864
:100030006103000800000000610300084916000881
:100040006103000861030008610300086103000800
:1000500061030008610300086103000861030008F0
:1000600061030008610300086103000861030008E0
:1000700061030008610300086103000861030008D0
:1000800061030008610300086103000861030008C0
:1000900061030008610300086103000861030008B0
:1000A00061030008610300086103000861030008A0
:1000B0006103000861030008610300086103000890
:1000C0006103000861030008610300086103000880
:1000D00061030008F10700086103000861030008DC
:1000E0006103000861030008610300086103000860
:1000F0006103000861030008610300086103000850
:10010000610300086103000861030008610300083F
:10011000610300086103000861030008610300082F
:10012000610300086103000861030008610300081F
:100130005FF808F180B485B000AF78600023FB6001
:1001400007E0FB680133FB60FB68052BF9D900234E
:10015000FB607B685A1E7A60002BF5D100BF143714
:10016000BD4680BC704700BF80B582B000AF7860EC
:1001700003E04FF47A70FFF7DDFF7B685A1E7A6068
:10018000002BF6D100BF0837BD4680BD80B500AF5B
:10019000154A154B1B6843F0010313601249124BBB
:1001A0005A68124B13404B600F4A0F4B1B6823F0E9
:1001B000847323F4803313600B4A0B4B1B6823F4C6
:1001C00080231360084A084B5B6823F4FE035360E6
:1001D000054B4FF41F029A6000F00CF8044B4FF0EF
:1001E00000629A6000BF80BD001002400000FFF86E
:1001F00000ED00E080B500AF00F002F800BF80BD68
:1002000080B483B000AF00237B6000233B603A4A98
:10021000394B1B6843F480331360374B1B6803F47E
:1002200000333B607B6801337B603B68002B03D16C
:100230007B68B3F5A06FF0D12F4B1B6803F400333C
:10024000002B02D001233B6001E000233B603B68B0
:10025000012B4BD1294A294B1B6843F01003136033
:10026000264A264B1B6823F003031360234A234BC3
:100270001B6843F0020313601F4A1F4B5B68536007
:100280001D4A1D4B5B6853601B4A1B4B5B6843F464
:1002900080635360184A184B5B6823F47C135360E7
:1002A000154A154B5B6843F4E8135360124A124B2E
:1002B0001B6843F08073136000BF0F4B1B6803F093
:1002C0000073002BF9D00C4A0B4B5B6823F003033F
:1002D0005360094A084B5B6843F00203536000BF58
:1002E000054B5B6803F00C03082BF9D100BF0C37FA
:1002F000BD4680BC704700BF001002400020024095
:1003000080B582B000AF114B7B60114B3B6007E0C2
:100310003B681A1D3A607A68111D796012681A608C
:100320003B680C4A9342F3D30B480C494FF0000250
:100330008842B8BF40F8042BFADBFFF727FF00F034
:10034000A7F900BF0837BD4680BD00BFBA7D0008D1
:100350000000002048000020480000200805002080
:1003600080B400AFFEE700BF80B489B000AF786012
:1003700039600023FB6100233B610023BB61002344
:10038000FB6000237B610023BB603B68DB7803F0EC
:100390000F03FB613B68DB7803F01003002B05D0F3
:1003A0003B689B781A46FB691343FB613B681B88DB
:1003B000DBB2002B44D07B681B687B610023BB61F0
:1003C00038E00122BB6902FA03F3FB603B681B883B
:1003D0001A46FB6813403B613A69FB689A4226D192
:1003E000BB699B00FB600F22FB6802FA03F3BB6052
:1003F000BB68DB437A6913407B61FA69FB6802FAE8
:1004000003F37A6913437B613B68DB78282B05D1C2
:100410000122BB699A407B685A6108E03B68DB783F
:10042000482B04D10122BB699A407B681A61BB69E1
:100430000133BB61BB69072BC3D97B687A691A603A
:100440003B681B88FF2B46D97B685B687B61002378
:10045000BB613AE0BB690833012202FA03F3FB6097
:100460003B681B881A46FB6813403B613A69FB688E
:100470009A4227D1BB699B00FB600F22FB6802FAFE
:1004800003F3BB60BB68DB437A6913407B61FA69A5
:10049000FB6802FA03F37A6913437B613B68DB78FC
:1004A000282B05D1BB69083301229A407B685A6129
:1004B0003B68DB78482B05D1BB69083301229A40A1
:1004C0007B681A61BB690133BB61BB69072BC1D96A
:1004D0007B687A695A6000BF2437BD4680BC70478C
:1004E00080B485B000AF78600B467B800023FB733F
:1004F0007B689A687B881340002B02D00123FB7332
:1005000001E00023FB73FB7B18461437BD4680BC1B
:10051000704700BF80B485B000AF78600B467B8029
:100520000023FB737B68DA687B881340002B02D0C2
:100530000123FB7301E00023FB73FB7B1846143798
:10054000BD4680BC704700BF80B483B000AF786008
:100550000B467B807A887B681A6100BF0C37BD46EA
:1005600080BC704780B483B000AF78600B467B805E
:100570007A887B685A6100BF0C37BD4680BC7047E3
:1005800080B483B000AF78600B467B8013467B70ED
:100590007B78002B03D07A887B681A6102E07A8826
:1005A0007B685A6100BF0C37BD4680BC704700BFF6
:1005B00080B487B000AF78600B46FB7000233B61CE
:1005C0000023FB6000237B610023BB607B68002B62
:1005D00003DA2E4BDB697B6102E02C4B5B687B61AD
:1005E0007B681B0C03F00F03BB607B689BB23B6115
:1005F0007B6803F44013B3F5401F0AD17B6923F0F5
:1006000070637B61214A214B5B6823F07063536008
:1006100021E07B6803F48013002B0ED00322BB681B
:1006200002FA03F3FB60FB68DB437A6913407B61EA
:100630007B6943F070637B610DE07B685B0D1B01A0
:100640003A6902FA03F3DB437A6913407B617B6901
:1006500043F070637B61FB78002B08D07B685B0DF7
:100660001B013A6902FA03F37A6913437B617B68E1
:10067000002B03DA054A7B69D36102E0034A7B69F8
:10068000536000BF1C37BD4680BC7047000001406E
:1006900080B500AF00F002F8FCE700BF80B500AF06
:1006A0001B4B1B780B2B30D801A252F823F000BF54
:1006B000E1060008E9060008F50600080B07000837
:1006C00009070008090700080907000809070008CA
:1006D00009070008090700080907000801070008C2
:1006E0000B4B01221A7010E000F07CFF084B022235
:1006F0001A700AE001F09EF9054B0B221A7004E013
:10070000034B02221A7000E000BF00BF80BD00BF93
:100710004800002080B588B000AF786025233B7783
:1007200000237B770023BB770123FB7707F11C03B2
:10073000184602F0DBF84FF400711148FFF704FF90
:100740007B68FB6000233B8200237B820023BB820B
:1007500000233B830C23FB8207F10C031946094855
:1007600001F08EFC0121074801F044FD012240F216
:100770002551044801F05EFD00BF2037BD4680BD15
:10078000000801400038014080B483B000AF034648
:10079000FB7100BF074B1B889BB203F04003002B8B
:1007A000F8D0044BFA7992B29A8000BF0C37BD465C
:1007B00080BC70470038014080B584B000AF7860DD
:1007C0000023FB6009E0FB685A1CFA601A467B684C
:1007D00013441B781846FFF7D7FFFB687A68134469
:1007E0001B78002BEFD100BF1037BD4680BD00BF86
:1007F00080B500AF154B1B889BB203F02003002B84
:1008000021D0124A114B1B889BB223F020039BB2CC
:1008100013800F4B1B781A460C4B9B889BB2D9B2A6
:100820000C4B99540A4B1B781A460A4B9B5CDBB263
:100830000A2B02D100F010F805E0054B1B780133BC
:10084000DAB2034B1A7000BF80BD00BF0038014010
:10085000B00000204C00002080B594B000AF3F49AC
:100860003F4803F071F90346002B06D03D4B0122AF
:100870001A703D48FFF7A0FF67E03C49384803F095
:1008800063F90346002B06D0364B00221A70384815
:10089000FFF792FF59E0334B1B78002B39D0314BD7
:1008A0001B78022B35D833492D4803F04DF9034608
:1008B000002B06D03048FFF77FFF2A4B02221A7028
:1008C00043E02E49264803F03FF90346002B06D0AB
:1008D0002B48FFF771FF234B03221A7035E0214BA1
:1008E0001B78022B11D127491D4803F02DF903462F
:1008F000002B06D02448FFF75FFF1A4B04221A7022
:1009000023E02248FFF758FF1FE02148FFF754FF7C
:100910001BE0144B1B78022B14D91E49104803F01E
:1009200013F90346002B10D007F14C03023307F1F3
:100930004C02381D184900F0EFFA3B1D1846FFF72E
:100940003BFF02E01248FFF737FF00F029F8134B96
:1009500000221A7000BF5037BD4680BD283F0008F6
:100960004C000020B2000020303F0008403F00084B
:10097000443F0008543F00085C3F0008783F0008EF
:10098000803F000814000020903F0008A03F0008AE
:10099000B83F0008D03F0008D83F0008B000002052
:1009A00080B400AF0B4B00221A700BE0094B1B7890
:1009B0001A46094B00219954064B1B780133DAB2D1
:1009C000044B1A70034B1B78632BEFD900BFBD4655
:1009D00080BC7047B00000204C00002080B483B081
:1009E00000AF78600B46FB707B68FA781A700123C1
:1009F00018460C37BD4680BC704700BF80B485B038
:100A000000AF786039600023FB600AE07B685A1C05
:100A10007A603A68511C396012781A70FB680133A9
:100A2000FB603B681B78002BF0D1FB68184614373D
:100A3000BD4680BC704700BF80B586B000AFF8608F
:100A40007A603B600B46FB7200237B617B68013B55
:100A50007B603B68092B1DD93B681D4AA2FB032321
:100A6000DB08F97A7A68F868FFF7E6FF78617B6956
:100A7000FA681344FB6010E0FB7A1946F868FFF748
:100A8000ADFFFB680133FB607B6901337B617B68F1
:100A9000013B7B607B68002BEEDC39680C4BA3FBD1
:100AA0000123DA0813469B0013445B00CA1AD3B231
:100AB0003033DBB21946F868FFF790FF02467B69D6
:100AC00013447B617B6918461837BD4680BD00BF63
:100AD000CDCCCCCC80B586B000AFF8607A603B60FE
:100AE0000B46FB7200237B613B68002B03DA3B68FB
:100AF0005B423B6101E03B683B617B68013B7B60A3
:100B00003B69092B1FD93B68002B0CDA3B692E4A45
:100B1000A2FB0323DB085B42F97A7A68F868FFF7E7
:100B2000D9FF78610AE03B69274AA2FB0323DB086F
:100B3000F97A7A68F868FFF7CDFF78617B69FA681F
:100B40001344FB6025E03B68002B11DA7B68013B16
:100B50007B600DE0FB7A1946F868FFF73FFFFB6802
:100B60000133FB607B6901337B617B68013B7B6008
:100B70007B68002BEEDC3B68002B0ADA2D21F8683D
:100B8000FFF72CFF02467B6913447B61FB6801334E
:100B9000FB6039690C4BA3FB0123DA0813469B0069
:100BA00013445B00CA1AD3B23033DBB21946F8687B
:100BB000FFF714FF02467B6913447B617B6918468B
:100BC0001837BD4680BD00BFCDCCCCCC80B588B039
:100BD00002AFF8607A601A460B46FB721346BB728E
:100BE00000237B617B68013B7B603B6A1B09002B18
:100BF00020D03B6A1B09BA7AF97A009313467A68C7
:100C0000F868FFF7E3FF02467B6913447B617B6969
:100C1000FA681344FB6010E0FB7A1946F868FFF7A6
:100C2000DDFEFB680133FB607B6901337B617B6820
:100C3000013B7B607B68002BEEDC3B6A03F00F031B
:100C4000092B0BD83B6ADBB203F00F03DBB2303366
:100C5000DBB21946F868FFF7C1FE19E0BB7A002B3A
:100C60000BD03B6ADBB203F00F03DBB23733DBB2EE
:100C70001946F868FFF7B2FE0AE03B6ADBB203F000
:100C80000F03DBB25733DBB21946F868FFF7A6FE55
:100C90007B6901337B617B6918461837BD4680BD8F
:100CA00080B58AB002AFF860B9607A603B6000231B
:100CB000BB6100237B61FB68002B00F0FC80FB68BC
:100CC00000221A70F7E07B681B78252B0BD0FB689D
:100CD0005A1CFA607A68511C796012781A707B6924
:100CE00001337B61E7E07B6801331B78252B0BD157
:100CF000FB685A1CFA6025221A707B6802337B60FD
:100D00007B6901337B61D6E02023FB770023BB772F
:100D10007B6801337B607B681B78302B14D13023D8
:100D2000FB777B6801337B600EE0BB7F1A46920045
:100D300013445B00DAB27B681B781344DBB2303BB0
:100D4000BB777B6801337B607B681B782F2B03D9D3
:100D50007B681B78392BE8D9BA7F7B6913441A4624
:100D6000BB689A4205D9BB68DAB27B69DBB2D31A99
:100D7000BB777B681B78583B202B00F28E8001A24A
:100D800052F823F0550E00089B0E00089B0E000839
:100D90009B0E00089B0E00089B0E00089B0E00088F
:100DA0009B0E00089B0E00089B0E00089B0E00087F
:100DB000850E0008090E00089B0E00089B0E000817
:100DC0009B0E00089B0E0008090E00089B0E0008F1
:100DD0009B0E00089B0E00089B0E00089B0E00084F
:100DE0009B0E00089B0E00089B0E00089B0E00083F
:100DF000710E00089B0E0008210E00089B0E0008D3
:100E00009B0E0008390E0008B87F3B681A1D3A6037
:100E10001B68F97F0246F868FFF75CFEB8613FE0A7
:100E2000B87F3B681A1D3A601B68F97F0246F86874
:100E3000FFF702FEB86133E0B87F3B681A1D3A60E5
:100E40001B68F97F009300230246F868FFF7BEFE97
:100E5000B86125E0B87F3B681A1D3A601B68F97FCE
:100E6000009301230246F868FFF7B0FEB86117E06F
:100E70003B681A1D3A601B681946F868FFF7BEFD0B
:100E8000B8610DE03B681A1D3A601B68DBB2194679
:100E9000F868FFF7A3FDB86102E04FF0FF3325E0EB
:100EA0007B6801337B60BB69FA681344FB607A6935
:100EB000BB6913447B617B681B78002B04D07A6983
:100EC000BB689A42FFF4FFAE7A69BB689A4203D2CC
:100ED000FB6800221A7008E0FB68013BFB60FB68BE
:100EE00000221A707B69013B7B617B6918462037C1
:100EF000BD4680BD80B584B000AFF860B9607A604F
:100F00007B68BA686421F868FFF7CAFE0346184692
:100F10001037BD4680BD00BF0EB480B585B000AFB0
:100F2000786007F12003BB60BA68F9697868FFF759
:100F3000E1FFF860FB6818461437BD46BDE8804005
:100F400003B0704780B400AF134A134B1B6843F0E3
:100F5000010313601049104B5A68104B13404B604B
:100F60000D4A0D4B1B6823F0847323F48033136008
:100F7000094A094B1B6823F480231360064A064B79
:100F80005B6823F4FE035360034B4FF41F029A6027
:100F900000BFBD4680BC7047001002400000FFF853
:100FA00080B483B000AF7860134A134B1B6823F4FE
:100FB00080331360104A104B1B6823F480231360A6
:100FC0007B68B3F5803F03D0B3F5802F07D00DE0E9
:100FD000094A094B1B6843F48033136006E0064A54
:100FE000054B1B6843F4A023136000BF00BF0C3700
:100FF000BD4680BC704700BF0010024080B582B083
:1010000000AF00233B600023FB710023BB71312044
:1010100000F0B4F90346BB713B6801333B603B68A9
:10102000B3F5A06F02D0BB79002BF0D0312000F0D7
:10103000A5F90346002B02D00123FB7101E0002338
:10104000FB71FB7918460837BD4680BD80B485B07A
:1010500000AF786039600023FB600A4B5B68FB607F
:10106000FB6823F47C13FB607A683B681343FA68DF
:101070001343FB60034AFB68536000BF1437BD464F
:1010800080BC70470010024080B483B000AF0346BC
:10109000FB71044AFB79136000BF0C37BD4680BC6E
:1010A000704700BF6000424280B485B000AF7860F6
:1010B0000023FB60094B5B68FB60FB6823F00303C4
:1010C000FB60FA687B681343FB60044AFB6853606B
:1010D00000BF1437BD4680BC704700BF00100240FF
:1010E00080B400AF044B5B68DBB203F00C03DBB2EF
:1010F0001846BD4680BC70470010024080B485B0E1
:1011000000AF78600023FB60094B5B68FB60FB6805
:1011100023F0F003FB60FA687B681343FB60044A2A
:10112000FB68536000BF1437BD4680BC704700BFEA
:101130000010024080B485B000AF78600023FB60EF
:10114000094B5B68FB60FB6823F4E063FB60FA68B3
:101150007B681343FB60044AFB68536000BF14378D
:10116000BD4680BC704700BF0010024080B485B00F
:1011700000AF78600023FB60094B5B68FB60FB6895
:1011800023F46053FB607B68DB00FA681343FB6069
:10119000034AFB68536000BF1437BD4680BC7047EC
:1011A0000010024080B487B000AF786000237B61FC
:1011B00000233B610023FB600023BB604C4B5B685A
:1011C00003F00C037B617B69042B07D0082B09D04B
:1011D000002B33D17B68474A1A6033E07B68454A6D
:1011E0001A602FE0424B5B6803F470133B61404B85
:1011F0005B6803F48033FB603B699B0C02333B610B
:10120000FB68002B06D13B693B4A02FB03F27B687B
:101210001A6017E0364B5B6803F40033002B06D0EE
:101220003B69354A02FB03F27B681A600AE03B69BE
:10123000304A02FB03F27B681A6003E07B682D4AA8
:101240001A6000BF2A4B5B6803F0F0037B617B6987
:101250001B097B61294A7B6913441B78DBB2BB60A5
:101260007B681A68BB68DA407B685A60204B5B6811
:1012700003F4E0637B617B691B0A7B611F4A7B6926
:1012800013441B78DBB2BB607B685A68BB68DA40EA
:101290007B689A60164B5B6803F460537B617B69E3
:1012A000DB0A7B61154A7B6913441B78DBB2BB60A8
:1012B0007B685A68BB68DA407B68DA600C4B5B6815
:1012C00003F440437B617B699B0B7B610C4A7B6928
:1012D00013441B78DBB2BB607B68DA68BB68B2FB87
:1012E000F3F27B681A6100BF1C37BD4680BC7047B3
:1012F0000010024000127A0000093D001C0000208E
:101300002C00002080B483B000AF78600B46FB70E7
:10131000FB78002B06D00949084B9A697B68134378
:101320008B6106E00549054B9A697B68DB431340F6
:101330008B6100BF0C37BD4680BC70470010024077
:1013400080B483B000AF78600B46FB70FB78002B55
:1013500006D00949084BDA697B681343CB6106E084
:101360000549054BDA697B68DB431340CB6100BF5D
:101370000C37BD4680BC70470010024080B487B077
:1013800000AF0346FB710023FB6000237B61002359
:10139000FB74FB795B09DBB2FB60FB68012B03D1BB
:1013A000124B1B687B6109E0FB68022B03D10F4BDA
:1013B0001B6A7B6102E00D4B5B6A7B61FB7903F08A
:1013C0001F03FB607A69FB6822FA03F303F0010351
:1013D000002B02D00123FB7401E00023FB74FB7C93
:1013E00018461C37BD4680BC704700BF0010024045
:1013F00080B483B000AF03463960FB7197F90730C2
:10140000002B0BDA0D49FB7903F00F03043B3A681C
:10141000D2B21201D2B20B441A7609E0084997F908
:1014200007303A68D2B21201D2B20B4483F80023DB
:1014300000BF0C37BD4680BC704700BF00ED00E028
:1014400000E100E080B582B000AF78607B68B3F166
:10145000807F01D3012311E00A4A7B6823F07F4398
:10146000013B53600F214FF0FF30FFF7C1FF054BE9
:1014700000229A60034B07221A600023184608379F
:10148000BD4680BD10E000E080B584B002AF002012
:1014900001F042FD0023FB713FE00321002001F039
:1014A000B1FD01224549464801F042FEFB799BB25D
:1014B0003A3398B2FB799BB23A339AB20123009344
:1014C0000C23022101F05AFEFB799BB23B3398B208
:1014D000FB799BB23B339AB2012300930C23022188
:1014E00001F04CFE374B1B7899B2374B1B789AB200
:1014F00001230193112300930023344801F058FA8B
:1015000001F0D6FC324B00221A6000BF304B1B6842
:10151000952BFBD9FB790433FB71FB79452BBCD9A7
:10152000002001F0F9FC0A23BB713FE003210020F9
:1015300001F068FD01222149264801F0F9FDBB793F
:101540009BB23A3398B2BB799BB23A339AB2012339
:1015500000930C23022101F011FEBB799BB23B33B7
:1015600098B2BB799BB23B339AB2012300930C2310
:10157000022101F003FE184B1B7899B2174B1B7820
:101580009AB201230193112300930023144801F020
:101590000FFA01F08DFC0E4B00221A6000BF0C4BBD
:1015A0001B68952BFBD9BB790433BB71BB79452BE9
:1015B000BCD900BF0837BD4680BD00BF3000002049
:1015C000E43F0008707A0008717A0008707700081C
:1015D000B8000020EC3F0008747D0008757D00080D
:1015E000747A000880B500AF00F0C6F900F004FA84
:1015F00000F060F8104B1B68104AA2FB03239B0904
:101600001846FFF71FFF00F0EDFF0D4B02225A7046
:101610000C4B00229A700B4B0022DA7000F00AFA91
:1016200001F070FB00F08CFF4FF46140FFF772F89F
:10163000FFF72AFF00BF80BD00000020D34D6210DD
:10164000E0000020EC00002080B500AF154B1B68C7
:101650000133144A1360144B1B680133124A1360A0
:10166000104B1B68B3F57A7F07D30E4B00221A602C
:101670000E4B1B6801330D4A13600B4B1B68642B28
:1016800008D9094B00221A60094B1B78012B01D0A5
:1016900000F080FA054B1B680A2B01D900F050FFBF
:1016A00000BF80BDB8000020C0000020BC000020AA
:1016B000B400002080B582B000AF01215148FEF790
:1016C00077FF4FF41943BB801023FB710323BB71D9
:1016D0003B1D19464C48FEF747FE41F20303BB8011
:1016E0001023FB710323BB713B1D19464748FEF7CE
:1016F0003BFE4FF42873BB801023FB710323BB71A7
:101700003B1D19464248FEF72FFE0423BB801023E1
:10171000FB710323BB713B1D19463E48FEF724FEB7
:1017200080213B48FEF710FF0423BB801423FB718C
:101730000323BB713B1D19463448FEF715FEC02339
:10174000BB801C23FB710323BB713B1D19462F4833
:10175000FEF70AFE48F23823BB801823FB710323EF
:10176000BB713B1D19462848FEF7FEFD49F62803CC
:10177000BB801823FB710323BB713B1D1946234813
:10178000FEF7F2FD4FF4C053BB801823FB71032317
:10179000BB713B1D19461E48FEF7E6FD46F20543A8
:1017A000BB800423FB710323BB713B1D1946164804
:1017B000FEF7DAFD44F21043BB800423FB710323E0
:1017C000BB713B1D19461148FEF7CEFD42F21F4387
:1017D000BB800423FB710323BB713B1D19460C48DE
:1017E000FEF7C2FDC023BB800023FB710323BB7146
:1017F0003B1D19460448FEF7B7FD00BF0837BD463C
:1018000080BD00BF0002300000080140000C014014
:10181000001001400014014080B400AF544B02227C
:101820001A60534B1A681346DB001344514A136085
:10183000504B1B68102B09D94D4B01221A604C4BA1
:101840001A681346DB0013444A4A1360494B1B686D
:10185000102B00F28880474B1B68012B40F28380DD
:10186000434B1B68012B04D1414B4FF480321A606B
:1018700007E03F4B1B68022B03D13D4B4FF4403236
:101880001A603C4B1B68023B0E2B6BD801A252F82E
:1018900023F000BFD1180008D9180008E318000889
:1018A000ED180008F7180008011900080B190008C6
:1018B000151900081F190008291900083319000814
:1018C0003D19000847190008511900085B19000864
:1018D000284B00221A6046E0264B4FF480221A6003
:1018E00041E0244B4FF400221A603CE0214B4FF4BE
:1018F00040221A6037E01F4B4FF480121A6032E02A
:101900001C4B4FF4A0121A602DE01A4B4FF4C0127A
:101910001A6028E0174B4FF4E0121A6023E0154BD1
:101920004FF400121A601EE0124B4FF410121A60AE
:1019300019E0104B4FF420121A6014E00D4B4FF4D5
:1019400030121A600FE00B4B4FF440121A600AE09D
:10195000084B4FF450121A6005E0064B4FF460122A
:101960001A6000E0FEE700BFBD4680BC704700BFC4
:10197000FC040020D400002080B582B000AFFFF747
:101980004BFFFFF7DFFA4FF48030FFF709FBFFF75B
:1019900035FB0346FB71FB79012B25D10020FFF7B6
:1019A000ADFB0020FFF7E2FB4FF48060FFF7C2FBC6
:1019B0000F4B1A680F4B1B6819461046FFF746FB82
:1019C0000120FFF761FB00BF3920FFF7D7FC03467A
:1019D000002BF9D00220FFF767FB00BFFFF780FB69
:1019E0000346082BFAD100E0FEE70837BD4680BD6C
:1019F000FC040020D400002080B500AF01210120AC
:101A0000FFF780FC01210420FFF77CFC0121082066
:101A1000FFF778FC01211020FFF774FC0121202042
:101A2000FFF770FC01214FF48040FFF76BFC00BF13
:101A300080BD00BF80B500AF524B1B78002B0CBFA0
:101A400001230023DBB21A464FF400614E48FEF733
:101A500097FD4FF400614C48FEF75CFD0346002BF8
:101A60000CBF01230023DBB21A46464B1A70454BCC
:101A70005B78002B0CBF01230023DBB21A464FF426
:101A800080514148FEF77CFD4FF480513E48FEF7FF
:101A900041FD0346002B0CBF01230023DBB21A4695
:101AA000384B5A70374B9B78002B0CBF0123002317
:101AB000DBB21A464FF480713348FEF761FD314BBB
:101AC000DB78002B0CBF01230023DBB21A464FF456
:101AD00000712E48FEF754FD01212B48FEF700FD52
:101AE00003461A46274B1A7302212748FEF7F8FCD3
:101AF00003461A46234BDA724FF480712448FEF7EE
:101B0000EFFC03461A461F4BDA714FF40071204870
:101B1000FEF7E6FC03461A461A4B1A7201211B48CF
:101B2000FEF7DEFC03461A46164B1A7102211748CF
:101B3000FEF7D6FC03461A46124B5A71042113488D
:101B4000FEF7CEFC03461A460E4B9A7108210F4849
:101B5000FEF7C6FC03461A460A4B9A7210210B4840
:101B6000FEF7BEFC03461A46064B5A734FF400516B
:101B70000648FEF7B5FC03461A46024B5A7200BFF0
:101B800080BD00BFEC0000200008014000100140B3
:101B9000000C014080B582B002AF002001F0BCF91A
:101BA000944B1B7899B2944B1B789AB20123019302
:101BB000132300934FF6FD73904800F0F9FE1921AE
:101BC000002001F01FFA01228D498E4801F0B0FA81
:101BD0008D4B1B7899B28D4B1B789AB201230193E0
:101BE0002A23009300238A4800F0E2FE33210020DC
:101BF00001F008FA01228249864801F099FA864BE1
:101C00001B7899B2854B1B789AB2854BDB79002BF8
:101C10000CBF01230023DBB20193112300931B238C
:101C2000804800F0C5FE7C4B1B7899B27B4B1B783B
:101C30009AB27B4B1B7A002B0CBF01230023DBB233
:101C40000193212300931B23774800F0B1FE724BD0
:101C50001B7899B2714B1B789AB2714B5B7A002B4F
:101C60000CBF01230023DBB20193312300931B231C
:101C70006E4800F09DFE6E4B1B7899B26D4B1B7841
:101C80009AB2674B1B79002B0CBF01230023DBB2F8
:101C90000193112300933023674800F089FE644BC1
:101CA0001B7899B2634B1B789AB25D4B5B79002B22
:101CB0000CBF01230023DBB20193212300933023C7
:101CC0005E4800F075FE5A4B1B7899B2594B1B7851
:101CD0009AB2534B9B79002B0CBF01230023DBB23C
:101CE0000193312300933023554800F061FE554B9A
:101CF0001B7899B2544B1B789AB2494B9B7A002BB4
:101D00000CBF01230023DBB20193112300934A236C
:101D10004E4800F04DFE4E4B1B7899B24D4B1B7850
:101D20009AB23F4BDB7A002B0CBF01230023DBB2BE
:101D30000193212300934A23474800F039FE474B83
:101D40001B7899B2464B1B789AB2354B1B7B002B04
:101D50000CBF01230023DBB20193312300934A23FC
:101D6000404800F025FE404B1B7899B23F4B1B7852
:101D70009AB22B4B1B78002B0CBF01230023DBB244
:101D80000193112300936623394800F011FE394B6B
:101D90001B7899B2384B1B789AB2214B5B78002B99
:101DA0000CBF01230023DBB20193212300936623A0
:101DB000324800F0FDFD324B1B7899B2314B1B7855
:101DC0009AB2174B5B7B002B0CBF01230023DBB2C5
:101DD00001933123009366232B4800F0E9FD2B4B40
:101DE0001B78002B61D12A4B1B7899B2294B1B78A9
:101DF0009AB251E0E0760008E1760008907600089B
:101E000030000020D8000020B46F0008B56F000833
:101E1000646F0008DB000020B4700008B570000893
:101E2000EC00002084700008B8700008EC70000816
:101E30006C6B00086D6B00082C6B00081C6C0008B4
:101E4000946B00082477000825770008E4760008E2
:101E50003075000831750008F0740008F86F00084C
:101E6000F96F0008B86F00083C7000083D7000086A
:101E7000FC6F000880700008817000084070000846
:101E8000186C0008196C0008D86B0008E0000020EE
:101E900074750008757500080123019300230093F1
:101EA0000123594800F084FD70E0584B1B78012B4A
:101EB0000ED1574B1B7899B2564B1B789AB201231F
:101EC0000193002300930123534800F071FD5DE06E
:101ED0004E4B1B78022B0ED1504B1B7899B2504BB6
:101EE0001B789AB2012301930023009301234D48EC
:101EF00000F05EFD4AE0454B1B78032B0ED14A4BA8
:101F00001B7899B2494B1B789AB2012301930023A5
:101F100000930123464800F04BFD37E03B4B1B7814
:101F2000042B0ED1434B1B7899B2434B1B789AB2CA
:101F300001230193002300930123404800F038FD62
:101F400024E0324B1B78052B0ED13D4B1B7899B208
:101F50003C4B1B789AB20123019300230093012389
:101F6000394800F025FD11E0284B1B78062B0DD1D8
:101F7000364B1B7899B2364B1B789AB201230193EA
:101F8000002300930123334800F012FD324BDB782D
:101F9000002B0ED0314B1B7899B2314B1B789AB283
:101FA000012301930023009323232E4800F000FD1A
:101FB00024E0164B5B78012B0ED12B4B1B7899B28A
:101FC0002A4B1B789AB20123019300230093232309
:101FD000274800F0EDFC11E00C4B5B78022B0DD193
:101FE000244B1B7899B2244B1B789AB2012301939E
:101FF000002300932323214800F0DAFC00F058FF6F
:1020000000BFBD4680BD00BF34750008E000002061
:10201000987500089975000878750008CC75000857
:10202000CD7500089C750008007600080176000850
:10203000D07500084476000845760008047600084C
:10204000617100086071000820710008A471000827
:10205000A571000864710008EC0000208C7600086F
:102060008D7600086C760008906B0008916B000874
:10207000706B0008687600086976000848760008EA
:1020800080B58CB000AF786039600023FB6200231C
:10209000BB6200237B6200233B620023FB617B6801
:1020A000FB617B681B8A9BB2FB62FA6A4CF6FF738A
:1020B0001340FB623B68DB881A46FB6A1343FB62F2
:1020C000FB6A9AB27B681A827B689B899BB2FB622F
:1020D000FA6A4EF6F3131340FB623B689A883B683A
:1020E0001B8913439AB23B685B8913439BB21A4620
:1020F000FB6A1343FB62FB6A9AB27B689A817B6836
:102100009B8A9BB2FB62FA6A4FF6FF431340FB6265
:102110003B689B891A46FB6A1343FB62FB6A9AB2CF
:102120007B689A8207F108031846FFF73BF8FB69C2
:102130002E4A934202D17B69BB6201E03B69BB62DC
:102140007B689B899BB21BB2002B0CDABA6A1346E0
:102150009B0013449A001A443B681B685B00B2FB67
:10216000F3F37B620BE0BA6A13469B0013449A00B8
:102170001A443B681B689B00B2FBF3F37B627B6AEB
:102180001B4AA2FB03235B091B01FB62FB6A1B09C1
:10219000642202FB03F37A6AD31A3B627B689B8951
:1021A0009BB21BB2002B0CDA3B6ADB003233104AC5
:1021B000A2FB03235B0903F00703FA6A1343FB62E4
:1021C0000BE03B6A1B013233094AA2FB03235B0984
:1021D00003F00F03FA6A1343FB62FB6A9AB27B684F
:1021E0001A8100BF3037BD4680BD00BF00380140B6
:1021F0001F85EB5180B483B000AF78600B46FB7055
:10220000FB78002B08D07B689B899BB243F400537A
:102210009AB27B689A8107E07B689B899BB223F422
:1022200000539AB27B689A8100BF0C37BD4680BCD0
:10223000704700BF80B487B000AF78600B467B80EA
:1022400013467B7000233B610023FB600023BB60CF
:1022500000237B617B687B617B88DBB25B09DBB23F
:102260003B617B8803F01F03FB600122FB6802FADD
:1022700003F3BB603B69012B03D17B690C337B61AA
:1022800009E03B69022B03D17B6910337B6102E0DB
:102290007B6914337B617B78002B06D07B697A697C
:1022A0001168BA680A431A6006E07B697A691168A6
:1022B000BA68D2430A401A6000BF1C37BD4680BCD2
:1022C000704700BF80B584B000AF0346FB71FB7957
:1022D000002B01D0142300E04823FB730323BB73BE
:1022E0000423BB8107F10C0319460348FEF73CF8B1
:1022F00000BF1037BD4680BD000C014080B584B0E2
:1023000000AF0346FB710023FB60FB79002B12D06A
:1023100002E0FB680133FB6004210F48FEF7E0F8A0
:102320000346002B12D1FB68B3F57A7FF1DB0DE099
:10233000FB680133FB6004210748FEF7D1F8034630
:10234000002B03D0FB68B3F57A7FF1DBFB681846FE
:102350001037BD4680BD00BF000C014080B582B083
:1023600000AF0120FFF7AEFF04211948FEF7FAF88D
:102370001620FDF7F9FE04211548FEF7E5F80020C8
:10238000FFF7A0FF0020FFF7B9FF0120FFF7B6FF1E
:1023900078600020FFF7B2FF38607B68002B11D017
:1023A0003B68002B0ED07B68B3F57A7F0ADA3B6876
:1023B000B3F57A7F06DA7B685B10064A13604FF04C
:1023C000FF3300E0002318460837BD4680BD00BF3C
:1023D000000C0140C400002080B582B000AF012095
:1023E000FFF78CFF0020FFF789FF78607B68002BE8
:1023F0000CD07B68B3F57A7F08DA074B1B687A68E4
:102400009A42CCBF01230023DBB200E00023184630
:102410000837BD4680BD00BFC400002080B483B033
:1024200000AF0023FB7100233B6009E0094A3B68D1
:1024300013441A78FB791344FB713B6801333B600A
:102440003B68032BF2DDFB7918460C37BD4680BC98
:10245000704700BF0005002090B585B000AF002395
:10246000FB6007E0264AFB68134400221A70FB68F1
:102470000133FB60FB68042BF4DDFFF76FFF0346BD
:10248000002B37D00023BB6025E0FFF7A5FF0346F4
:10249000002B1DD0BA681B4B1340002B03DA013B05
:1024A00063F007030133DBB2C3F10703FB71BB68C1
:1024B000DB10BA68D21012498A5C51B2FA79012055
:1024C00000FA02F252B20A4352B2D1B20C4AD154CB
:1024D000BB680133BB60BB68272BD6DD084B1C797A
:1024E000FFF79CFF03469C4201D1002304E06FF0FC
:1024F000010301E04FF0FF3318461437BD4690BD8D
:10250000000500200700008080B500AF044B93F960
:102510000030184601F0FAF80346184680BD00BFA7
:102520000205002080B500AF044B93F90030184637
:1025300001F0ECF80346184680BD00BF00050020FE
:1025400080B582B000AFFFF787FF0346002B41D173
:10255000FFF7DAFF0346184601F02CF90346FB713A
:10256000FB791E4AA2FB0323DB08DBB23033DAB26D
:102570001B4B1A70FA79194BA3FB0213D9080B46AF
:102580009B000B445B00D31ADBB23033DAB2144B3E
:102590005A70FFF7C7FF0346184601F00BF90346D0
:1025A000FB71FB790D4AA2FB0323DB08DBB230335E
:1025B000DAB20B4BDA70FA79084BA3FB0213D90895
:1025C0000B469B000B445B00D31ADBB23033DAB20C
:1025D000034B1A7100BF0837BD4680BDCDCCCCCCB3
:1025E000D800002080B586B000AF01214FF4001064
:1025F000FEF7A6FE01210820FEF784FE134B7B6048
:1026000000233B814BF6FF737B811523BB810023A5
:10261000FB814FF480433B823B1D19460C4800F080
:10262000A9FEC023BB821C23FB750323BB7507F1E6
:10263000140319460748FDF797FE0121044800F0EE
:102640005BFF00BF1837BD4680BD00BF801A060083
:1026500000540040000C014080B586B000AFF86027
:102660007B600B46FB721346BB72F97A0023002293
:10267000F86800F01FF8BB7A1946F86800F09EF879
:102680000023FB750AE0FB7D7A6813441B7819462A
:10269000F86800F093F8FB7D0133FB75FB7D9BB27E
:1026A0003A8C9A42EFD8F86800F0D2F800BF183799
:1026B000BD4680BD80B582B000AF78600846114647
:1026C0001A460346FB700B46BB7013467B707B6853
:1026D0001B889BB243F480739AB27B681A80354B97
:1026E00044F620621A600AE0324B1B68013B314A13
:1026F0001360304B1B68002B01D1012356E07B682F
:102700009B8A9BB203F00103002BEDD07B78002B5A
:1027100007D07B681B889BB243F480639AB27B68C6
:102720001A80BB78002B1DD1FB789BB223F00103EC
:102730009AB27B681A821F4B44F620621A600AE044
:102740001C4B1B68013B1B4A13601A4B1B68002B78
:1027500001D101232AE07B689B8A9BB203F002032C
:10276000002BEDD0BB78012B1DD1FB7843F001038A
:10277000DBB29AB27B681A820E4B44F620621A6072
:102780000AE00C4B1B68013B0A4A1360094B1B68AB
:10279000002B01D1012309E00749786800F0CCFE45
:1027A0000346002BEDD07B681B8B002318460837AF
:1027B000BD4680BDC80000200200030080B483B085
:1027C00000AF78600B46FB700E4B44F620621A6037
:1027D00004E00C4B1B68013B0A4A13607B689B8A30
:1027E0009BB203F08003002B03D1064B1B68002B28
:1027F000EFD1FB789AB27B681A8200BF0C37BD46D6
:1028000080BC7047C800002080B582B000AF7860FF
:10281000084611461A460346FB700B46BB7013462A
:102820007B70F978002300227868FFF743FFBB78BC
:1028300019467868FFF7C2FF7B7819467868FFF77A
:10284000BDFF786800F004F800BF0837BD4680BDC2
:1028500080B483B000AF7860154B44F620621A60F4
:102860000AE0134B1B68013B114A1360104B1B68B5
:10287000002B01D1012316E07B689B8A9BB203F0F9
:102880008003002BEDD07B689B8A9BB203F004038E
:10289000002BE6D07B681B889BB243F400739AB28E
:1028A0007B681A80002318460C37BD4680BC7047F1
:1028B000C800002080B584B000AF78600B46FB7084
:1028C0000023FB73F978012300227868FFF7F2FEFA
:1028D0000346002B01D10123FB737868FFF7B8FF93
:1028E000FB7B18461037BD4680BD00BF80B487B063
:1028F00000AF786000237B6100233B610F23FB6006
:102900007B68DB78002B3AD0274BDB68DB4303F492
:10291000E0631B0A7B617B69C3F104033B61FA68D6
:102920007B6922FA03F3FB607B685B781A463B699C
:1029300002FA03F37B617B689B781A46FB681340BD
:102940007A6913437B617B691B017B61174A7B6852
:102950001B787969C9B213440A4683F80023134AE5
:102960007B681B785B09DBB218467B681B7803F039
:102970001F03012101FA03F342F820300FE00B4955
:102980007B681B785B09DBB218467B681B7803F019
:102990001F0301229A4000F1200341F8232000BFC9
:1029A0001C37BD4680BC704700ED00E000E100E050
:1029B00080B586B000AFF860084611461A46034657
:1029C0007B810B463B811346FB8000237B61002308
:1029D000FB740023BB748AE1FA687B6913441B789B
:1029E0005BB2002B0FDAFB7C9AB2FB88134498B2DF
:1029F000BB7C9AB23B8C13449BB297F824201946B7
:102A000000F0A2FA13E0FB7C9AB2FB88134498B260
:102A1000BB7C9AB23B8C134499B297F82430002BBC
:102A20000CBF01230023DBB21A4600F08DFAFA68CE
:102A30007B6913441B7803F04003002B11D0FB7C0F
:102A40009AB2FB8813449BB2013398B2BB7C9AB212
:102A50003B8C13449BB297F82420194600F074FA7B
:102A600015E0FB7C9AB2FB8813449BB2013398B209
:102A7000BB7C9AB23B8C134499B297F82430002B5C
:102A80000CBF01230023DBB21A4600F05DFAFA689E
:102A90007B6913441B7803F02003002B11D0FB7CCF
:102AA0009AB2FB8813449BB2023398B2BB7C9AB2B1
:102AB0003B8C13449BB297F82420194600F044FA4B
:102AC00015E0FB7C9AB2FB8813449BB2023398B2A8
:102AD000BB7C9AB23B8C134499B297F82430002BFC
:102AE0000CBF01230023DBB21A4600F02DFAFA686E
:102AF0007B6913441B7803F01003002B11D0FB7C7F
:102B00009AB2FB8813449BB2033398B2BB7C9AB24F
:102B10003B8C13449BB297F82420194600F014FA1A
:102B200015E0FB7C9AB2FB8813449BB2033398B246
:102B3000BB7C9AB23B8C134499B297F82430002B9B
:102B40000CBF01230023DBB21A4600F0FDF9FA683E
:102B50007B6913441B7803F00803002B11D0FB7C26
:102B60009AB2FB8813449BB2043398B2BB7C9AB2EE
:102B70003B8C13449BB297F82420194600F0E4F9EB
:102B800015E0FB7C9AB2FB8813449BB2043398B2E5
:102B9000BB7C9AB23B8C134499B297F82430002B3B
:102BA0000CBF01230023DBB21A4600F0CDF9FA680E
:102BB0007B6913441B7803F00403002B11D0FB7CCA
:102BC0009AB2FB8813449BB2053398B2BB7C9AB28D
:102BD0003B8C13449BB297F82420194600F0B4F9BB
:102BE00015E0FB7C9AB2FB8813449BB2053398B284
:102BF000BB7C9AB23B8C134499B297F82430002BDB
:102C00000CBF01230023DBB21A4600F09DF9FA68DD
:102C10007B6913441B7803F00203002B11D0FB7C6B
:102C20009AB2FB8813449BB2063398B2BB7C9AB22B
:102C30003B8C13449BB297F82420194600F084F98A
:102C400015E0FB7C9AB2FB8813449BB2063398B222
:102C5000BB7C9AB23B8C134499B297F82430002B7A
:102C60000CBF01230023DBB21A4600F06DF9FA68AD
:102C70007B6913441B7803F00103002B11D0FB7C0C
:102C80009AB2FB8813449BB2073398B2BB7C9AB2CA
:102C90003B8C13449BB297F82420194600F054F95A
:102CA00015E0FB7C9AB2FB8813449BB2073398B2C1
:102CB000BB7C9AB23B8C134499B297F82430002B1A
:102CC0000CBF01230023DBB21A4600F03DF9FB7C68
:102CD0000833FB747B6901337B61FB7C9BB27A898F
:102CE0009A4204D80023FB74BB7C0133BB74BB7CC9
:102CF0009BB23A899A423FF66FAE00BF1837BD4685
:102D000080BD00BF80B582B000AF78216648FFF774
:102D1000D1FD0346002B01D10023C0E040F6C413CF
:102D20007B6002E07B68013B7B607B68002BF9D114
:102D3000AE23002278215C48FFF766FD20230022A5
:102D400078215948FFF760FD10230022782156486A
:102D5000FFF75AFDB023002278215348FFF754FDB6
:102D6000C823002278215048FFF74EFD002300229F
:102D700078214D48FFF748FD1023002278214A486A
:102D8000FFF742FD4023002278214748FFF73CFD32
:102D90008123002278214448FFF736FDFF230022DB
:102DA00078214148FFF730FDA123002278213E48D9
:102DB000FFF72AFDA623002278213B48FFF724FDD8
:102DC000A823002278213848FFF71EFD3F23002268
:102DD00078213548FFF718FDA423002278213248D6
:102DE000FFF712FDD323002278212F48FFF70CFDB7
:102DF0000023002278212C48FFF706FDD52300226E
:102E000078212948FFF700FDF02300227821264889
:102E1000FFF7FAFCD923002278212348FFF7F4FCBE
:102E20002223002278212048FFF7EEFCDA2300223B
:102E300078211D48FFF7E8FC1223002278211A4868
:102E4000FFF7E2FCDB23002278211748FFF7DCFCC8
:102E50002023002278211448FFF7D6FC8D2300227E
:102E600078211148FFF7D0FC1423002278210E4866
:102E7000FFF7CAFCAF23002278210B48FFF7C4FC00
:102E8000002000F049F800F013F8084B00221A80E7
:102E9000064B00225A80054B01225A710123184625
:102EA0000837BD4680BD00BF00540040CC00002064
:102EB00080B584B002AF0023FB7122E0FB79503B68
:102EC000DBB2002278211248FFF79EFC002300228B
:102ED00078210F48FFF798FC1023002278210C4836
:102EE000FFF792FCFB79DB010A4A1A448023009326
:102EF0001346402278210648FFF7AEFBFB790133E9
:102F0000FB71FB79072BD9D900BF0837BD4680BDBF
:102F100000540040FC00002080B582B000AF0346A2
:102F2000FB71FB79002B01D1002300E0FF234FF45C
:102F300080621946034800F05DFC00BF0837BD46BB
:102F400080BD00BFFC00002080B483B000AF03460A
:102F5000FB800B46BB801346FB70FB887F2B48D859
:102F6000BB883F2B45D8254B1B79002B06D0FB781F
:102F7000002B0CBF01230023DBB2FB70FB78012B7D
:102F80001AD1FA88BB88DB0898B20346DB011344E8
:102F9000F9880246D2010A4419498A5C51B2BA88BA
:102FA00002F00702012000FA02F252B20A4352B2C2
:102FB000D1B2134AD1541DE0FA88BB88DB0898B21D
:102FC0000346DB011344F9880246D2010A440C4946
:102FD0008A5C51B2BA8802F00702012000FA02F2BC
:102FE00052B2D24352B20A4052B2D1B2044AD15480
:102FF00000E000BF0C37BD4680BC7047CC0000200D
:10300000FC00002080B483B000AF03460A46FB807A
:103010001346BB80054AFB881380044ABB88538053
:1030200000BF0C37BD4680BC704700BFCC000020FD
:1030300080B586B000AF03463960FB711346BB71A3
:103040003A4B1B881A463B681B7813447F2B07DCDE
:10305000364B5B881A463B685B7813443F2B01DD97
:1030600000235EE000237B614BE03B685A68FB79FC
:10307000203B3968497801FB03F319467B690B440F
:103080005B0013441B88FB6000233B6130E0FA685F
:103090003B6902FA03F303F40043002B10D0234BE7
:1030A0001A883B699BB2134498B2204B5A887B69BB
:1030B0009BB213449BB2BA791946FFF745FF14E05F
:1030C0001A4B1A883B699BB2134498B2174B5A8823
:1030D0007B699BB2134499B2BB79002B0CBF0123CF
:1030E0000023DBB21A46FFF72FFF3B6901333B6138
:1030F0003B681B781A463B699A42C8D87B69013302
:103100007B613B685B781A467B699A42ADD8074B76
:103110001A883B681B789BB213449AB2034B1A80FF
:10312000FB7918461837BD4680BD00BFCC00002093
:1031300080B584B000AFF860B9601346FB7112E04F
:10314000FB681B78FA79B9681846FFF771FF0346E8
:103150001A46FB681B789A4202D0FB681B7808E08D
:10316000FB680133FB60FB681B78002BE8D1FB6830
:103170001B7818461037BD4680BD00BF90B587B09C
:1031800000AF0446084611461A462346FB80034614
:10319000BB800B467B8013463B80FB887F2B01D98D
:1031A0007F23FB807B887F2B01D97F237B80BB889B
:1031B0003F2B01D93F23BB803B883F2B01D93F23C5
:1031C0003B80FA887B889A4205D27A88FB88D31A9A
:1031D0009BB21BB204E0FA887B88D31A9BB21BB265
:1031E0007B82BA883B889A4205D23A88BB88D31A38
:1031F0009BB21BB204E0BA883B88D31A9BB21BB2C5
:103200003B82FA887B889A4201D2012301E04FF089
:10321000FF33FB81BA883B889A4201D2012301E047
:103220004FF0FF33BB81B7F91220B7F910309A4243
:1032300006DDB7F91230DA0F13445B101BB206E05B
:10324000B7F910305B42DA0F13445B101BB2FB82FC
:10325000B7F91230002B29D13A88BB889A4205D29F
:103260003B887B81BB883B807B89BB807A88FB88DD
:103270009A4205D27B887B81FB887B807B89FB809F
:10328000BB88BB820CE0B98A97F82820FB881846D7
:10329000FFF75AFEB7F914309BB201339BB2BB82E1
:1032A000B7F914203B889A42EDDD5FE0B7F91030A2
:1032B000002B29D13A88BB889A4205D23B887B8172
:1032C000BB883B807B89BB807A88FB889A4205D289
:1032D0007B887B81FB887B807B89FB80FB88BB8232
:1032E0000CE0BB8A97F82820B9881846FFF72CFE17
:1032F000B7F914309BB201339BB2BB82B7F91420EB
:103300007B889A42EDDD31E097F82820B988FB8868
:103310001846FFF719FEFA887B889A4203D1BA88CB
:103320003B889A4221D0FB8A3B81B7F90820B7F944
:1033300012305B429A4208DDFA8A3B8AD31A9BB26A
:10334000FB82FA89FB881344FB80B7F90820B7F9A0
:1033500010309A42D8DAFA8A7B8A13449BB2FB82F5
:10336000BA89BB881344BB80CEE700BF1C37BD467B
:1033700090BD00BF80B58AB000AF7860396000238F
:10338000FB8400237B840423BB84574BFB617B6855
:103390009B88FB84FB8C23F03F03FB8407F108032D
:1033A0001846FDF7FFFE3B69FB61FB694F4AA2FB34
:1033B00003239B0C7B84FA8C7B8C1343FB847B68FC
:1033C000FA8C9A807B681B889BB223F001039AB227
:1033D0007B681A800023FB843B681B68444A934245
:1033E00015D83B681B685B00FA69B2FBF3F3BB843A
:1033F000BB8C032B01D80423BB84FA8CBB8C1343F6
:10340000FB847B8C01339AB27B681A8440E03B6872
:10341000DB884BF6FF72934209D13B681A6813466A
:103420005B001344FA69B2FBF3F3BB840EE03B6824
:103430001A6813469B0013449A001344FA69B2FBBE
:10344000F3F3BB84BB8C43F48043BB84BB8CC3F3DA
:103450000B03002B03D1BB8C43F00103BB84BA8C5C
:10346000FB8C13439BB26FEA43436FEA5343FB84E5
:103470007B8C4FF4967202FB03F31E4A82FB03120D
:103480009211DB17D31A9BB201339AB27B681A846C
:103490007B68FA8C9A837B681B889BB243F001039C
:1034A0009AB27B681A807B681B88FB84FB8C23F4B0
:1034B000816323F00203FB843B689A883B685B8945
:1034C00013439AB2FB8C1343FB847B68FA8C1A80FB
:1034D0003B689A893B681B8913439AB27B681A81BF
:1034E00000BF2837BD4680BD00127A0083DE1B4333
:1034F000A0860100D34D621080B483B000AF786025
:103500000B46FB70FB78002B08D07B681B889BB2B6
:1035100043F001039AB27B681A8007E07B681B883E
:103520009BB223F001039AB27B681A8000BF0C376C
:10353000BD4680BC704700BF80B487B000AF7860E4
:10354000396000233B610023FB600023BB60002344
:10355000FB757B689B8A9BB2FB607B681B8B9BB275
:10356000BB60BB681B04BB60FA68BB68134323F0F5
:103570007F433B613A693B681A403B689A4202D1FB
:103580000123FB7501E00023FB75FB7D18461C370A
:10359000BD4680BC704700BF80F0004002E000BF25
:1035A00081F0004142001FBF5FEA410392EA030F2E
:1035B0007FEA226C7FEA236C6AD04FEA1262D2EB78
:1035C0001363C1BFD218414048404140B8BF5B427D
:1035D000192B88BF704710F0004F40F4000020F016
:1035E0007F4018BF404211F0004F41F4000121F02C
:1035F0007F4118BF494292EA030F3FD0A2F1010276
:1036000041FA03FC10EB0C00C3F1200301FA03F1B3
:1036100000F0004302D5494260EB4000B0F5000FD6
:1036200013D3B0F1807F06D340084FEA310102F195
:103630000102FE2A51D2B1F1004F40EBC25008BF47
:1036400020F0010040EA03007047490040EB000011
:1036500010F4000FA2F10102EDD1B0FA80FCACF140
:10366000080CB2EB0C0200FA0CF0AABF00EBC2503F
:1036700052421843BCBFD0401843704792F0000F2D
:1036800081F4000106BF80F400000132013BB5E780
:103690004FEA41037FEA226C18BF7FEA236C21D0F6
:1036A00092EA030F04D092F0000F08BF084670475B
:1036B00090EA010F1CBF0020704712F07F4F04D129
:1036C000400028BF40F00040704712F100723CBF3C
:1036D00000F50000704700F0004343F0FE4040F466
:1036E000000070477FEA226216BF08467FEA236324
:1036F0000146420206BF5FEA412390EA010F40F40F
:10370000800070474FF0000304E000BF10F000435A
:1037100048BF40425FEA000C08BF704743F0964341
:1037200001464FF000001CE050EA010208BF70475C
:103730004FF000030AE000BF50EA010208BF7047E3
:1037400011F0004302D5404261EB41015FEA010CF8
:1037500002BF84460146002043F0B64308BFA3F1F0
:103760008053A3F50003BCFA8CF2083AA3EBC253D2
:1037700010DB01FA02FC634400FA02FCC2F12002F1
:10378000BCF1004F20FA02F243EB020008BF20F028
:103790000100704702F1200201FA02FCC2F120028E
:1037A00050EA4C0021FA02F243EB020008BF20EA83
:1037B000DC70704742000ED2B2F1FE4F0BD34FF0D7
:1037C0009E03B3EB126209D44FEA002343F0004397
:1037D00023FA02F070474FF00000704712F1610FBA
:1037E00001D1420202D14FF0FF3070474FF000008C
:1037F000704700BF70B4840746D0541E002A41D0E1
:10380000CDB2034602E0621EE4B3144603F8015B46
:103810009A07F8D1032C2ED9CDB245EA05250F2CF5
:1038200045EA054519D9264603F11002103E0F2E30
:1038300042F8105C42F80C5C42F8085C42F8045C08
:1038400002F11002F2D8A4F1100222F00F0204F0EB
:103850000F041032032C13440DD91E462246043A9D
:10386000032A46F8045BFAD8221F22F0030204322E
:10387000134404F003042CB1C9B21C4403F8011B27
:10388000A342FBD170BC704714460346C2E700BF99
:103890002DE9F0414FF0010E744600254FF0FF3640
:1038A0002B198B4200EB06070DD23F5D10F803C0C9
:1038B000BC452DD21D460124C6EB030E2B198B42AD
:1038C00000EB0607F1D34FF001084446C2F800E0D0
:1038D00000254FF0FF372B19994200EB070E0ED948
:1038E0001EF804E010F803C0F44518D91D46012461
:1038F000C7EB03082B19994200EB070EF0D80137EC
:10390000701C874224BF3846C2F80080BDE8F081B1
:103910000CD04FF0010E2E4674467544C0E70CD013
:103920004FF001082F4644464544D4E7744509BF8B
:10393000A64601341D460124B2E7444509BFA0460E
:1039400001341D460124C6E72DE9F04FADF2144DB8
:10395000164605468B461046194603AA1C46FFF735
:1039600097FF814603AB0DF20C4243F8044F93429C
:10397000FBD14CB13246631E04A812F8011B40F87B
:10398000213013F1FF33F8D203994A4631443046CF
:1039900000F030FA002871D109F1FF330093F318D9
:1039A0008246019323468046544658469A4608EB81
:1039B0000A073A1A0021284400F0D6F9002858D105
:1039C000002F56D0EB1913F8012C04AB53F822301A
:1039D0004BB124B1039A934201D2C2EB0A0398443B
:1039E00000243846E3E74C45234638BF4B460AF1EE
:1039F000FF3E734513D208EB0302A85C16F803C020
:103A00002A44844506EB030106D02EE011F801CFCD
:103A100012F8010F844528D101337345F6D34C4584
:103A2000009980F08B80009B019808EB0302AB5C4F
:103A300000782A44984240F08180019B06EB040BF9
:103A400006E013F801ED12F8010D864504D1614638
:103A50009B4501F1FF3CF4D101348C4270D8039CAA
:103A60003846A044C4EB0A04A1E7C9F1010290441E
:103A7000B5E700200DF2144DBDE8F08FC9EB04034B
:103A80004B4538BF4B4609F1FF380133039306EB32
:103A900008035846CB4699464FF0000A0AEB040744
:103AA0003A1A0021284400F05FF90028E1D1002FE4
:103AB000DFD0EB1913F8012C04AB53F82230A3BB71
:103AC000601E834515D20AEB0B0215F802E016F8CA
:103AD0000B302A449E4506EB0B015B4606D027E0DF
:103AE00011F801CF12F801EFF44521D101338342DF
:103AF000F6D3B8F1FF3F11D00AEB0802AB5C99F89E
:103B000000102A4499420FD14B4605E013F8010DED
:103B100012F8011D884207D1B342F7D105EB0A0024
:103B20000DF2144DBDE8F08F039B9A443846B5E77B
:103B3000CBF1010292449A443846AFE749468BE7FD
:103B400005EB080096E700BF0378002B00F0048126
:103B50002DE9F04F91F8008085B04446B8F1000F90
:103B600016D0864601F1010C012704E0624612F8E6
:103B7000014B64B194469C4214BF002707F0010733
:103B80001EF8013F002BF1D19CF800300BBB17B1A0
:103B900005B0BDE8F08F0E46054641460130C6EB44
:103BA0000C0400F059F9074698B1012CF0D02819FF
:103BB000874294BFC7EB000B4FF0010B1F2C0CD9B1
:103BC0002346324659463846FFF7BEFE05B0BDE8EB
:103BD000F08F002005B0BDE8F08F03AA21463046E3
:103BE000FFF756FE0399804602463144304600F006
:103BF00001F9002858D181460546B246584608F1D9
:103C0000FF330193F31800936619321A00213844E8
:103C100000F0AAF80028DCD1002EDAD0C8454346CF
:103C200038BF4B469C4212D95A19B85C1AF8031097
:103C30003A4488420AEB030E06D02DE01EF8010F2D
:103C400012F8011F884227D101339C42F6D8019B0C
:103C5000C845194640F283800098EA18BB5C00789A
:103C60003A4498427BD1009B0AEB090B06E013F81B
:103C700001CD12F801EDF44504D101465B4501F197
:103C8000FF30F4D109F10109894557D8039B30462B
:103C90001D44C3EB0409B7E7C8F1010215441D44F4
:103CA0004FF000093046AFE7C8EB0403434538BF87
:103CB000434608F1FF390133039306EB09035846E5
:103CC0009A46BB46002567193A1A0021584400F06D
:103CD0004BF800287FF47DAF002F3FF47AAF4445C6
:103CE00015D908EB05021BF8020016F808305A44F3
:103CF000984206EB0801434606D023E011F801EF95
:103D000012F8010F86451DD101339C42F6D8B9F156
:103D1000FF3F12D005EB09021BF802309AF80010A1
:103D20005A44994214D1534605E013F8010D12F894
:103D3000011D88420CD1B342F7D15F46781905B016
:103D4000BDE8F08FC8F1010215441D443846BAE7BA
:103D5000039B38461D44B6E70B7813B970474146BC
:103D600090E70020704700BF830770B4CDB23DD00C
:103D7000531E02B30278AA421ED0421C04E0D3B103
:103D80000478013BAC4217D012F0030F104602F149
:103D90000102F4D1032B11D853B30278AA420BD0FD
:103DA0000344421C02E00178A94205D09342104628
:103DB00002F10102F7D1002070BC704704460E02E8
:103DC00006F47F462E4346EA0646226820467240A5
:103DD000A2F1013121EA020212F0803F04F1040451
:103DE000DBD1043B032B2046EFD8D5E71346D1E7C0
:103DF0001846E1E7032A70B426D940EA01039B077D
:103E000011D004780D78AC4222D10244431C05E065
:103E100013F8014B11F8015FAC4219D19342F7D16D
:103E2000002070BC70470C4603461E682568184683
:103E3000AE42214603F1040304F10404E1D1043A43
:103E4000032A18462146F0D8002ADAD11046E8E7BE
:103E5000601B70BC704700BF70B411F0FF0434D019
:103E600085070FD00378002B5AD09C422BD0431CDF
:103E700005E013F8012B002A4FD0944223D09A0773
:103E80001846F6D10E0206F47F462643036846EA3A
:103E9000064601E050F8043F86EA0305A5F1013229
:103EA000A3F1013122EA050221EA0303134313F0CF
:103EB000803FEFD0037823B932E010F8013F002BA8
:103EC0002ED09C42F9D170BC704784070BD0037888
:103ED000002BF8D0431C03E002780133002AF2D013
:103EE00099071846F8D10268A2F1013323EA0203C8
:103EF00013F0803F08D150F8042FA2F1013323EAD8
:103F0000020313F0803FF6D00378002BDBD010F8CB
:103F1000013F002BFBD170BC7047104670BC70474E
:103F2000184670BC704700BF535441525400000003
:103F300053746172742053657373696F6E0A000065
:103F4000454E4400456E642053657373696F6E0A75
:103F50000000000041444D494E000000506C656176
:103F6000736520656E74657220612070617373776C
:103F70006F72640A000000005553455200000000B3
:103F800057656C636F6D652C20555345520A0000D0
:103F900057656C636F6D652C2041646D696E0A0016
:103FA00050415353574F5244204E4F5420434F5289
:103FB000524543540A000000436F6D6D616E6420EA
:103FC0004E4F5420434F52524543540A00000000C4
:103FD00053454E535F4D500025733B0A25733B0AF2
:103FE000000000004C4F4144494E47005354415299
:103FF00054494E470000000000000000000000008F
:104000000000000000000000000000000010001090
:104010000010001000100010000000100000000050
:104020000028002800280000000000000000000018
:104030000000000000240024007C00240048007CD4
:1040400000480048000000000038005400500038CC
:1040500000140054005400380010000000200054E8
:104060000058003000280054001400080000000030
:1040700000100028002800100034004800480034D8
:104080000000000000100010001000000000000000
:1040900000000000000000000008001000200020C8
:1040A0000020002000200020001000080020001048
:1040B00000080008000800080008000800100020A0
:1040C0000010003800100028000000000000000070
:1040D000000000000000000000100010007C001034
:1040E00000100000000000000000000000000000C0
:1040F0000000000000000010001000100000000090
:104100000000000000000038000000000000000077
:10411000000000000000000000000000000000108F
:10412000000000000008000800100010001000103F
:10413000002000200000000000380044004400542B
:10414000004400440044003800000000001000302B
:1041500000500010001000100010001000000000BF
:104160000038004400440004000800100020007CD7
:10417000000000000038004400040018000400049F
:104180000044003800000000000800180028002843
:104190000048007C0008000800000000007C00408F
:1041A00000400078000400040044003800000000D3
:1041B00000380044004000780044004400440038C7
:1041C00000000000007C0004000800100010002027
:1041D00000200020000000000038004400440038A7
:1041E000004400440044003800000000003800444F
:1041F00000440044003C000400440038000000007B
:10420000000000000010000000000000000000108E
:10421000000000000000000000000010000000008E
:10422000000000100010001000000000000C003022
:1042300000400030000C0000000000000000000002
:104240000000007C0000007C000000000000000076
:10425000000000000060001800040018006000006A
:1042600000000000003800440004000800100010A6
:10427000000000100000000000380044004C005412
:10428000005C0040004000380000000000100028E2
:10429000002800280028007C0044004400000000A2
:1042A0000078004400440078004400440044007852
:1042B0000000000000380044004000400040004082
:1042C0000044003800000000007000480044004432
:1042D000004400440048007000000000007C0040E2
:1042E0000040007C004000400040007C00000000D6
:1042F000007C00400040007800400040004000404A
:10430000000000000038004400400040005C004411
:104310000044003800000000004400440044007CD9
:104320000044004400440044000000000038001035
:1043300000100010001000100010003800000000F5
:1043400000040004000400040004000400440038D9
:104350000000000000440048005000600050004889
:1043600000480044000000000040004000400040C1
:10437000004000400040007C000000000044006C51
:10438000006C00540044004400440044000000005D
:1043900000440064006400540054004C004C00448D
:1043A0000000000000380044004400440044004481
:1043B000004400380000000000780044004400443D
:1043C0000078004000400040000000000038004439
:1043D000004400440044004400540038000400003D
:1043E000007800440044004400780048004800443D
:1043F00000000000003800440040003000080004C5
:104400000044003800000000007C00100010001084
:1044100000100010001000100000000000440044D4
:104420000044004400440044004400380000000000
:104430000044004400440028002800280010001018
:104440000000000000440044005400540054006C7C
:104450000028002800000000004400280028001068
:104460000010002800280044000000000044004420
:1044700000280028001000100010001000000000AC
:10448000007C000400080010001000200040007CA8
:1044900000000000001800100010001000100010B4
:1044A0000010001000100018002000200010001064
:1044B000001000100008000800000000003000108C
:1044C000001000100010001000100010001000304C
:1044D0000010002800280044000000000000000038
:1044E00000000000000000000000000000000000CC
:1044F00000000000000000FE00200010000000008E
:1045000000000000000000000000000000000000AB
:1045100000380044003C0044004C0034000000001F
:10452000004000400058006400440044006400580B
:10453000000000000000000000380044004000407F
:104540000044003800000000000400040034004C67
:1045500000440044004C0034000000000000000053
:1045600000380044007C0040004400380000000097
:10457000000C0010007C0010001000100010001053
:1045800000000000000000000034004C0044004423
:10459000004C0034000400780040004000580064E3
:1045A00000440044004400440000000000100000EB
:1045B000007000100010001000100010000000003B
:1045C000001000000070001000100010001000101B
:1045D000001000E000400040004800500060005023
:1045E000004800440000000000700010001000109F
:1045F000001000100010001000000000000000007B
:10460000007800540054005400540054000000008E
:1046100000000000005800640044004400440044CE
:104620000000000000000000003800440044004486
:104630000044003800000000000000000058006442
:1046400000440044006400580040004000000000A6
:104650000034004C00440044004C003400040004CA
:10466000000000000058006400400040004000408E
:104670000000000000000000003800440030000886
:1046800000440038000000000020002000780020D6
:1046900000200020002000180000000000000000A2
:1046A0000044004400440044004C0034000000007A
:1046B00000000000004400440028002800280010EA
:1046C0000000000000000000005400540054006C82
:1046D000002800280000000000000000004400281E
:1046E000001000100028004400000000000000003E
:1046F0000044004400280028001000100010006052
:1047000000000000007C0008001000200040007C39
:104710000000000000180010001000100020002011
:104720000010001000100018001000100010001001
:1047300000100010001000100010001000300010D9
:1047400000100010000800080010001000100030D9
:104750000000000000000074004C00000000000099
:104760000000000000000000000000000000000049
:104770000000000000000000000000000000000039
:1047800000000000000000000000000C000C000C05
:10479000000C000C000C000C000C000C000C000CB9
:1047A0000000000C000C0000000000000000001BD6
:1047B000001B001B001B001B00000000000000008D
:1047C00000000000000000000000000000000000E9
:1047D00000008019801980198019C07FC07F80195E
:1047E0000033C07FC07F003300330033003300004C
:1047F000000000000000001E003F8075806500740E
:10480000003C001E00078005806580658075003FC4
:10481000001E0004000400000000007000D840D812
:10482000C0D880D900730006000C801BC036C0665B
:10483000C046C00680030000000000000000001E0B
:10484000003F003300330033001E000CC03CC06644
:10485000806380618063C03E801C00000000000017
:104860000000000C000C000C000C000C000000000C
:104870000000000000000000000000000000000038
:104880000000000080000001000300060006000494
:10489000000C000C000C000C000C000C00040006C6
:1048A0000006000300018000002000100018000C2A
:1048B000000C0004000600060006000600060006C4
:1048C0000004000C000C0018001000200000000C78
:1048D000002D003F001E003300000000000000001B
:1048E00000000000000000000000000000000000C8
:1048F000000000000000000C000C000C000CC0FFC9
:10490000C0FF000C000C000C000C000000000000B8
:104910000000000000000000000000000000000097
:104920000000000000000000000000000000000C7B
:10493000000C00040004000800000000000000005B
:1049400000000000000000000000001E001E00002B
:104950000000000000000000000000000000000057
:104960000000000000000000000000000000000047
:10497000000000000000000C000C0000000000001F
:104980000000000300030003000600060006000606
:10499000000C000C000C000C00180018001800009F
:1049A000000000000000001E003F003380618061B5
:1049B0008061806D806D8061806180610033003F27
:1049C000001E00000000000000000006000E001E97
:1049D0000036002600060006000600060006000657
:1049E0000006000600060000000000000000001E97
:1049F000003F807380618061800100030006000C2D
:104A0000001800300060807F807F00000000000000
:104A10000000001C003E006300630003000E000E57
:104A200000038001800180618073003F001E000050
:104A30000000000000000006000E000E001E001E18
:104A40000016003600360066807F807F0006000674
:104A500000060000000000000000007F007F0060F2
:104A600000600060006E007F8063800180018061D3
:104A70008073003F001E0000000000000000001EC8
:104A8000003F803380610060006E007F8073806132
:104A9000806180618033003F001E00000000000044
:104AA0000000807F807F8001000300030006000675
:104AB000000C000C000C0008001800180018000082
:104AC000000000000000001E003F806380618061E4
:104AD0000021001E003F8061806180618061003F95
:104AE000001E0000000000000000001E003F0073D8
:104AF0008061806180618073803F801D8001806162
:104B00000073003F001E00000000000000000000D5
:104B1000000000000000000C000C0000000000007D
:104B2000000000000000000C000C0000000000006D
:104B3000000000000000000000000000000C000C5D
:104B400000000000000000000000000C000C000449
:104B50000004000800000000000000008000800346
:104B6000000E003800600038000E80038000000056
:104B70000000000000000000000000000000000035
:104B80000000807F807F00000000807F807F000029
:104B90000000000000000000000000000000000015
:104BA0000000000000400070001C000780010007AA
:104BB000001C007000400000000000000000000029
:104BC0000000001F803FC071C060C000C0018003B2
:104BD0000007000E000C000C0000000C000C000090
:104BE000000000000000001E003F803180718063E3
:104BF000806F806D806D806F806700600032003E46
:104C0000001C0000000000000000000E000E001B51
:104C1000001B001B001B80318031803F803F8031B2
:104C2000C060C060C0600000000000000000007CA8
:104C3000007E0063006300630063007E007E00630B
:104C4000806180618063007F007E000000000000C2
:104C50000000001E003F8031806100600060006045
:104C600000600060006080618031003F001E000035
:104C7000000000000000007C007F00638063806112
:104C80008061806180618061806100630063007E7B
:104C9000007C0000000000000000807F807F00603A
:104CA000006000600060007F007F006000600060C6
:104CB0000060807F807F0000000000000000807F97
:104CC000807F0060006000600060007F007F006007
:104CD00000600060006000600060000000000000F4
:104CE0000000001E003F80318061006000600060B5
:104CF00080638063806180618031803F001E00009E
:104D0000000000000000806180618061806180613E
:104D10008061807F807F806180618061806180614F
:104D200080610000000000000000003F003F000C18
:104D3000000C000C000C000C000C000C000C000C13
:104D4000000C003F003F0000000000000000800158
:104D5000800180018001800180018001800180014B
:104D6000806180618073003F001E00000000000031
:104D70000000C0608061006300660066006C00781F
:104D8000007C00660066006380618061C060000096
:104D90000000000000000060006000600060006033
:104DA0000060006000600060006000600060807F64
:104DB000807F0000000000000000C071C071C07B57
:104DC000C07AC06AC06AC06EC064C060C060C060A3
:104DD000C060C060C0600000000000000000807182
:104DE0008071807980798079806D806D806D80653B
:104DF0008067806780678063806300000000000038
:104E00000000001E003F003380618061806180618E
:104E100080618061806180610033003F001E00007E
:104E2000000000000000007E007F806380618061E0
:104E300080618063007F007E006000600060006031
:104E400000600000000000000000001E003F003372
:104E50008061806180618061806180618065806740
:104E60000033803F401E0000000000000000007E74
:104E7000007F8063806180618063007F007E0066C8
:104E80000063006380618061C0600000000000007A
:104E90000000000E001F8031803100300038001EFD
:104EA00000078003806180618031003F001E0000A8
:104EB000000000000000C0FFC0FF000C000C000C50
:104EC000000C000C000C000C000C000C000C000C82
:104ED000000C000000000000000080618061806123
:104EE00080618061806180618061806180618061BA
:104EF0008073003F001E0000000000000000C06042
:104F0000C060C060803180318031001B001B001BFD
:104F1000001B000E000E000E000400000000000048
:104F20000000C0C0C0C0C0C0C0C0C0C0C0CC804CA9
:104F3000804C805E8052805280738061806100006E
:104F4000000000000000C0C0806080610033003BB2
:104F5000001E000C000C001E001F003B80718061D1
:104F6000C0C00000000000000000C0C0806180617F
:104F700000330033001E001E000C000C000C000C5F
:104F8000000C000C000C0000000000000000803F3E
:104F9000803F8001000300030006000C000C001895
:104FA000001800300060807F807F0000000000005B
:104FB000000F000F000C000C000C000C000C000C8B
:104FC000000C000C000C000C000C000C000C000C81
:104FD000000F000F0000001800180018000C000C53
:104FE000000C000C0006000600060006000300038B
:104FF0000003000000000000001E001E0006000666
:105000000006000600060006000600060006000670
:105010000006000600060006001E001E0000000C30
:10502000000C001E0012003300338061806100001C
:105030000000000000000000000000000000000070
:105040000000000000000000000000000000000060
:105050000000000000000000000000000000000050
:10506000E0FF0000000000380018000C0000000005
:105070000000000000000000000000000000000030
:105080000000000000000000000000000000000020
:105090000000001F803F80618001801F803F806191
:1050A0008063807FC03800000000000000000060C6
:1050B000006000600060006E007F8073806180612E
:1050C000806180618073007F006E0000000000003E
:1050D00000000000000000000000001E003F807380
:1050E00080610060006080618073003F001E0000EE
:1050F0000000000000008001800180018001801D0F
:10510000803F807380618061806180618073803FB7
:10511000801D0000000000000000000000000000F2
:105120000000001E003F00738061807F807F006070
:105130008071003F001E0000000000000000C0075A
:10514000C00F000C000C807F807F000C000C000C56
:10515000000C000C000C000C000C00000000000013
:105160000000000000000000801D803F807380610F
:105170008061806180618073803F801D80018063D9
:10518000007F003E00000060006000600060006F73
:10519000807F8071806180618061806180618061D9
:1051A0008061000000000000000000060006000012
:1051B0000000003E003E0006000600060006000655
:1051C00000060006000600000000000000060006C1
:1051D00000000000003E003E00060006000600063B
:1051E000000600060006000600060046007E003CA1
:1051F0000000006000600060006080610063006685
:10520000006C007C0076006300638061C060000079
:10521000000000000000003E003E00060006000600
:10522000000600060006000600060006000600064E
:105230000006000000000000000000000000000068
:10524000000080DDC0FFC0CEC0CCC0CCC0CCC0CC84
:10525000C0CCC0CCC0CC00000000000000000000AA
:10526000000000000000006F807F8071806180611D
:1052700080618061806180618061000000000000C9
:1052800000000000000000000000001E003F8073CE
:1052900080618061806180618073003F001E00003A
:1052A000000000000000000000000000006E007F11
:1052B000807380618061806180618073007F006E97
:1052C000006000600060006000000000000000005E
:1052D000801D803F80738061806180618061807308
:1052E000803F801D8001800180018001000000005E
:1052F0000000000000000067803F003900300030EF
:1053000000300030003000300030000000000000AD
:1053100000000000000000000000001E803F8061CF
:105320000060007F803F80018061007F001E0000E0
:105330000000000000000000000800180018007FB6
:10534000007F001800180018001800180018801FAF
:10535000800F0000000000000000000000000000BE
:105360000000806180618061806180618061806116
:105370008063807F803D000000000000000000008E
:10538000000000000000C060803180318031001BCF
:10539000001B001B000E000E0006000000000000B5
:1053A0000000000000000000000080DD80DD80DDE6
:1053B00000550055005500770077002200220000BC
:1053C00000000000000000000000000000008061FC
:1053D00000330033001E000C000C001E00330033AD
:1053E00080610000000000000000000000000000DC
:1053F00080618061803100330033001B001B001B83
:10540000000E000E000E001C007C0070000000006A
:10541000000000000000C07FC07F80010003000684
:10542000000C00180030C07FC07F000000000000AA
:105430008003800700060006000600060006000E36
:10544000001C001C000E00060006000600060006F8
:10545000800780030006000600060006000600061E
:10546000000600060006000600060006000600060C
:1054700000060006000600060038003C000C000C88
:10548000000C000C000C000E00070007000E000CC2
:10549000000C000C000C000C003C00380000000068
:1054A000000000000000000000008038807F0047FE
:1054B00000000000000000000000000000000000EC
:1054C00000000000000000000000000000000000DC
:1054D00000000000000000000000000000000000CC
:1054E00000000000000000000000000000000000BC
:1054F00000000000E003E003E003E003E003E0035A
:10550000E003E003C003C003C001C001C001C0014B
:10551000C001000000000000E003E003E003000021
:1055200000000000000000003C1E3C1E3C1E3C1E13
:105530003C1E3C1E3C1E000000000000000000005D
:10554000000000000000000000000000000000005B
:10555000000000000000000000000000CE01CE03AB
:10556000DE039E039C039C07FF3FFF7F3807380F35
:10557000780F780F780EFFFFFFFFF01EF01CE01C85
:10558000E03CE03DE03900000000000000000000C9
:10559000FC03FE0FEE1FE01EE01EE01EE01EE01FFB
:1055A000E00FE007F003FC01FE01FE01FE01FE0139
:1055B000FE01FE01FE3DFC3FF00FE001E0010000B6
:1055C00000000000033E07F78FE78EE79EE3BCE391
:1055D000B8E7F8E7F0F7E03FC001FF03FF07F30784
:1055E000F30FF31EF33CF338F3787FF03FE0000055
:1055F0000000000000000000E007F80F780F781F9F
:10560000781F781F780FF00FE00F801FC37FC3FB58
:10561000E7F3F7F1F7F0FFF07FF03EF87F7CFF3F14
:10562000EF1F00000000000000000000E003E003A6
:10563000E003E003E003C003C0010000000000003D
:10564000000000000000000000000000000000005A
:10565000000000000000000000000000000000004A
:105660003F007C00F001E001C003C0078007800715
:10567000800F000F000F000F000F000F000F800FB2
:1056800080078007C007C003E001F0017C003F00F5
:105690000F000000007E001FC007C003E001F00102
:1056A000F000F000F80078007800780078007800CA
:1056B0007800F800F000F000F001E001C003C0073E
:1056C000001F007E00780000E003C003C001CE3957
:1056D000FF3F7F3F20037003F807780F3C1F380619
:1056E00000000000000000000000000000000000BA
:1056F00000000000000000000000000000000000AA
:105700000000000000000000C001C001C001C00195
:10571000C001C001C001FFFFFFFFC001C001C00107
:10572000C001C001C0010000000000000000000036
:105730000000000000000000000000000000000069
:105740000000000000000000000000000000000059
:105750000000E003E003E003E003E001E001E0011A
:10576000C0018003000000000000000000000000F5
:1057700000000000000000000000FE3FFE3F0000AF
:105780000000000000000000000000000000000019
:105790000000000000000000000000000000000009
:1057A00000000000000000000000000000000000F9
:1057B00000000000000000000000E003E003E00340
:1057C000E003000000000000000000000F000F00D8
:1057D0001E001E003C003C0078007800F000F00045
:1057E000E001E001C003C00380078007000F000F45
:1057F000001E001E003C003C0078007800F0000015
:10580000F007F80F7C1F3E3E1E3C1F7C1F7C0F786C
:105810000F780F780F780F780F780F781F7C1F7C28
:105820001E3C3E3E7C1FF80FF00700000000000009
:1058300000000000F000F007F03FF03FF001F00141
:10584000F001F001F001F001F001F001F001F001D0
:10585000F001F001F001F001F001FF3FFF3F000017
:105860000000000000000000E00FF83F7C3C3C001E
:105870003E003E003E003C003C007C00F800F00191
:10588000E003C0078007000F001E003E003CFE3F03
:10589000FE3F00000000000000000000F00FF81FB5
:1058A0007C1C3E003E003E003C003C00F800F00F37
:1058B000F80F7C003E001E001E001E001E003E0071
:1058C0007C1CF81FE01F000000000000000000002A
:1058D0007800F800F800F801F803F807F807780FE7
:1058E000781E781E783C78787878FFFFFFFF780084
:1058F0007800780078007800780000000000000050
:1059000000000000FC1FFC1FFC1F001E001E001EEC
:10591000001E001EE01FF81FFC007C003E003E0041
:105920001E003E003E003C007C1CF81FE01F0000F3
:105930000000000000000000FC01FE078E0F001FA9
:10594000001E003E003C003CF83DFC3F3E7F1F7EB9
:105950000F3C0F3C0F3C0F3C0F3E1F1E3E1FFC0F29
:10596000F00300000000000000000000FF3FFF3FC8
:10597000FF3F0F001E001E003C0038007800F000C2
:10598000F000E001E001C003C0038007800F800F3A
:10599000000F001F001F00000000000000000000BA
:1059A000F807FC0F3E1F1E1E1E3E1E3E1E1E3C1F05
:1059B000F80FF007F80FFC1E3E3E1F3C1F7C0F7CCB
:1059C0000F7C1F3C3E3FFC1FF00700000000000062
:1059D00000000000F007F80F7C1E3E3C1E3C1F7CC0
:1059E0001F7C1F7C1F7C1F3C3F3EFF1FEF071F00DB
:1059F0001E001E003E003C00F838F03FE01F000093
:105A00000000000000000000000000000000000096
:105A100000000000E003E003E003E00300000000FA
:105A200000000000000000000000E003E003E003CD
:105A3000E003000000000000000000000000000083
:105A40000000000000000000E003E003E003E003CA
:105A50000000000000000000000000000000E00363
:105A6000E003E003E003E001E001E001C0038003A4
:105A700000000000000000000000000003000F0014
:105A80003F00FC00F003C00F003F00FE003FC00FCE
:105A9000F003FC003F000F000300000000000000C6
:105AA00000000000000000000000000000000000F6
:105AB0000000000000000000FFFFFFFF00000000EA
:105AC0000000FFFFFFFF00000000000000000000DA
:105AD00000000000000000000000000000000000C6
