:020000040800F2
:10000000B014002055080008B5080008B50800081D
:10001000B5080008B5080008B50800080000000091
:10002000000000000000000000000000B50800080B
:10003000B508000800000000B50800083D170008DA
:10004000B5080008B5080008B5080008B50800089C
:10005000B5080008B5080008B5080008B50800088C
:10006000B5080008B5080008B5080008B50800087C
:10007000B5080008B5080008B5080008B50800086C
:10008000B5080008B5080008B5080008B50800085C
:10009000B5080008B5080008B5080008B50800084C
:1000A000B508000801340008B5080008B5080008C4
:1000B000B5080008B5080008B5080008B50800082C
:1000C000B5080008B5080008B5080008B50800081C
:1000D000B5080008590D0008192F0008193F00083D
:1000E000B5080008B5080008B5080008B5080008FC
:1000F000B5080008B5080008B5080008B5080008EC
:10010000B5080008B5080008B5080008B5080008DB
:10011000B5080008B5080008B5080008B5080008CB
:10012000B5080008B5080008B5080008B5080008BB
:100130005FF808F180B485B000AF78600023FB6001
:1001400007E0FB680133FB60FB68052BF9D900234E
:10015000FB607B685A1E7A60002BF5D100BF143714
:10016000BD4680BC704700BF80B582B000AF7860EC
:1001700003E04FF47A70FFF7DDFF7B685A1E7A6068
:10018000002BF6D100BF0837BD4680BD80B485B0D6
:1001900000AF786039600023FB817B681B88FB819E
:1001A0007B682E4A934213D07B682D4A93420FD02E
:1001B0007B68B3F1804F0BD07B682A4A934207D00B
:1001C0007B68294A934203D07B68284A934208D12E
:1001D000FB8923F07003FB813B685A88FB8913433A
:1001E000FB817B68224A93420CD07B68214A934270
:1001F00008D0FB8923F44073FB813B68DA88FB89D4
:100200001343FB817B68FA891A803B689A887B6874
:100210009A853B681A887B681A857B680F4A9342E7
:100220000FD07B680E4A93420BD07B68124A9342F0
:1002300007D07B68114A934203D07B68104A9342EF
:1002400004D13B681B7A9AB27B681A867B680122CC
:100250009A8200BF1437BD4680BC7047002C014015
:10026000003401400004004000080040000C004041
:1002700000100040001400400040014000440140D4
:100280000048014080B483B000AF78607B684FF6CF
:10029000FF729A807B6800221A807B680022DA80D5
:1002A0007B6800225A807B6800221A7200BF0C37DC
:1002B000BD4680BC704700BF80B483B000AF78609B
:1002C0000B46FB70FB78002B08D07B681B889BB229
:1002D00043F001039AB27B681A8007E07B681B88B1
:1002E0009BB223F001039AB27B681A8000BF0C37DF
:1002F000BD4680BC704700BF80B483B000AF78605B
:100300000B467B8013467B707B78002B08D07B6884
:100310009B899AB27B8813439AB27B689A8109E0E1
:100320007B689B899AB27B88DB439BB213409AB26D
:100330007B689A8100BF0C37BD4680BC704700BF08
:1003400080B485B000AF78600B467B800023FB73E0
:100350000023BB8100237B817B681B8A9AB27B8848
:100360001340BB817B689B899AB27B8813407B8159
:10037000BB89002B05D07B89002B02D00123FB73A6
:1003800001E00023FB73FB7B18461437BD4680BC9D
:10039000704700BF80B483B000AF78600B467B80AD
:1003A0007B88DB439AB27B681A8200BF0C37BD465C
:1003B00080BC704780B400AF394B1B6A03F4004324
:1003C000002B69D1364A364BDB6943F0C053D36109
:1003D000344A344B1B6843F480731360304A304B0B
:1003E0001B6A43F4803313622D4A2D4B1B6A23F49E
:1003F000803313622A4A2A4B1B6A43F40143136277
:10040000274A274B1B6A43F00103136200BF244BAA
:100410001B6A03F00103002BF9D0234B224A928D73
:1004200092B29A8500BF214B9B889BB203F02003B8
:10043000002BF8D01D4A1D4B9B889BB243F0100344
:100440009BB29380194B47F6FF729A81174A174B5C
:100450009B889BB223F010039BB2938000BF134B89
:100460009B889BB203F02003002BF8D00F4A0F4B60
:100470009B889BB223F008039BB2938000BF0B4B79
:100480009B889BB203F00803002BF8D0054A054B6C
:100490001B6823F48073136000BFBD4680BC7047A7
:1004A0000010024000700040006C00400028004036
:1004B00080B483B000AF5E4B1B8B9BB21B045C4AC5
:1004C000928B92B213433B6039685A4BA3FB0123D2
:1004D0005A0913461B019B1A9B00CA1AD2B2564BEB
:1004E0001A70554B1B78002B04D0544B1B78012BF2
:1004F00040F09880514B00221A703B684D4AA2FB95
:10050000032359094B4BA3FB01235A0913461B0133
:100510009B1A9B00CA1AD2B2494B1A703B68494ACF
:10052000A2FB0323D90A484BA3FB01231A09134654
:100530005B001344DB00CA1AD2B2444B1A703A680B
:10054000434BA3FB02131B0C424901FB03F3D31AD9
:10055000002B07D03B683E4AA2FB03231B0CDAB2F8
:100560003D4B1A7000BF3D4B1A683D4B1B68D31AB8
:1005700003F00303002B20D11CE03A4A7B6852F8B9
:100580002330354A1278934206DA7B68DAB2364B6A
:100590001A700D237B600DE02F4B1A7831497B6870
:1005A00051F82330DBB2D31ADAB22B4B1A707B68C6
:1005B00001337B607B680B2BDFDD284B1B68A3F2CC
:1005C000D17303F00303002B20D01CE0274A7B6883
:1005D00052F82330204A1278934206DA7B68DAB266
:1005E000214B1A700D237B600DE01B4B1A781F49BD
:1005F0007B6851F82330DBB2D31ADAB2164B1A708B
:100600007B6801337B607B680B2BDFDD164B1B782F
:100610000133DAB2144B1A700F4B1B780133DAB284
:100620000D4B1A7000BF0C37BD4680BC704700BF31
:100630000028004089888888600A00206400002023
:10064000610A0020C5B3A291ABAAAAAA620A00203F
:1006500007452EC280510100630A0020680A00206D
:100660006000002000000020640A0020300000200C
:1006700080B582B002AFFFF71BFF0F4B1B781A4605
:100680000E4B1B7819460E4B1B7800930B460D49F9
:100690000D4803F0E7FE0D4B1B781A460C4B1B78F8
:1006A00019460C4B1B6800930B460B490B4803F093
:1006B000D9FE00BFBD4680BD620A0020610A00204D
:1006C000600A002024940008640B0020630A0020C4
:1006D000640A0020680A002030940008700B002093
:1006E00080B500AF154A154B1B6843F0010313603A
:1006F0001249124B5A68124B13404B600F4A0F4B72
:100700001B6823F0847323F4803313600B4A0B4B74
:100710001B6823F480231360084A084B5B6823F4AA
:10072000FE035360054B4FF41F029A6000F00CF873
:10073000044B4FF000629A6000BF80BD0010024081
:100740000000FFF800ED00E080B500AF00F002F817
:1007500000BF80BD80B483B000AF00237B60002366
:100760003B603A4A394B1B6843F480331360374B84
:100770001B6803F400333B607B6801337B603B689C
:10078000002B03D17B68B3F5A06FF0D12F4B1B6812
:1007900003F40033002B02D001233B6001E000236F
:1007A0003B603B68012B4BD1294A294B1B6843F026
:1007B00010031360264A264B1B6823F003031360C3
:1007C000234A234B1B6843F0020313601F4A1F4B4D
:1007D0005B6853601D4A1D4B5B6853601B4A1B4B93
:1007E0005B6843F480635360184A184B5B6823F4DA
:1007F0007C135360154A154B5B6843F4E813536050
:10080000124A124B1B6843F08073136000BF0F4BFA
:100810001B6803F00073002BF9D00C4A0B4B5B688C
:1008200023F003035360094A084B5B6843F002035B
:10083000536000BF054B5B6803F00C03082BF9D134
:1008400000BF0C37BD4680BC704700BF001002409F
:100850000020024080B582B000AF114B7B60114B8D
:100860003B6007E03B681A1D3A607A68111D7960A9
:1008700012681A603B680C4A9342F3D30B480C4948
:100880004FF000028842B8BF40F8042BFADBFFF7B4
:1008900027FF00F0A7F900BF0837BD4680BD00BFA5
:1008A00084E9000800000020600A0020600A00209F
:1008B000AC10002080B400AFFEE700BF80B489B068
:1008C00000AF786039600023FB6100233B610023A7
:1008D000BB610023FB6000237B610023BB603B689E
:1008E000DB7803F00F03FB613B68DB7803F0100358
:1008F000002B05D03B689B781A46FB691343FB61CC
:100900003B681B88DBB2002B44D07B681B687B6193
:100910000023BB6138E00122BB6902FA03F3FB60EC
:100920003B681B881A46FB6813403B613A69FB68C9
:100930009A4226D1BB699B00FB600F22FB6802FA3A
:1009400003F3BB60BB68DB437A6913407B61FA69E0
:10095000FB6802FA03F37A6913437B613B68DB7837
:10096000282B05D10122BB699A407B685A6108E0B7
:100970003B68DB78482B04D10122BB699A407B6835
:100980001A61BB690133BB61BB69072BC3D97B68A3
:100990007A691A603B681B88FF2B46D97B685B68C5
:1009A0007B610023BB613AE0BB690833012202FA94
:1009B00003F3FB603B681B881A46FB6813403B61EE
:1009C0003A69FB689A4227D1BB699B00FB600F2202
:1009D000FB6802FA03F3BB60BB68DB437A69134030
:1009E0007B61FA69FB6802FA03F37A6913437B615E
:1009F0003B68DB78282B05D1BB69083301229A407C
:100A00007B685A613B68DB78482B05D1BB690833AA
:100A100001229A407B681A61BB690133BB61BB69E3
:100A2000072BC1D97B687A695A6000BF2437BD465D
:100A300080BC704780B485B000AF78600B467B8087
:100A40000023FB737B689A687B881340002B02D0DD
:100A50000123FB7301E00023FB73FB7B1846143773
:100A6000BD4680BC704700BF80B485B000AF7860E1
:100A70000B467B800023FB737B68DA687B8813401E
:100A8000002B02D00123FB7301E00023FB73FB7BEF
:100A900018461437BD4680BC704700BF80B483B091
:100AA00000AF78600B467B807A887B681A6100BF54
:100AB0000C37BD4680BC704780B483B000AF78600F
:100AC0000B467B807A887B685A6100BF0C37BD4635
:100AD00080BC704780B483B000AF78600B467B80E9
:100AE00013467B707B78002B03D07A887B681A6171
:100AF00002E07A887B685A6100BF0C37BD4680BC33
:100B0000704700BF80B487B000AF78600B46FB70C1
:100B100000233B610023FB6000237B610023BB605B
:100B20007B68002B03DA2E4BDB697B6102E02C4BE8
:100B30005B687B617B681B0C03F00F03BB607B6809
:100B40009BB23B617B6803F44013B3F5401F0AD1AD
:100B50007B6923F070637B61214A214B5B6823F042
:100B60007063536021E07B6803F48013002B0ED088
:100B70000322BB6802FA03F3FB60FB68DB437A697C
:100B800013407B617B6943F070637B610DE07B68A0
:100B90005B0D1B013A6902FA03F3DB437A691340E8
:100BA0007B617B6943F070637B61FB78002B08D02D
:100BB0007B685B0D1B013A6902FA03F37A69134300
:100BC0007B617B68002B03DA054A7B69D36102E015
:100BD000034A7B69536000BF1C37BD4680BC704729
:100BE0000000014080B500AF00F002F8FCE700BF54
:100BF00080B500AF1F4B1B780B2B39D801A252F8E0
:100C000023F000BF350C00083D0C00084F0C000815
:100C1000710C00085B0C00086F0C00086F0C0008DA
:100C20006F0C00086F0C00086F0C00086F0C0008B8
:100C3000670C00080F4B01221A7019E00E4B0022BE
:100C40001A7000F03BFD0B4B04221A7010E000F00C
:100C5000B1FF084B0B221A700AE002F0D1FA054BE3
:100C600002221A7004E0034B02221A7000E000BF57
:100C700000BF80BD780A0020790A002080B588B0C6
:100C800000AF786025233B7700237B770023BB7779
:100C90000123FB7707F11C03184602F04FFA4FF4CB
:100CA00000711148FFF7FAFE7B68FB6000233B826E
:100CB00000237B820023BB8200233B830C23FB8227
:100CC00007F10C031946094801F04CFC01210748C3
:100CD00001F002FD012240F22551044801F01CFD03
:100CE00000BF2037BD4680BD0008014000380140EC
:100CF00080B483B000AF0346FB7100BF074B1B8875
:100D00009BB203F04003002BF8D0044BFA7992B267
:100D10009A8000BF0C37BD4680BC70470038014048
:100D200080B584B000AF78600023FB6009E0FB6809
:100D30005A1CFA601A467B6813441B781846FFF762
:100D4000D7FFFB687A6813441B78002BEFD100BFF4
:100D50001037BD4680BD00BF80B500AF184B1B8863
:100D60009BB203F02003002B28D0154A144B1B889C
:100D70009BB223F020039BB21380124B1B781A46C0
:100D80000F4B9B889BB2D9B20F4B99540D4B1B78DC
:100D90001A460D4B9B5CDBB20A2B09D10B4B1B781F
:100DA000002B02D0084802F09BF800F011F805E093
:100DB000044B1B780133DAB2024B1A7000BF80BDBE
:100DC00000380140E00A00207C0A00208400002056
:100DD00080B594B000AF4D494D4803F0F3FC034695
:100DE000002B06D04B4B01221A704B48FFF798FF9F
:100DF00083E04A49464803F0E5FC0346002B06D051
:100E0000444B00221A704648FFF78AFF75E0414BB9
:100E10001B78002B39D03F4B1B78022B35D841492A
:100E20003B4803F0CFFC0346002B06D03E48FFF7BB
:100E300077FF384B02221A705FE03C49344803F0D8
:100E4000C1FC0346002B06D03948FFF769FF314B40
:100E500003221A7051E02F4B1B78022B11D1354918
:100E60002B4803F0AFFC0346002B06D03248FFF7B7
:100E700057FF284B04221A703FE03048FFF750FF1D
:100E80003BE02F48FFF74CFF37E0224B1B78022B4B
:100E900030D92C491E4803F095FC0346002B0DD099
:100EA00007F14803033307F148023846264903F0A7
:100EB000D9FA3B461846FFF733FF1EE02349144892
:100EC00003F080FC0346002B06D0214B01221A7050
:100ED0002048FFF725FF10E01F490D4803F072FC82
:100EE0000346002B09D01A4B00221A701B48FFF74B
:100EF00017FF02E01248FFF713FF00F033F8184B1A
:100F000000221A7000BF5037BD4680BD40940008D3
:100F10007C0A0020E20A0020489400085894000847
:100F20005C9400086C940008749400089094000885
:100F3000989400087C000020A8940008B894000849
:100F4000D0940008E8940008F0940008FC9400088D
:100F5000840000200C9500082895000838950008AA
:100F6000E00A002080B400AF0B4B00221A700BE0A7
:100F7000094B1B781A46094B00219954064B1B78E4
:100F80000133DAB2044B1A70034B1B78632BEFD991
:100F900000BFBD4680BC7047E00A00207C0A0020EC
:100FA00080B400AF134A134B1B6843F00103136076
:100FB0001049104B5A68104B13404B600D4A0D4BB3
:100FC0001B6823F0847323F480331360094A094BB0
:100FD0001B6823F480231360064A064B5B6823F4E6
:100FE000FE035360034B4FF41F029A6000BFBD46DF
:100FF00080BC7047001002400000FFF880B483B04E
:1010000000AF7860134A134B1B6823F480331360DE
:10101000104A104B1B6823F4802313607B68B3F5E0
:10102000803F03D0B3F5802F07D00DE0094A094B6C
:101030001B6843F48033136006E0064A054B1B68C7
:1010400043F4A023136000BF00BF0C37BD4680BC33
:10105000704700BF0010024080B582B000AF00238F
:101060003B600023FB710023BB71312000F0EEF9DF
:101070000346BB713B6801333B603B68B3F5A06F2F
:1010800002D0BB79002BF0D0312000F0DFF903460D
:10109000002B02D00123FB7101E00023FB71FB79DF
:1010A00018460837BD4680BD80B485B000AF786073
:1010B00039600023FB600A4B5B68FB60FB6823F42C
:1010C0007C13FB607A683B681343FA681343FB6048
:1010D000034AFB68536000BF1437BD4680BC7047AD
:1010E0000010024080B483B000AF0346FB71044A95
:1010F000FB79136000BF0C37BD4680BC704700BF52
:101100006000424280B485B000AF78600023FB608D
:10111000094B5B68FB60FB6823F00303FB60FA6824
:101120007B681343FB60044AFB68536000BF1437BD
:10113000BD4680BC704700BF0010024080B400AFC5
:10114000044B5B68DBB203F00C03DBB21846BD4610
:1011500080BC70470010024080B485B000AF78605A
:101160000023FB60094B5B68FB60FB6823F0F00326
:10117000FB60FA687B681343FB60044AFB685360BA
:1011800000BF1437BD4680BC704700BF001002404E
:1011900080B485B000AF78600023FB60094B5B68CA
:1011A000FB60FB6823F4E063FB60FA687B68134331
:1011B000FB60044AFB68536000BF1437BD4680BC27
:1011C000704700BF0010024080B485B000AF786067
:1011D0000023FB60094B5B68FB60FB6823F46053F2
:1011E000FB607B68DB00FA681343FB60034AFB6823
:1011F000536000BF1437BD4680BC704700100240EA
:1012000080B485B000AF78600023FB60094B5B6859
:10121000FB60FB6823F44043FB60FA687B68134380
:10122000FB60044AFB68536000BF1437BD4680BCB6
:10123000704700BF0010024080B487B000AF7860F4
:1012400000237B6100233B610023FB600023BB6024
:101250004C4B5B6803F00C037B617B69042B07D06C
:10126000082B09D0002B33D17B68474A1A6033E042
:101270007B68454A1A602FE0424B5B6803F47013A9
:101280003B61404B5B6803F48033FB603B699B0C24
:1012900002333B61FB68002B06D13B693B4A02FBF2
:1012A00003F27B681A6017E0364B5B6803F4003387
:1012B000002B06D03B69354A02FB03F27B681A60BB
:1012C0000AE03B69304A02FB03F27B681A6003E0E4
:1012D0007B682D4A1A6000BF2A4B5B6803F0F0035D
:1012E0007B617B691B097B61294A7B6913441B78FD
:1012F000DBB2BB607B681A68BB68DA407B685A6007
:10130000204B5B6803F4E0637B617B691B0A7B61B4
:101310001F4A7B6913441B78DBB2BB607B685A6849
:10132000BB68DA407B689A60164B5B6803F46053D5
:101330007B617B69DB0A7B61154A7B6913441B78FF
:10134000DBB2BB607B685A68BB68DA407B68DA60F6
:101350000C4B5B6803F440437B617B699B0B7B61B7
:101360000C4A7B6913441B78DBB2BB607B68DA688C
:10137000BB68B2FBF3F27B681A6100BF1C37BD4645
:1013800080BC70470010024000127A0000093D0046
:10139000880000209800002080B483B000AF7860FF
:1013A0000B46FB70FB78002B06D00949084B5A69A5
:1013B0007B6813434B6106E00549054B5A697B681E
:1013C000DB4313404B6100BF0C37BD4680BC704708
:1013D0000010024080B483B000AF78600B46FB7011
:1013E000FB78002B06D00949084B9A697B681343A8
:1013F0008B6106E00549054B9A697B68DB43134026
:101400008B6100BF0C37BD4680BC704700100240A6
:1014100080B483B000AF78600B46FB70FB78002B84
:1014200006D00949084BDA697B681343CB6106E0B3
:101430000549054BDA697B68DB431340CB6100BF8C
:101440000C37BD4680BC70470010024080B487B0A6
:1014500000AF0346FB710023FB6000237B61002388
:10146000FB74FB795B09DBB2FB60FB68012B03D1EA
:10147000124B1B687B6109E0FB68022B03D10F4B09
:101480001B6A7B6102E00D4B5B6A7B61FB7903F0B9
:101490001F03FB607A69FB6822FA03F303F0010380
:1014A000002B02D00123FB7401E00023FB74FB7CC2
:1014B00018461C37BD4680BC704700BF0010024074
:1014C00080B483B000AF03463960FB7197F90730F1
:1014D000002B0BDA0D49FB7903F00F03043B3A684C
:1014E000D2B21201D2B20B441A7609E0084997F938
:1014F00007303A68D2B21201D2B20B4483F800230B
:1015000000BF0C37BD4680BC704700BF00ED00E057
:1015100000E100E080B582B000AF78607B68B3F195
:10152000807F01D3012311E00A4A7B6823F07F43C7
:10153000013B53600F214FF0FF30FFF7C1FF054B18
:1015400000229A60034B07221A60002318460837CE
:10155000BD4680BD10E000E080B584B002AF002041
:1015600002F02AFA0023FB713FE00321002002F081
:1015700099FA01224649474802F02AFBFB799BB2BF
:101580003A3398B2FB799BB23A339AB20123009373
:101590000C23022102F042FBFB799BB23B3398B251
:1015A000FB799BB23B339AB2012300930C230221B7
:1015B00002F034FB384B1B7899B2384B1B789AB247
:1015C00001230193112300930023354801F044FFC8
:1015D00002F0BEF9334B00221A6000BF314B1B688A
:1015E000632BFBD9FB790433FB71FB79452BBCD909
:1015F000002002F0E1F90A23BB713FE00321002043
:1016000002F050FA01222249274802F0E1FABB79A0
:101610009BB23A3398B2BB799BB23A339AB2012368
:1016200000930C23022102F0F9FABB799BB23B3301
:1016300098B2BB799BB23B339AB2012300930C233F
:10164000022102F0EBFA194B1B7899B2184B1B7868
:101650009AB201230193112300930023154801F04E
:10166000FBFE02F075F90F4B00221A6000BF0D4B14
:101670001B68632BFBD9BB790433BB71BB79452B4A
:10168000BCD90D4B01221A7000BF0837BD4680BD82
:101690009C00002064A80008F0E20008F1E20008C5
:1016A000F0DF0008F40A00206CA80008ACE600088F
:1016B000ADE60008ACE30008790A002080B500AF71
:1016C00000F0F6F900F034FA00F090F8164B1B68C1
:1016D000164AA2FB03239B091846FFF71BFF01F0E4
:1016E00011FA134B02225A70124B01229A70114BBD
:1016F0000122DA700F4B01225A7000F05BFAFEF7FC
:1017000059FE02F053F84FF41650FFF7B7FA4FF4B2
:10171000165001F07BFB084802F07CFBFFF71CFF32
:1017200001F080F900BF80BD68000020D34D621039
:10173000C40B0020D00B0020E093040080B500AF64
:10174000224B1B680133214A1360214B1B68013374
:101750001F4A13601D4B1B68B3F57A7F1BD31B4BCD
:1017600000221A601B4B1B6801331A4A1360194B85
:101770001B683B2B04D9174B00221A6002F016F8A5
:10178000154B1B680133144A1360144B1B78002B54
:1017900001D000F0BFFA104B1B681E2B04D901F0DA
:1017A00041F90D4B00221A600D4B1B6801330C4AA6
:1017B00013600C4B1B6801330A4A13600A4B1B6809
:1017C0000133094A136000BF80BD00BFF40A002046
:1017D000000B0020F80A0020040B0020790A0020EA
:1017E000E40A0020E80A0020EC0A002080B582B05C
:1017F00000AF01215148FFF785F94FF41943BB8031
:101800001023FB710323BB713B1D19464C48FFF7A6
:1018100055F841F20303BB801023FB710323BB7116
:101820003B1D19464748FFF749F84FF42873BB8022
:101830001023FB710323BB713B1D19464248FFF780
:101840003DF80423BB801023FB710323BB713B1DB8
:1018500019463E48FFF732F880213B48FFF71EF952
:101860000423BB801423FB710323BB713B1D19466A
:101870003448FFF723F8C023BB801C23FB710323EC
:10188000BB713B1D19462F48FFF718F848F2382363
:10189000BB801823FB710323BB713B1D19462848ED
:1018A000FFF70CF849F62803BB801823FB710323CC
:1018B000BB713B1D19462348FFF700F84FF4C05396
:1018C000BB801823FB710323BB713B1D19461E48C7
:1018D000FEF7F4FF46F20543BB800423FB710323AC
:1018E000BB713B1D19461648FEF7E8FF44F2104352
:1018F000BB800423FB710323BB713B1D19461148B8
:10190000FEF7DCFF42F21F43BB800423FB7103237D
:10191000BB713B1D19460C48FEF7D0FFC023BB80AE
:101920000023FB710323BB713B1D19460448FEF7DE
:10193000C5FF00BF0837BD4680BD00BF00023000B4
:1019400000080140000C014000100140001401405B
:1019500080B400AF544B02221A60534B1A681346EE
:10196000DB001344514A1360504B1B68102B09D9FC
:101970004D4B01221A604C4B1A681346DB0013448E
:101980004A4A1360494B1B68102B00F28880474B72
:101990001B68012B40F28380434B1B68012B04D151
:1019A000414B4FF480321A6007E03F4B1B68022B1B
:1019B00003D13D4B4FF440321A603C4B1B68023B55
:1019C0000E2B6BD801A252F823F000BF091A0008B1
:1019D000111A00081B1A0008251A00082F1A0008FF
:1019E000391A0008431A00084D1A0008571A00084F
:1019F000611A00086B1A0008751A00087F1A00089F
:101A0000891A0008931A0008284B00221A6046E041
:101A1000264B4FF480221A6041E0244B4FF4002201
:101A20001A603CE0214B4FF440221A6037E01F4B14
:101A30004FF480121A6032E01C4B4FF4A0121A606F
:101A40002DE01A4B4FF4C0121A6028E0174B4FF4E8
:101A5000E0121A6023E0154B4FF400121A601EE0EA
:101A6000124B4FF410121A6019E0104B4FF4201271
:101A70001A6014E00D4B4FF430121A600FE00B4B5C
:101A80004FF440121A600AE0084B4FF450121A60EB
:101A900005E0064B4FF460121A6000E0FEE700BF5D
:101AA000BD4680BC704700BFE00F0020B80B00208F
:101AB00080B582B000AFFFF74BFFFFF771FA4FF42C
:101AC0008030FFF79BFAFFF7C7FA0346FB71FB79FB
:101AD000012B25D10020FFF73FFB0020FFF774FB0F
:101AE0004FF48060FFF754FB0F4B1A680F4B1B68D5
:101AF00019461046FFF7D8FA0120FFF7F3FA00BFA6
:101B00003920FFF7A3FC0346002BF9D00220FFF792
:101B1000F9FA00BFFFF712FB0346082BFAD100E0E9
:101B2000FEE70837BD4680BDE00F0020B80B00205F
:101B300080B500AF01210120FFF74CFC01210420FA
:101B4000FFF748FC01210820FFF744FC0121102089
:101B5000FFF740FC01212020FFF73CFC01214FF45E
:101B60008040FFF737FC01214FF40030FFF750FCB5
:101B700001214FF00050FFF74BFC01214FF40060B2
:101B8000FFF728FC01210420FFF742FC012101207E
:101B9000FFF702FC01210220FFF7FEFB4FF440405B
:101BA000FFF72EFB01214FF4C060FFF713FC00BFCD
:101BB00080BD00BF80B500AF524B1B78002B0CBF1F
:101BC00001230023DBB21A464FF400614E48FEF7B2
:101BD00081FF4FF400614C48FEF746FF0346002B9F
:101BE0000CBF01230023DBB21A46464B1A70454B4B
:101BF0005B78002B0CBF01230023DBB21A464FF4A5
:101C000080514148FEF766FF4FF480513E48FEF791
:101C10002BFF0346002B0CBF01230023DBB21A4627
:101C2000384B5A70374B9B78002B0CBF0123002395
:101C3000DBB21A464FF480713348FEF74BFF314B4D
:101C4000DB78002B0CBF01230023DBB21A464FF4D4
:101C500000712E48FEF73EFF01212B48FEF7EAFEF9
:101C600003461A46274B1A7302212748FEF7E2FE65
:101C700003461A46234BDA724FF480712448FEF76C
:101C8000D9FE03461A461F4BDA714FF40071204803
:101C9000FEF7D0FE03461A461A4B1A7201211B4862
:101CA000FEF7C8FE03461A46164B1A710221174862
:101CB000FEF7C0FE03461A46124B5A710421134820
:101CC000FEF7B8FE03461A460E4B9A7108210F48DC
:101CD000FEF7B0FE03461A460A4B9A7210210B48D3
:101CE000FEF7A8FE03461A46064B5A734FF40051FE
:101CF0000648FEF79FFE03461A46024B5A7200BF83
:101D000080BD00BFD00B0020000801400010014042
:101D1000000C014080B582B002AF002001F04CFE03
:101D2000944B1B7899B2944B1B789AB20123019380
:101D3000132300934FF6FD73904801F08DFB19219A
:101D4000002001F0AFFE01228D498E4801F040FFD6
:101D50008D4B1B7899B28D4B1B789AB2012301935E
:101D60002A23009300238A4801F076FB33210020C8
:101D700001F098FE01228249864801F029FF864B36
:101D80001B7899B2854B1B789AB2854BDB79002B77
:101D90000CBF01230023DBB20193112300931B230B
:101DA000804801F059FB7C4B1B7899B27B4B1B7828
:101DB0009AB27B4B1B7A002B0CBF01230023DBB2B2
:101DC0000193212300931B23774801F045FB724BBD
:101DD0001B7899B2714B1B789AB2714B5B7A002BCE
:101DE0000CBF01230023DBB20193312300931B239B
:101DF0006E4801F031FB6E4B1B7899B26D4B1B782E
:101E00009AB2674B1B79002B0CBF01230023DBB276
:101E10000193112300933023674801F01DFB644BAD
:101E20001B7899B2634B1B789AB25D4B5B79002BA0
:101E30000CBF01230023DBB2019321230093302345
:101E40005E4801F009FB5A4B1B7899B2594B1B783D
:101E50009AB2534B9B79002B0CBF01230023DBB2BA
:101E60000193312300933023554801F0F5FA554B87
:101E70001B7899B2544B1B789AB2494B9B7A002B32
:101E80000CBF01230023DBB20193112300934A23EB
:101E90004E4801F0E1FA4E4B1B7899B24D4B1B783E
:101EA0009AB23F4BDB7A002B0CBF01230023DBB23D
:101EB0000193212300934A23474801F0CDFA474B71
:101EC0001B7899B2464B1B789AB2354B1B7B002B83
:101ED0000CBF01230023DBB20193312300934A237B
:101EE000404801F0B9FA404B1B7899B23F4B1B7840
:101EF0009AB22B4B1B78002B0CBF01230023DBB2C3
:101F00000193112300936623394801F0A5FA394B58
:101F10001B7899B2384B1B789AB2214B5B78002B17
:101F20000CBF01230023DBB201932123009366231E
:101F3000324801F091FA324B1B7899B2314B1B7841
:101F40009AB2174B5B7B002B0CBF01230023DBB243
:101F500001933123009366232B4801F07DFA2B4B2C
:101F60001B78002B61D12A4B1B7899B2294B1B7827
:101F70009AB251E060DF000861DF000810DF00085E
:101F80009C000020BC0B002034D8000835D8000885
:101F9000E4D70008BF0B002034D9000835D9000869
:101FA000D00B002004D9000838D900086CD90008EB
:101FB000ECD30008EDD30008ACD300089CD4000893
:101FC00014D40008A4DF0008A5DF000864DF0008BF
:101FD000B0DD0008B1DD000870DD000878D8000829
:101FE00079D8000838D80008BCD80008BDD8000847
:101FF0007CD8000800D9000801D90008C0D8000822
:1020000098D4000899D4000858D40008C40B0020C4
:10201000F4DD0008F5DD000801230193002300939F
:1020200001235E4801F018FA70E05D4B1B78012B2C
:102030000ED15C4B1B7899B25B4B1B789AB2012393
:102040000193002300930123584801F005FA5DE055
:10205000534B1B78022B0ED1554B1B7899B2554B25
:102060001B789AB201230193002300930123524865
:1020700001F0F2F94AE04A4B1B78032B0ED14F4B8B
:102080001B7899B24E4B1B789AB20123019300231F
:10209000009301234B4801F0DFF937E0404B1B78F8
:1020A000042B0ED1484B1B7899B2484B1B789AB23F
:1020B00001230193002300930123454801F0CCF94B
:1020C00024E0374B1B78052B0ED1424B1B7899B27D
:1020D000414B1B789AB20123019300230093012303
:1020E0003E4801F0B9F911E02D4B1B78062B0DD1BC
:1020F0003B4B1B7899B23B4B1B789AB2012301935F
:10210000002300930123384801F0A6F9374BDB7810
:10211000002B0ED0364B1B7899B2364B1B789AB2F7
:1021200001230193002300932323334801F094F902
:1021300024E01B4B5B78012B0ED1304B1B7899B2FE
:102140002F4B1B789AB20123019300230093232382
:102150002C4801F081F911E0114B5B78022B0DD175
:10216000294B1B7899B2294B1B789AB20123019312
:10217000002300932323264801F06EF903213C201D
:1021800001F090FCFEF774FA01222249224801F086
:102190001FFD01F0DDFB00BFBD4680BDB4DD0008C2
:1021A000C40B002018DE000819DE0008F8DD000866
:1021B0004CDE00084DDE00081CDE000880DE000852
:1021C00081DE000850DE0008C4DE0008C5DE00081D
:1021D00084DE0008E1D90008E0D90008A0D9000891
:1021E00024DA000825DA0008E4D90008D00B002022
:1021F0000CDF00080DDF0008ECDE000810D400083A
:1022000011D40008F0D30008E8DE0008E9DE000879
:10221000C8DE00089C000020640B002080B485B05C
:1022200000AF786039600023FB600023FB727B689D
:102230005B68FB60FB6823F4702323F48073FB600E
:102240003B681A683B681B791B021343FA68134307
:10225000FB607B68FA685A607B689B68FB60FA6881
:10226000164B1340FB603B68DA683B689B681A4377
:102270003B685B795B001343FA681343FB607B6840
:10228000FA689A607B68DB6AFB60FB6823F4700382
:10229000FB603B681B7C013BDAB2FB7A1343FB72A9
:1022A000FB7A1B05FA681343FB607B68FA68DA6205
:1022B00000BF1437BD4680BC704700BFFDF7F1FF7B
:1022C00080B483B000AF78607B6800221A607B68BE
:1022D00000221A717B6800225A717B6800229A6082
:1022E0007B680022DA607B6801221A7400BF0C3719
:1022F000BD4680BC704700BF80B483B000AF78603B
:102300000B46FB70FB78002B06D07B689B6843F084
:1023100001027B689A6005E07B689B6823F00102FC
:102320007B689A6000BF0C37BD4680BC704700BF19
:1023300080B483B000AF78607B689B6843F008028C
:102340007B689A6000BF0C37BD4680BC704700BFF9
:1023500080B485B000AF78600023FB737B689B6816
:1023600003F00803002B02D00123FB7301E00023DC
:10237000FB73FB7B18461437BD4680BC704700BF1B
:1023800080B483B000AF78607B689B6843F0040240
:102390007B689A6000BF0C37BD4680BC704700BFA9
:1023A00080B485B000AF78600023FB737B689B68C6
:1023B00003F00403002B02D00123FB7301E0002390
:1023C000FB73FB7B18461437BD4680BC704700BFCB
:1023D00080B485B000AF7860084611461A460346BF
:1023E000FB700B46BB7013467B700023FB60002321
:1023F000BB60FB78092B23D97B68DB68FB60FB782B
:10240000A3F10A0213465B001344072202FA03F306
:10241000BB60BB68DB43FA681340FB607978FB78EC
:10242000A3F10A0213465B00134401FA03F3BB60F5
:10243000FA68BB681343FB607B68FA68DA601EE0E9
:102440007B681B69FB60FA7813465B001344072224
:1024500002FA03F3BB60BB68DB43FA681340FB601E
:102460007978FA7813465B00134401FA03F3BB60F2
:10247000FA68BB681343FB607B68FA681A61BB7833
:10248000062B21D87B685B6BFB60BB785A1E13461A
:102490009B0013441F2202FA03F3BB60BB68DB43BB
:1024A000FA681340FB60F978BB785A1E13469B000C
:1024B000134401FA03F3BB60FA68BB681343FB6083
:1024C0007B68FA685A6347E0BB780C2B21D87B689D
:1024D0001B6BFB60BB78DA1F13469B0013441F2263
:1024E00002FA03F3BB60BB68DB43FA681340FB608E
:1024F000F978BB78DA1F13469B00134401FA03F303
:10250000BB60FA68BB681343FB607B68FA681A63B8
:1025100022E07B68DB6AFB60BB78A3F10D02134607
:102520009B0013441F2202FA03F3BB60BB68DB432A
:10253000FA681340FB60F978BB78A3F10D021346EB
:102540009B00134401FA03F3BB60FA68BB681343B2
:10255000FB607B68FA68DA6200BF1437BD4680BC56
:10256000704700BF80B58CB000AF78603960002341
:10257000FB620023BB6200237B6200233B620023DB
:10258000FB617B68FB617B681B8A9BB2FB62FA6A1A
:102590004CF6FF731340FB623B68DB881A46FB6A0C
:1025A0001343FB62FB6A9AB27B681A827B689B8941
:1025B0009BB2FB62FA6A4EF6F3131340FB623B6870
:1025C0009A883B681B8913439AB23B685B89134323
:1025D0009BB21A46FB6A1343FB62FB6A9AB27B68A2
:1025E0009A817B689B8A9BB2FB62FA6A4FF6FF4333
:1025F0001340FB623B689B891A46FB6A1343FB62EC
:10260000FB6A9AB27B689A8207F108031846FEF7C4
:1026100013FEFB692E4A934202D17B69BB6201E043
:102620003B69BB627B689B899BB21BB2002B0CDAB7
:10263000BA6A13469B0013449A001A443B681B680D
:102640005B00B2FBF3F37B620BE0BA6A13469B00BC
:1026500013449A001A443B681B689B00B2FBF3F3D7
:102660007B627B6A1B4AA2FB03235B091B01FB62A3
:10267000FB6A1B09642202FB03F37A6AD31A3B62EA
:102680007B689B899BB21BB2002B0CDA3B6ADB0098
:102690003233104AA2FB03235B0903F00703FA6AF3
:1026A0001343FB620BE03B6A1B013233094AA2FB76
:1026B00003235B0903F00F03FA6A1343FB62FB6A0F
:1026C0009AB27B681A8100BF3037BD4680BD00BF1B
:1026D000003801401F85EB5180B483B000AF7860B3
:1026E0000B46FB70FB78002B08D07B689B899BB264
:1026F00043F400539AB27B689A8107E07B689B8918
:102700009BB223F400539AB27B689A8100BF0C37C6
:10271000BD4680BC704700BF80B487B000AF786012
:102720000B467B8013467B7000233B610023FB60DC
:102730000023BB6000237B617B687B617B88DBB20D
:102740005B09DBB23B617B8803F01F03FB60012266
:10275000FB6802FA03F3BB603B69012B03D17B6981
:102760000C337B6109E03B69022B03D17B69103399
:102770007B6102E07B6914337B617B78002B06D0A0
:102780007B697A691168BA680A431A6006E07B6956
:102790007A691168BA68D2430A401A6000BF1C37D0
:1027A000BD4680BC704700BF80B584B000AF034613
:1027B000FB71FB79002B01D0142300E04823FB734D
:1027C0000323BB730423BB8107F10C0319460348A1
:1027D000FEF774F800BF1037BD4680BD000C014005
:1027E00080B584B000AF0346FB710023FB60FB792A
:1027F000002B12D002E0FB680133FB6004210F487C
:10280000FEF718F90346002B12D1FB68B3F57A7F67
:10281000F1DB0DE0FB680133FB6004210748FEF7A4
:1028200009F90346002B03D0FB68B3F57A7FF1DB8F
:10283000FB6818461037BD4680BD00BF000C014044
:1028400080B582B000AF0120FFF7AEFF0421194828
:10285000FEF732F91620FDF787FC04211548FEF734
:102860001DF90020FFF7A0FF0020FFF7B9FF0120AE
:10287000FFF7B6FF78600020FFF7B2FF38607B6893
:10288000002B11D03B68002B0ED07B68B3F57A7F0C
:102890000ADA3B68B3F57A7F06DA7B685B10064A92
:1028A00013604FF0FF3300E0002318460837BD46A1
:1028B00080BD00BF000C01400C0B002080B582B031
:1028C00000AF0120FFF78CFF0020FFF789FF786041
:1028D0007B68002B0CD07B68B3F57A7F08DA074B56
:1028E0001B687A689A42CCBF01230023DBB200E068
:1028F000002318460837BD4680BD00BF0C0B0020E2
:1029000080B483B000AF0023FB7100233B6009E07B
:10291000094A3B6813441A78FB791344FB713B68FE
:1029200001333B603B68032BF2DDFB7918460C3723
:10293000BD4680BC704700BFE40F002090B585B055
:1029400000AF0023FB6007E0264AFB681344002227
:102950001A70FB680133FB60FB68042BF4DDFFF7A2
:102960006FFF0346002B37D00023BB6025E0FFF745
:10297000A5FF0346002B1DD0BA681B4B1340002B4C
:1029800003DA013B63F007030133DBB2C3F1070352
:10299000FB71BB68DB10BA68D21012498A5C51B275
:1029A000FA79012000FA02F252B20A4352B2D1B2CD
:1029B0000C4AD154BB680133BB60BB68272BD6DD02
:1029C000084B1C79FFF79CFF03469C4201D1002372
:1029D00004E06FF0010301E04FF0FF3318461437B5
:1029E000BD4690BDE40F00200700008080B500AF19
:1029F000044B93F90030184601F072FC0346184668
:102A000080BD00BFE60F002080B500AF044B93F9F6
:102A10000030184601F064FC0346184680BD00BF34
:102A2000E40F002080B582B000AFFFF787FF0346B8
:102A3000002B41D1FFF7DAFF0346184601F0A4FC52
:102A40000346FB71FB791E4AA2FB0323DB08DBB2C2
:102A50003033DAB21B4B1A70FA79194BA3FB02130D
:102A6000D9080B469B000B445B00D31ADBB2303312
:102A7000DAB2144B5A70FFF7C7FF0346184601F04D
:102A800083FC0346FB71FB790D4AA2FB0323DB08A1
:102A9000DBB23033DAB20B4BDA70FA79084BA3FBB6
:102AA0000213D9080B469B000B445B00D31ADBB220
:102AB0003033DAB2034B1A7100BF0837BD4680BD10
:102AC000CDCCCCCCBC0B002080B485B000AF7860FE
:102AD0000A4B1B68002B02D1084B094A1A60074BAE
:102AE0001B68FB60054B1A687B681344034A13603C
:102AF000FB6818461437BD4680BC7047100B002099
:102B0000AC10002080B586B000AF01214FF400105A
:102B1000FEF77EFC01210820FEF75CFC134B7B6076
:102B200000233B814BF6FF737B811523BB81002380
:102B3000FB814FF480433B823B1D19460C4801F05A
:102B400003FAC023BB821C23FB750323BB7507F16B
:102B5000140319460748FDF7B1FE0121044801F0AE
:102B6000B5FA00BF1837BD4680BD00BF801A060009
:102B700000540040000C014080B586B000AFF86002
:102B80007B600B46FB721346BB72F97A002300226E
:102B9000F86800F01FF8BB7A1946F86800F09EF854
:102BA0000023FB750AE0FB7D7A6813441B78194605
:102BB000F86800F093F8FB7D0133FB75FB7D9BB259
:102BC0003A8C9A42EFD8F86800F0D2F800BF183774
:102BD000BD4680BD80B582B000AF78600846114622
:102BE0001A460346FB700B46BB7013467B707B682E
:102BF0001B889BB243F480739AB27B681A80354B72
:102C000044F620621A600AE0324B1B68013B314AED
:102C10001360304B1B68002B01D1012356E07B6809
:102C20009B8A9BB203F00103002BEDD07B78002B35
:102C300007D07B681B889BB243F480639AB27B68A1
:102C40001A80BB78002B1DD1FB789BB223F00103C7
:102C50009AB27B681A821F4B44F620621A600AE01F
:102C60001C4B1B68013B1B4A13601A4B1B68002B53
:102C700001D101232AE07B689B8A9BB203F0020307
:102C8000002BEDD0BB78012B1DD1FB7843F0010365
:102C9000DBB29AB27B681A820E4B44F620621A604D
:102CA0000AE00C4B1B68013B0A4A1360094B1B6886
:102CB000002B01D1012309E00749786801F026FAC9
:102CC0000346002BEDD07B681B8B0023184608378A
:102CD000BD4680BD140B00200200030080B483B009
:102CE00000AF78600B46FB700E4B44F620621A6012
:102CF00004E00C4B1B68013B0A4A13607B689B8A0B
:102D00009BB203F08003002B03D1064B1B68002B02
:102D1000EFD1FB789AB27B681A8200BF0C37BD46B0
:102D200080BC7047140B002080B582B000AF786083
:102D3000084611461A460346FB700B46BB70134605
:102D40007B70F978002300227868FFF743FFBB7897
:102D500019467868FFF7C2FF7B7819467868FFF755
:102D6000BDFF786800F004F800BF0837BD4680BD9D
:102D700080B483B000AF7860154B44F620621A60CF
:102D80000AE0134B1B68013B114A1360104B1B6890
:102D9000002B01D1012316E07B689B8A9BB203F0D4
:102DA0008003002BEDD07B689B8A9BB203F0040369
:102DB000002BE6D07B681B889BB243F400739AB269
:102DC0007B681A80002318460C37BD4680BC7047CC
:102DD000140B002080B584B000AF78600B46FB7008
:102DE0000023FB73F978012300227868FFF7F2FED5
:102DF0000346002B01D10123FB737868FFF7B8FF6E
:102E0000FB7B18461037BD4680BD00BF80B588B03B
:102E100000AF786026233B7700237B770023BB77C6
:102E20000123FB7707F11C03184600F087F9042300
:102E30003B831823FB760323BB7607F1180319465F
:102E40001648FDF73BFD08233B830423FB7607F17F
:102E5000180319461148FDF731FD7B68BB6000235C
:102E6000BB810023FB8100233B820023BB820C2318
:102E70007B8207F1080319460948FFF773FB01211C
:102E80000748FFF729FC012240F225510448FFF7CB
:102E900043FC00BF2037BD4680BD00BF0008014095
:102EA0000044004080B483B000AF0346FB7100BF14
:102EB000094B1B889BB203F04003002BF8D0064B54
:102EC000FA7992B29A80054BFA7992B29A8000BF51
:102ED0000C37BD4680BC70470044004000380140BC
:102EE00080B584B000AF78600023FB6009E0FB6828
:102EF0005A1CFA601A467B6813441B781846FFF781
:102F0000D1FFFB687A6813441B78002BEFD100BF18
:102F10001037BD4680BD00BF80B500AF194B1B8880
:102F20009BB203F02003002B29D0164A154B1B88B7
:102F30009BB223F020039BB21380134B1B781A46DD
:102F4000104B9B889BB2D9B2104B99540E4B1B78F7
:102F50000133DAB20C4B1A700D4B1B78002B04D0E6
:102F60000C4B084A928892B29A80064B9B889BB27F
:102F70000A2B04D1044B00221A7000F00DF800BF98
:102F800080BD00BF0044004050100020EC0F002026
:102F9000840000200038014080B582B000AF2C4B87
:102FA00000221A700023FB712A492B4801F00AFC09
:102FB0000346002B09D02948FDF7B2FE244B01221D
:102FC0001A70274B01221A702FE02649224801F07F
:102FD000F9FB0346002B09D02348FDF7A1FE1C4B4B
:102FE00001221A701E4B00221A701EE01F491A4857
:102FF00001F0E8FB0346002B08D0154B02221A70A3
:103000001548FDF78DFE00F035F80EE0184912481E
:1030100001F0D8FB0346002B07D00D4B03221A709A
:103020000D48FDF77DFE00F07FF80023FB7106E000
:10303000FB790133FB71FB79074A0021D154FB79FD
:10304000632BF5D900BF18460837BD4680BD00BFC9
:10305000240B0020F4E20008EC0F0020F8E2000846
:10306000250B002000E3000808E3000814E3000833
:103070001CE3000880B483B000AF0023FB71002381
:103080007B710023BB710023BB7102E0BB7901336C
:10309000BB71BB79224AD35C2F2BF7D9BB79204A6D
:1030A000D35C392BF2D8BB7901331D4AD35C2C2B6E
:1030B00011D0BB7901331A4AD25CBB791849CB5C79
:1030C000303BDBB2194689000B445B00DBB2134492
:1030D000DBB2303BFB71FB79632B03D1114B002238
:1030E0001A7017E0FB79052B03D80E4B01221A70DA
:1030F00010E0FB79092B03D80A4B02221A7009E071
:10310000FB790E2B03D8074B03221A7002E0054B04
:1031100004221A7000BF0C37BD4680BC704700BF48
:10312000EC0F0020C40B002080B500AF0248FFF771
:10313000D7FE00BF80BD00BF24E3000880B487B085
:1031400000AF786000237B6100233B610F23FB60AD
:103150007B68DB78002B3AD0274BDB68DB4303F43A
:10316000E0631B0A7B617B69C3F104033B61FA687E
:103170007B6922FA03F3FB607B685B781A463B6944
:1031800002FA03F37B617B689B781A46FB68134065
:103190007A6913437B617B691B017B61174A7B68FA
:1031A0001B787969C9B213440A4683F80023134A8D
:1031B0007B681B785B09DBB218467B681B7803F0E1
:1031C0001F03012101FA03F342F820300FE00B49FD
:1031D0007B681B785B09DBB218467B681B7803F0C1
:1031E0001F0301229A4000F1200341F8232000BF71
:1031F0001C37BD4680BC704700ED00E000E100E0F8
:1032000080B500AF00F012F80621064800F022F861
:103210004FF47A5000F0A0F801210348FDF74CF874
:1032200000BF80BD00240140002C014080B400AFED
:10323000074A074B1B6843F001031360044A044B21
:103240001B6843F48033136000BFBD4680BC7047E9
:103250000074004080B582B000AF78600B46FB7010
:103260003A48FFF72DF8394B00221A60374B0022FD
:103270001A71364B00225A71344B4FF460229A6017
:10328000324B4FF40062DA60304B01221A742F493E
:103290002F48FEF7C3FF01212D48FFF72DF8052326
:1032A000012207212A48FFF793F82948FFF740F841
:1032B00000BF2748FFF74CF80346002BF9D12448FC
:1032C000FFF75EF800BF2248FFF76AF80346002BBD
:1032D000F9D11E48FEF7F4FF1C4B00221A601B4B6D
:1032E00000221A71194B00225A71184B4FF46022B8
:1032F0009A60164B4FF40062DA60144B01221A7484
:1033000012491448FEF78AFF01211248FEF7F4FF24
:103310000523012206210F48FFF75AF80D48FFF751
:1033200007F800BF0B48FFF713F80346002BF9D14D
:103330000848FFF725F800BF0648FFF731F80346B5
:10334000002BF9D100BF0837BD4680BD58100020C2
:10335000002401400028014080B588B000AF7860AB
:103360004FF6FF73FB610123BB61234A7B68B2FB0D
:10337000F3F3FB610AE0BB690133BB611E4A7B6862
:10338000B2FBF3F2BB69B2FBF3F3FB61FB69B3F58C
:10339000803FF0D201214FF40060FEF71BF807F1E7
:1033A0000C031846FCF76EFF0023FB81BB699BB240
:1033B000BB81FB699BB23B8207F10C0319460F48A6
:1033C000FCF7E4FE012201210C48FCF795FF0021E7
:1033D0000A48FCF771FF19233B7200237B7200231C
:1033E000BB720123FB7207F108031846FFF7A6FE24
:1033F00000BF2037BD4680BD00A24A04002C01401A
:1034000080B500AF01210F48FCF79AFF0346002B5F
:1034100016D001210B48FCF7BDFF01210A48FEF739
:103420006BFF01210948FEF767FF084BDB6C1B09A6
:10343000184600F045FD064B064A928892B29A6003
:1034400000BF80BD002C0140002401400028014045
:10345000007400400048004080B586B000AFF860BE
:10346000084611461A4603467B810B463B811346AC
:10347000FB8000237B610023FB740023BB748AE183
:10348000FA687B6913441B785BB2002B0FDAFB7C74
:103490009AB2FB88134498B2BB7C9AB23B8C13441B
:1034A0009BB297F82420194600F09EFA13E0FB7CAB
:1034B0009AB2FB88134498B2BB7C9AB23B8C1344FB
:1034C00099B297F82430002B0CBF01230023DBB204
:1034D0001A4600F089FAFA687B6913441B7803F0F6
:1034E0004003002B11D0FB7C9AB2FB8813449BB2A3
:1034F000013398B2BB7C9AB23B8C13449BB297F8D1
:103500002420194600F070FA15E0FB7C9AB2FB8883
:1035100013449BB2013398B2BB7C9AB23B8C1344E8
:1035200099B297F82430002B0CBF01230023DBB2A3
:103530001A4600F059FAFA687B6913441B7803F0C5
:103540002003002B11D0FB7C9AB2FB8813449BB262
:10355000023398B2BB7C9AB23B8C13449BB297F86F
:103560002420194600F040FA15E0FB7C9AB2FB8853
:1035700013449BB2023398B2BB7C9AB23B8C134487
:1035800099B297F82430002B0CBF01230023DBB243
:103590001A4600F029FAFA687B6913441B7803F095
:1035A0001003002B11D0FB7C9AB2FB8813449BB212
:1035B000033398B2BB7C9AB23B8C13449BB297F80E
:1035C0002420194600F010FA15E0FB7C9AB2FB8823
:1035D00013449BB2033398B2BB7C9AB23B8C134426
:1035E00099B297F82430002B0CBF01230023DBB2E3
:1035F0001A4600F0F9F9FA687B6913441B7803F066
:103600000803002B11D0FB7C9AB2FB8813449BB2B9
:10361000043398B2BB7C9AB23B8C13449BB297F8AC
:103620002420194600F0E0F915E0FB7C9AB2FB88F3
:1036300013449BB2043398B2BB7C9AB23B8C1344C4
:1036400099B297F82430002B0CBF01230023DBB282
:103650001A4600F0C9F9FA687B6913441B7803F035
:103660000403002B11D0FB7C9AB2FB8813449BB25D
:10367000053398B2BB7C9AB23B8C13449BB297F84B
:103680002420194600F0B0F915E0FB7C9AB2FB88C3
:1036900013449BB2053398B2BB7C9AB23B8C134463
:1036A00099B297F82430002B0CBF01230023DBB222
:1036B0001A4600F099F9FA687B6913441B7803F005
:1036C0000203002B11D0FB7C9AB2FB8813449BB2FF
:1036D000063398B2BB7C9AB23B8C13449BB297F8EA
:1036E0002420194600F080F915E0FB7C9AB2FB8893
:1036F00013449BB2063398B2BB7C9AB23B8C134402
:1037000099B297F82430002B0CBF01230023DBB2C1
:103710001A4600F069F9FA687B6913441B7803F0D4
:103720000103002B11D0FB7C9AB2FB8813449BB29F
:10373000073398B2BB7C9AB23B8C13449BB297F888
:103740002420194600F050F915E0FB7C9AB2FB8862
:1037500013449BB2073398B2BB7C9AB23B8C1344A0
:1037600099B297F82430002B0CBF01230023DBB261
:103770001A4600F039F9FB7C0833FB747B6901338E
:103780007B61FB7C9BB27A899A4204D80023FB744C
:10379000BB7C0133BB74BB7C9BB23A899A423FF637
:1037A0006FAE00BF1837BD4680BD00BF80B582B088
:1037B00000AFFFF7A7F978216348FFF70BFB03463B
:1037C000002B01D10023BBE040F6C4137B6002E074
:1037D0007B68013B7B607B68002BF9D1AE23002224
:1037E00078215948FFF7A0FA202300227821564873
:1037F000FFF79AFA1023002278215348FFF794FA32
:10380000B023002278215048FFF78EFAC823002207
:1038100078214D48FFF788FA0023002278214A4892
:10382000FFF782FA1023002278214748FFF77CFA3D
:103830004023002278214448FFF776FA81230022B2
:1038400078214148FFF770FAFF23002278213E4893
:10385000FFF76AFAA123002278213B48FFF764FAB8
:10386000A623002278213848FFF75EFAA823002219
:1038700078213548FFF758FA3F2300227821324853
:10388000FFF752FAA423002278212F48FFF74CFAC1
:10389000D323002278212C48FFF746FA0023002288
:1038A00078212948FFF740FAD523002278212648BD
:1038B000FFF73AFAF023002278212348FFF734FA81
:1038C000D923002278212048FFF72EFA2223002254
:1038D00078211D48FFF728FADA23002278211A48B8
:1038E000FFF722FA1223002278211748FFF71CFA6B
:1038F000DB23002278211448FFF716FA2023002248
:1039000078211148FFF710FA8D23002278210E4804
:10391000FFF70AFA1423002278210B48FFF704FA74
:10392000AF23002278210848FFF7FEF9074B002259
:103930001A80064B00225A80044B01225A7101233F
:1039400018460837BD4680BD00540040280B0020B3
:1039500080B584B002AF0023FB7122E0FB79503BBD
:10396000DBB2002278211248FFF7DEF900230022A3
:1039700078210F48FFF7D8F91023002278210C484E
:10398000FFF7D2F9FB79DB010A4A1A44802300933E
:103990001346402278210648FFF7EEF8FB79013301
:1039A000FB71FB79072BD9D900BF0837BD4680BD15
:1039B00000540040E00B002080B582B000AF034609
:1039C000FB71FB79002B01D1002300E0FF234FF4B2
:1039D00080621946034800F0F7FC00BF0837BD4677
:1039E00080BD00BFE00B002080B483B000AF034671
:1039F000FB800B46BB801346FB70FB887F2B48D8AF
:103A0000BB883F2B45D8254B1B79002B06D0FB7874
:103A1000002B0CBF01230023DBB2FB70FB78012BD2
:103A20001AD1FA88BB88DB0898B20346DB0113443D
:103A3000F9880246D2010A4419498A5C51B2BA880F
:103A400002F00702012000FA02F252B20A4352B217
:103A5000D1B2134AD1541DE0FA88BB88DB0898B272
:103A60000346DB011344F9880246D2010A440C499B
:103A70008A5C51B2BA8802F00702012000FA02F211
:103A800052B2D24352B20A4052B2D1B2044AD154D5
:103A900000E000BF0C37BD4680BC7047280B0020FB
:103AA000E00B002080B483B000AF03460A46FB80E1
:103AB0001346BB80054AFB881380044ABB885380A9
:103AC00000BF0C37BD4680BC704700BF280B0020EC
:103AD00080B586B000AF03463960FB711346BB71F9
:103AE0003A4B1B881A463B681B7813447F2B07DC34
:103AF000364B5B881A463B685B7813443F2B01DDED
:103B000000235EE000237B614BE03B685A68FB7951
:103B1000203B3968497801FB03F319467B690B4464
:103B20005B0013441B88FB6000233B6130E0FA68B4
:103B30003B6902FA03F303F40043002B10D0234B3C
:103B40001A883B699BB2134498B2204B5A887B6910
:103B50009BB213449BB2BA791946FFF745FF14E0B4
:103B60001A4B1A883B699BB2134498B2174B5A8878
:103B70007B699BB2134499B2BB79002B0CBF012324
:103B80000023DBB21A46FFF72FFF3B6901333B618D
:103B90003B681B781A463B699A42C8D87B69013357
:103BA0007B613B685B781A467B699A42ADD8074BCC
:103BB0001A883B681B789BB213449AB2034B1A8055
:103BC000FB7918461837BD4680BD00BF280B002082
:103BD00080B584B000AFF860B9601346FB7112E0A5
:103BE000FB681B78FA79B9681846FFF771FF03463E
:103BF0001A46FB681B789A4202D0FB681B7808E0E3
:103C0000FB680133FB60FB681B78002BE8D1FB6885
:103C10001B7818461037BD4680BD00BF90B587B0F1
:103C200000AF0446084611461A462346FB80034669
:103C3000BB800B467B8013463B80FB887F2B01D9E2
:103C40007F23FB807B887F2B01D97F237B80BB88F0
:103C50003F2B01D93F23BB803B883F2B01D93F231A
:103C60003B80FA887B889A4205D27A88FB88D31AEF
:103C70009BB21BB204E0FA887B88D31A9BB21BB2BA
:103C80007B82BA883B889A4205D23A88BB88D31A8D
:103C90009BB21BB204E0BA883B88D31A9BB21BB21A
:103CA0003B82FA887B889A4201D2012301E04FF0DF
:103CB000FF33FB81BA883B889A4201D2012301E09D
:103CC0004FF0FF33BB81B7F91220B7F910309A4299
:103CD00006DDB7F91230DA0F13445B101BB206E0B1
:103CE000B7F910305B42DA0F13445B101BB2FB8252
:103CF000B7F91230002B29D13A88BB889A4205D2F5
:103D00003B887B81BB883B807B89BB807A88FB8832
:103D10009A4205D27B887B81FB887B807B89FB80F4
:103D2000BB88BB820CE0B98A97F82820FB8818462C
:103D3000FFF75AFEB7F914309BB201339BB2BB8236
:103D4000B7F914203B889A42EDDD5FE0B7F91030F7
:103D5000002B29D13A88BB889A4205D23B887B81C7
:103D6000BB883B807B89BB807A88FB889A4205D2DE
:103D70007B887B81FB887B807B89FB80FB88BB8287
:103D80000CE0BB8A97F82820B9881846FFF72CFE6C
:103D9000B7F914309BB201339BB2BB82B7F9142040
:103DA0007B889A42EDDD31E097F82820B988FB88BE
:103DB0001846FFF719FEFA887B889A4203D1BA8821
:103DC0003B889A4221D0FB8A3B81B7F90820B7F99A
:103DD00012305B429A4208DDFA8A3B8AD31A9BB2C0
:103DE000FB82FA89FB881344FB80B7F90820B7F9F6
:103DF00010309A42D8DAFA8A7B8A13449BB2FB824B
:103E0000BA89BB881344BB80CEE700BF1C37BD46D0
:103E100090BD00BF80B588B000AF78600121082058
:103E2000FDF7D8FA01214FF48020FDF7F1FA27239E
:103E30003B7700237B770023BB770123FB7707F1D8
:103E40001C031846FFF77AF94FF480633B8318236D
:103E5000FB760323BB7607F1180319461648FCF7D7
:103E60002DFD4FF400633B830423FB7607F1180319
:103E700019461148FCF722FD7B68BB600023BB811B
:103E80000023FB8100233B820023BB820C237B8227
:103E900007F1080319460948FEF764FB01210748AA
:103EA000FEF71AFC002240F225510448FEF734FCCC
:103EB00000BF2037BD4680BD000C014000480040D7
:103EC00080B582B000AF0346FB710122012110488A
:103ED000FCF700FE00BF0F4B1B889BB203F04003B2
:103EE000002BF8D00B4BFA7992B29A8000BF094BA5
:103EF0001B889BB203F04003002BF8D00022012165
:103F00000348FCF7E7FD00BF0837BD4680BD00BF92
:103F1000000C01400048004080B400AF094B1B88F2
:103F20009BB203F02003002B07D0064A054B1B88E9
:103F30009BB223F020039BB2138000BFBD4680BC20
:103F4000704700BF0048004080B58AB000AF78607D
:103F500039600023FB8400237B840423BB84574BFC
:103F6000FB617B689B88FB84FB8C23F03F03FB8415
:103F700007F108031846FDF75FF93B69FB61FB6930
:103F80004F4AA2FB03239B0C7B84FA8C7B8C13434C
:103F9000FB847B68FA8C9A807B681B889BB223F039
:103FA00001039AB27B681A800023FB843B681B687C
:103FB000444A934215D83B681B685B00FA69B2FB20
:103FC000F3F3BB84BB8C032B01D80423BB84FA8C92
:103FD000BB8C1343FB847B8C01339AB27B681A84BD
:103FE00040E03B68DB884BF6FF72934209D13B68A7
:103FF0001A6813465B001344FA69B2FBF3F3BB84FF
:104000000EE03B681A6813469B0013449A00134461
:10401000FA69B2FBF3F3BB84BB8C43F48043BB84EB
:10402000BB8CC3F30B03002B03D1BB8C43F0010308
:10403000BB84BA8CFB8C13439BB26FEA43436FEA99
:104040005343FB847B8C4FF4967202FB03F31E4AAE
:1040500082FB03129211DB17D31A9BB201339AB27F
:104060007B681A847B68FA8C9A837B681B889BB276
:1040700043F001039AB27B681A807B681B88FB843B
:10408000FB8C23F4816323F00203FB843B689A8852
:104090003B685B8913439AB2FB8C1343FB847B68B8
:1040A000FA8C1A803B689A893B681B8913439AB241
:1040B0007B681A8100BF2837BD4680BD00127A0098
:1040C00083DE1B43A0860100D34D621080B483B011
:1040D00000AF78600B46FB70FB78002B08D07B6844
:1040E0001B889BB243F001039AB27B681A8007E0F9
:1040F0007B681B889BB223F001039AB27B681A800D
:1041000000BF0C37BD4680BC704700BF80B487B08D
:1041100000AF7860396000233B610023FB6000231F
:10412000BB600023FB757B689B8A9BB2FB607B684E
:104130001B8B9BB2BB60BB681B04BB60FA68BB688F
:10414000134323F07F433B613A693B681A403B6865
:104150009A4202D10123FB7501E00023FB75FB7D30
:1041600018461C37BD4680BC704700BF80F0004039
:1041700002E000BF81F0004142001FBF5FEA41033F
:1041800092EA030F7FEA226C7FEA236C6AD04FEA3F
:104190001262D2EB1363C1BFD21841404840414084
:1041A000B8BF5B42192B88BF704710F0004F40F436
:1041B000000020F07F4018BF404211F0004F41F452
:1041C000000121F07F4118BF494292EA030F3FD01E
:1041D000A2F1010241FA03FC10EB0C00C3F1200331
:1041E00001FA03F100F0004302D5494260EB4000C0
:1041F000B0F5000F13D3B0F1807F06D340084FEA2B
:10420000310102F10102FE2A51D2B1F1004F40EB1F
:10421000C25008BF20F0010040EA03007047490087
:1042200040EB000010F4000FA2F10102EDD1B0FA52
:1042300080FCACF1080CB2EB0C0200FA0CF0AABF47
:1042400000EBC25052421843BCBFD04018437047E5
:1042500092F0000F81F4000106BF80F400000132EB
:10426000013BB5E74FEA41037FEA226C18BF7FEAC2
:10427000236C21D092EA030F04D092F0000F08BF04
:104280000846704790EA010F1CBF0020704712F0EB
:104290007F4F04D1400028BF40F00040704712F12A
:1042A00000723CBF00F50000704700F0004343F08F
:1042B000FE4040F4000070477FEA226216BF0846C5
:1042C0007FEA23630146420206BF5FEA412390EA88
:1042D000010F40F4800070474FF0000304E000BF7E
:1042E00010F0004348BF40425FEA000C08BF70472F
:1042F00043F0964301464FF000001CE050EA0102F3
:1043000008BF70474FF000030AE000BF50EA010207
:1043100008BF704711F0004302D5404261EB4101F4
:104320005FEA010C02BF84460146002043F0B64319
:1043300008BFA3F18053A3F50003BCFA8CF2083A3E
:10434000A3EBC25310DB01FA02FC634400FA02FC47
:10435000C2F12002BCF1004F20FA02F243EB02004E
:1043600008BF20F00100704702F1200201FA02FCB0
:10437000C2F1200250EA4C0021FA02F243EB0200A3
:1043800008BF20EADC70704742000ED2B2F1FE4F47
:104390000BD34FF09E03B3EB126209D44FEA002314
:1043A00043F0004323FA02F070474FF000007047DB
:1043B00012F1610F01D1420202D14FF0FF3070477C
:1043C0004FF00000704700BF70B4840746D0541E01
:1043D000002A41D0CDB2034602E0621EE4B3144687
:1043E00003F8015B9A07F8D1032C2ED9CDB245EA28
:1043F00005250F2C45EA054519D9264603F110027B
:10440000103E0F2E42F8105C42F80C5C42F8085C3B
:1044100042F8045C02F11002F2D8A4F1100222F07A
:104420000F0204F00F041032032C13440DD91E4662
:104430002246043A032A46F8045BFAD8221F22F0E7
:1044400003020432134404F003042CB1C9B21C4427
:1044500003F8011BA342FBD170BC7047144603460E
:10446000C2E700BF0EB40146F0B54FF6FF779CB02F
:1044700021AC54F8042B0D4823466FF000450291FF
:1044800006914FF4027602A900680194ADF8167007
:10449000ADF814600495079500F0A4FA029B002281
:1044A0001A701CB0BDE8F04003B07047E004002073
:1044B00020F0030110F00300C0F1000051F8043BAC
:1044C00000F1040C4FEACC0C6FF000021CBF22FA82
:1044D0000CF213434FF0010C4CEA0C2C4CEA0C4C40
:1044E000A3EB0C0222EA030212EACC1204BF51F839
:1044F000043B0430F4D0C2F1000102EA0102B2FA36
:1045000082F2C2F11F0200EBD20070472DE9F041A8
:104510004FF0010E744600254FF0FF362B198B42E9
:1045200000EB06070DD23F5D10F803C0BC452DD24D
:104530001D460124C6EB030E2B198B4200EB060728
:10454000F1D34FF001084446C2F800E000254FF0D7
:10455000FF372B19994200EB070E0ED91EF804E025
:1045600010F803C0F44518D91D460124C7EB030811
:104570002B19994200EB070EF0D80137701C8742C7
:1045800024BF3846C2F80080BDE8F0810CD04FF05F
:10459000010E2E4674467544C0E70CD04FF001085A
:1045A0002F4644464544D4E7744509BFA646013426
:1045B0001D460124B2E7444509BFA04601341D460B
:1045C0000124C6E72DE9F04FADF2144D164605461D
:1045D0008B461046194603AA1C46FFF797FF8146F3
:1045E00003AB0DF20C4243F8044F9342FBD14CB1A4
:1045F0003246631E04A812F8011B40F8213013F163
:10460000FF33F8D203994A463144304603F056F856
:10461000002871D109F1FF330093F318824601930A
:1046200023468046544658469A4608EB0A073A1AEB
:104630000021284402F0FCFF002858D1002F56D05A
:10464000EB1913F8012C04AB53F822304BB124B111
:10465000039A934201D2C2EB0A03984400243846DD
:10466000E3E74C45234638BF4B460AF1FF3E73450E
:1046700013D208EB0302A85C16F803C02A44844551
:1046800006EB030106D02EE011F801CF12F8010F5E
:10469000844528D101337345F6D34C45009980F009
:1046A0008B80009B019808EB0302AB5C00782A44E6
:1046B000984240F08180019B06EB040B06E013F862
:1046C00001ED12F8010D864504D161469B4501F1CB
:1046D000FF3CF4D101348C4270D8039C3846A0448E
:1046E000C4EB0A04A1E7C9F101029044B5E7002038
:1046F0000DF2144DBDE8F08FC9EB04034B4538BFF4
:104700004B4609F1FF380133039306EB0803584683
:10471000CB4699464FF0000A0AEB04073A1A0021EB
:10472000284402F085FF0028E1D1002FDFD0EB19EB
:1047300013F8012C04AB53F82230A3BB601E834551
:1047400015D20AEB0B0215F802E016F80B302A44DA
:104750009E4506EB0B015B4606D027E011F801CF22
:1047600012F801EFF44521D101338342F6D3B8F1B9
:10477000FF3F11D00AEB0802AB5C99F800102A4405
:1047800099420FD14B4605E013F8010D12F8011DB7
:10479000884207D1B342F7D105EB0A000DF2144D60
:1047A000BDE8F08F039B9A443846B5E7CBF1010290
:1047B00092449A443846AFE749468BE705EB080038
:1047C00096E700BF0378002B00F004812DE9F04F3D
:1047D00091F8008085B04446B8F1000F16D08646A7
:1047E00001F1010C012704E0624612F8014B64B1AB
:1047F00094469C4214BF002707F001071EF8013FB2
:10480000002BF1D19CF800300BBB17B105B0BDE80F
:10481000F08F0E46054641460130C6EB0C0403F00E
:1048200021FB074698B1012CF0D02819874294BF8C
:10483000C7EB000B4FF0010B1F2C0CD9234632465F
:1048400059463846FFF7BEFE05B0BDE8F08F0020A0
:1048500005B0BDE8F08F03AA21463046FFF756FEAB
:104860000399804602463144304602F027FF002873
:1048700058D181460546B246584608F1FF330193A8
:10488000F31800936619321A0021384402F0D0FE62
:104890000028DCD1002EDAD0C845434638BF4B464D
:1048A0009C4212D95A19B85C1AF803103A4488424B
:1048B0000AEB030E06D02DE01EF8010F12F8011FBF
:1048C000884227D101339C42F6D8019BC84519463E
:1048D00040F283800098EA18BB5C00783A44984222
:1048E0007BD1009B0AEB090B06E013F801CD12F80F
:1048F00001EDF44504D101465B4501F1FF30F4D1EF
:1049000009F10109894557D8039B30461D44C3EB83
:104910000409B7E7C8F1010215441D444FF000092E
:104920003046AFE7C8EB0403434538BF434608F1C0
:10493000FF390133039306EB090358469A46BB46F9
:10494000002567193A1A0021584402F071FE002828
:104950007FF47DAF002F3FF47AAF444515D908EBC3
:1049600005021BF8020016F808305A44984206EB7C
:104970000801434606D023E011F801EF12F8010FB9
:1049800086451DD101339C42F6D8B9F1FF3F12D0C4
:1049900005EB09021BF802309AF800105A449942BC
:1049A00014D1534605E013F8010D12F8011D884299
:1049B0000CD1B342F7D15F46781905B0BDE8F08F4E
:1049C000C8F1010215441D443846BAE7039B384636
:1049D0001D44B6E70B7813B97047414690E70020B5
:1049E000704700BF2DE9F04FC1B00C460991154644
:1049F0000E930A9002F062FB036818461793FFF7C4
:104A000057FDA38916901E0603D52369002B01F0DC
:104A10005C8100231A46A8460DF1C009DFF860A4A6
:104A2000129319930B9325932493CDF88C901492A1
:104A3000159298F800304446EBB1252B02D11AE0CC
:104A4000252B03D014F8013F002BF9D1C8EB040546
:104A50008DB1249B259A01332A44072BC9F8008085
:104A6000C9F804502592249300F3328309F1080910
:104A70000B9B2B440B932378002B00F0EA814FF023
:104A8000FF3B5D4600231A468DF86F3019460C93A4
:104A90000793637804F1010808F10108A3F12000ED
:104AA000582800F24586DFE810F0F303430643067A
:104AB000FC034306430643064306430643065900E8
:104AC000040443066600D0034306EC03BC05BC05A2
:104AD000BC05BC05BC05BC05BC05BC05BC05430646
:104AE000430643064306430643064306430643067E
:104AF0004306E205F7044306F7044306430643066C
:104B000043064205430643064A0543064306430659
:104B100043064306740543064306CD054306430694
:104B2000430643064306430643064306430643063D
:104B30001D060E06F704F704F70415060E064306D5
:104B40004306A3044306A805AE046D000A04430609
:104B50001204430635044306430670040E9C236882
:104B600018460C932346002803F104030E9306DA3B
:104B70000C9B5B420C93079B43F00403079398F84C
:104B8000003089E7AB460E9A00270798302178233A
:104B9000BB4514688DF8701002F104024FF0000557
:104BA0008DF871308DF86F7040F00201C0F23D86D3
:104BB00020F0800141F00201079154EA05010E92B4
:104BC0001193AD4800F0318130AE230943EA0573FB
:104BD000290904F00F020D461C46835C06F8013DCE
:104BE00054EA0503F1D130AB9B1B0D930D9B5B4544
:104BF000B8BF5B4608930023139317B1089B01339A
:104C00000893079B13F002030F9302D0089B023313
:104C10000893079B13F08403109340F018810C9BBA
:104C2000089A9D1A002D40F31281102D2599249A7F
:104C3000924F27DD189648461024B946099E2F4604
:104C40000A9D04E0103F102F00F1080016DD01322C
:104C50008A4B1031072A2591249280E81800F1DD53
:104C600023AA3146284603F065F9002840F0F88071
:104C7000103F102F30A82599249AE8DC3D464F4676
:104C80008146189E01326C18072A25942492C9F88F
:104C90000070C9F8045000F3D0809DF86F7009F1DE
:104CA000080977B1249B013401330DF16F01012212
:104CB000072B2594249389E8060000F3208209F14C
:104CC00008090F9B6BB1249B023401331CA90222FB
:104CD000072B2594249389E8060000F31C8209F130
:104CE0000809109B802B00F02C810D9BC3EB0B0758
:104CF000002F33DD624A102F249B0F9222DD2246C3
:104D00004FF0100B0A9D099C04E0103F102F09F191
:104D1000080916DD01331032072B2592249389E808
:104D2000000CF2DD23AA2146284603F003F90028EF
:104D300040F09680103F102F0DF1C009259A249B5A
:104D4000E8DC144601330F9A3C44072B2594249346
:104D500089E8840000F3C78109F10809079BDA0597
:104D600000F19080249B0D9901330C44072B25946E
:104D7000C9F80060C9F80410249300F3E28109F136
:104D80000809079B590736D50C9B089A9D1A002DD8
:104D900031DD102D249B394F22DD22461026DDF80F
:104DA00028B0099C04E0103D102D09F1080916DD1A
:104DB000013332491032072B2592249389E84200AF
:104DC000F1DD23AA2146584603F0B4F8002847D164
:104DD000103D102D0DF1C009259A249BE8DC1446E6
:104DE00001332C44072B25942493C9F80070C9F88B
:104DF000045000F392840B9B0C9A08998A42ACBF32
:104E00009B185B180B93002C40F0598100232493CE
:104E10000DF1C0090DE60027BB458DF86F70C0F29B
:104E20000E85079B23F080030793BBF1000F00F072
:104E30006C84002400250027C6E623AA09990A9855
:104E400003F078F860B99DF86F700DF1C009259CEA
:104E500027E7259B23B10A9823AA099903F06AF84A
:104E6000099B9B8913F0400F0B9B18BF4FF0FF333A
:104E7000184641B0BDE8F08F28E7000848E7000871
:104E8000F4E60008119B652B40F39F801498159958
:104E90000022002304F0C6F8002800F06381249B60
:104EA000AE49013301340122072B2594249389E86C
:104EB000060000F3538409F108091D9B129A9342DE
:104EC00003DB079BDB077FF55CAF249B169901335F
:104ED000179A0C44072B2594C9F80020C9F8041030
:104EE000249300F3E58609F10809129B5D1E002D4D
:104EF0007FF747AF9A4A102D249B0F9240F31781FA
:104F000010260A9FDDF824B005E009F10809103DDC
:104F1000102D40F30C8101331034072B259424937A
:104F2000C9F800A0C9F80460EFDD23AA5946384645
:104F300003F000F8002893D10DF1C009259C249BB3
:104F4000E5E70C9B089A9F1A002F7FF7CEAE844AA4
:104F5000102F249B0F922BDD4A462146B94610257F
:104F600037460A9C099E06E0A9F11009B9F1100F15
:104F700002F1080218DD01331031072B259124932B
:104F8000C2F800A05560EFDD23AA3146204602F0AA
:104F9000D1FF00287FF464AFA9F11009B9F1100F17
:104FA00030AA2599249BE6DC3E460C464F469146A6
:104FB00001330F9A3C44072B2594249389E88400FD
:104FC00000F32B8509F108098FE6129B249D012B24
:104FD00004F1010405F1010540F3E8840123072DE4
:104FE0002594C9F800602495C9F8043000F3F984C9
:104FF00009F10809169A0135179B1444072D2594C9
:105000002495C9F80030C9F8042000F3F88409F1A8
:105010000809002314981599002204F003F8129B44
:10502000002800F0EA805E1E002E40F3F5804C4B15
:10503000102E0F932CDDCDF834801027B046DDF80C
:1050400028B0099E06E0A8F11008B8F1100F09F188
:1050500008091ADD01351034072D25942495C9F867
:1050600000A0C9F80470EEDD23AA3146584602F0CC
:1050700061FF00287FF4F4AEA8F11008B8F1100F1A
:105080000DF1C009259C249DE4DC4646DDF8348002
:1050900001350F9B3444072D2594249589E8480059
:1050A00040F3B88023AA09990A9802F043FF002828
:1050B0007FF4D6AE259C249D0DF1C009ACE023AA57
:1050C00009990A9802F036FF00283FF49FAEC7E620
:1050D00023AA09990A9802F02DFF00287FF4C0AE98
:1050E0000DF1C009C4E423AA09990A9802F022FF2D
:1050F00000287FF4B5AE0DF1C009259C2EE623AA49
:1051000009990A9802F016FF00287FF4A9AE0DF164
:10511000C009259CD5E523AA09990A9802F00AFF3F
:1051200000287FF49DAE0DF1C009259CD9E501331F
:105130000F9A2C44072B2594249389E824007FF7A9
:105140001EAE23AA09990A9802F0F4FE00287FF403
:1051500087AE259C0DF1C00913E600BF44E70008A7
:10516000F4E600081D9D002D40F30E83139B129A58
:105170009342A8BF1346002B1D460DDD249B2C44F3
:105180000133072B2594C9F80060C9F80450249313
:1051900000F31A8609F10809139B002DA8BF5B1BB9
:1051A000002B1D4640F3A083B94A102D249B0F927B
:1051B00040F3448522461027DDF828B0099C05E01D
:1051C00009F10809103D102D40F3378501331032E5
:1051D000072B25922493C9F800A0C9F80470EFDDCD
:1051E00023AA2146584602F0A5FE00287FF438AED7
:1051F0000DF1C009259A249BE4E7013B01350136F6
:105200001C44072DC9F8006024952594C9F8043082
:105210003FF748AF09F10809199A013514441FAB4B
:10522000072D25942495C9F80420C9F800307FF78C
:10523000A6AD23AA09990A9802F07CFE00287FF403
:105240000FAE0DF1C009259C9BE598F8003008F1E0
:1052500001042A2B00F02E87A3F13000092898BF03
:10526000002500F2B28614F8013B05EB850500EB42
:105270004505A3F130000928F5D945EAE575A046B2
:105280000CE4079B43F08003079398F8003003E495
:1052900098F8003000297FF4FFAB01222021FFF7AE
:1052A000FBBB079B43F00103079398F80030FFF71F
:1052B000F3BB98F8003001222B21FFF7EDBB079BD1
:1052C00043F02003079398F80030FFF7E5BB0E9AF0
:1052D000AB461668002511938DF86F50141D002EF3
:1052E00000F0F885BBF1000FC0F244855A4629460C
:1052F000304602F09DF9002800F02E86AB46831B55
:105300000D9323EAE3730E940893CDF84CB09DF807
:105310006F7072E41193AB46002A40F0F386079A4F
:1053200012F0200300F043810E9C0027073424F084
:10533000070303F10801BB450E91D3E900458DF841
:105340006F70C0F2C18222F08003079354EA050314
:1053500000F04881002D08BF0A2CC0F0488130AE13
:10536000204629460A22002303F0CCFE303206F8FC
:10537000012D2046294600230A2203F0C3FE0446DD
:105380000D4654EA0503EBD12DE41193AB46002AF8
:1053900040F0B486079B3F489D0640F15D810E9C1E
:1053A000073424F0070303F108020E92D3E9004505
:1053B000079A12F0010700F0468254EA05033FF411
:1053C0002AAD9DF8442000278DF87120079A3023DC
:1053D000BB458DF870308DF86F7042F00203C0F25B
:1053E000A58522F0800343F002030793FFF7ECBB8F
:1053F00098F800306C2B00F05184079840F01000B2
:105400000790FFF749BB1193AB46002A40F07E8618
:10541000079A12F0200300F0A0800E9C00270734AA
:1054200024F0070303F10801BB450E91D3E90045C1
:105430008DF86F700BDB22F08003079354EA0503AD
:1054400006D1BBF1000F00F0B18500240025002734
:1054500030AEE20842EA4572E90804F007030D465F
:105460001446303354EA050206F8013DF1D1079A9B
:10547000D1077FF5B8AB302B3FF4B5AB3022731EAC
:1054800006F8012C30AAD21A0D921E46FFF7AEBBC9
:10549000F4E6000828E700081193AB46002A40F024
:1054A0002186079B0E9C1A0704F1070440F16C83C8
:1054B00024F0070303F108020E921A685B68149245
:1054C0001593159B149D23F00044284621464FF068
:1054D000FF32A94B03F0D8FD002840F0CD822846CA
:1054E00021464FF0FF32A44B03F0B0FD002840F0FE
:1054F000C382149815990022002303F09DFD002813
:1055000040F00E859DF86F7007999C4E21F0800148
:105510009B4B0791119903224FF0000B08924729EA
:10552000D8BF1E460D92CDF84CB0FFF766BB079B67
:1055300043F00803079398F80030FFF7ADBA1193D2
:10554000AB46002A40F0D685079B43F01003079333
:10555000079A12F020037FF460AF079911F0100250
:1055600000F068820E98BBF1000F024604688DF8C7
:105570006F3002F104024FF00005C0F2DD8421F02B
:105580008001079154EA05010E923FF45AAF1F467D
:105590005EE71193AB46002A40F0A885079B43F0D5
:1055A00010030793079A12F020037FF4BDAE07990A
:1055B00011F0100200F025830E98BBF1000F024697
:1055C00004688DF86F3002F104024FF00005C0F25C
:1055D000A48421F08001079154EA05010E921F4630
:1055E0007FF4B8AEBBF1000F00F09080002440AE15
:1055F000303406F8414DFFF7F6BA002A40F09E8598
:10560000079B9B0640F1CA820E9A134604330E9301
:105610000B9B1168DD171A462B46C1E90023FFF7E3
:1056200008BAA3F1300000231C4618F8013B04EB34
:10563000840400EB4404A3F130000928F5D90C944C
:10564000FFF72CBA1193AB46002A40F07385079BF5
:105650004C489D063FF5A3AE079BDC0640F1B582A2
:105660000E9A00251346043314680E93A0E6119396
:10567000AB46002A40F05A85079B43F0100307937E
:10568000079B980640F1F1800E9C073424F0070434
:10569000D4E9002304F108011D4614460E91002AA6
:1056A00073F10003C0F2F280BBF1000F9DF86F7040
:1056B000C0F20A81079B23F08003079354EA050395
:1056C0007FF448AE8EE71193AB46002AD8D08DF810
:1056D0006F10D5E7079B43F04003079398F800301D
:1056E000FFF7DAB90E9911930A68002301201F46CB
:1056F0008DF86F309B4613930B1D08908DF8982002
:105700000E930D9026AEFFF77CBA5F464FF0000B6C
:10571000CDF834B030AEFFF769BA23AA09990A98D8
:1057200002F008FC00287FF49BAB259CFFF763BBCD
:105730001193002A40F0F684119A002A3FF489ABB5
:10574000002301211F4608918DF898208DF86F30B5
:105750009B4613930D9126AEFFF753BA23AA0999DE
:105760000A9802F0E7FB00287FF47AAB0DF1C0093C
:10577000259CFFF7A2BB00BFFFFFEF7F08E70008F3
:1057800004E7000814E70008249BB84901330134FA
:105790000122072B2594249389E8060000F3C18297
:1057A00009F108092DB9129B1BB9079BDF077FF58B
:1057B000E8AA249B16990133179A0C44072B2594C9
:1057C000C9F80020C9F80410249300F3028409F1F9
:1057D00008096D42002D40F3E082A54A102D0F927A
:1057E00040F3008322461027DDF828B0099C05E02D
:1057F00009F10809103D102D40F3F38201331032F6
:10580000072B25922493C9F800A0C9F80470EFDD96
:1058100023AA2146584602F08DFB00287FF420ABD6
:105820000DF1C009259A249BE4E792480791119352
:1058300054EA05030E924FF000077FF4C5A9002437
:105840000025FFF7C1B9BBF1000F8DF86F70C0F2F2
:10585000028222F08003079354EA05037FF4B4A97F
:10586000BBF1000F7FF4E5AA4FE7079BD90640F193
:10587000B9810E9A13461C680433E51722460E932D
:105880002B46002A73F10003BFF60EAF64424FF0BF
:105890002D0765EB4505BBF1000F8DF86F70FFF626
:1058A00059AD079B23F08003079353E50E9ABBF194
:1058B000000F134614688DF86F7003F104034FF066
:1058C000000580F2CA810E9354EA05037FF442ADCD
:1058D0008DE623AA09990A9802F02CFB00287FF490
:1058E000BFAA259C0DF1C009139A1D9B324417468F
:1058F000129A934249DB079AD50746D412990E446F
:10590000F51BCB1A9D42A8BF1D46002D2E460DDD6E
:10591000249A2C440132072A2594C9F80070C9F84A
:105920000450249200F3C78209F10809002EB4BF85
:105930001D469D1B002D7FF724AA4D4A102D249B48
:105940000F927FF7F4AB10260A9FDDF824B005E034
:1059500009F10809103D102D7FF7E9AB0133103430
:10596000072B25942493C9F800A0C9F80460EFDD43
:1059700023AA5946384602F0DDFA00287FF470AABF
:105980000DF1C009259C249BE4E7249A1698013266
:1059900017990444072A2594C9F80010C9F804008F
:1059A000249200F37B8209F10809A7E7079BD80737
:1059B0003FF514AB0123072D2594C9F80060249509
:1059C000C9F804307FF726AC23AA09990A9802F097
:1059D000B1FA00287FF444AA0DF1C009259C249D4A
:1059E0001AE423AA09990A9802F0A4FA00287FF47D
:1059F00037AA0DF1C009259C249DFFF7FBBA23AA05
:105A000009990A9802F096FA00287FF429AA0DF164
:105A1000C009259C249DFFF7FCBA23AA09990A987E
:105A200002F088FA00287FF41BAA0DF1C009259C1A
:105A3000FFF75BB9079911F0400700F018810E9845
:105A4000BBF1000F03468DF86F2003F104030488B7
:105A50004FF00005C0F2728121F08001079154EAF5
:105A600005010E933FF4EDAC1746F1E444E700085E
:105A7000F4E6000828E70008149C22462046159CFE
:105A80002346214603F000FB002840F0C482119B0E
:105A9000BBF1FF3F23F020030D9300F04A82472B18
:105AA00000F04F81079B43F480731093159B1F1EDA
:105AB000149B0893B7BF3B46002303F100472D23F7
:105AC0000F93119B662B00F01482462B00F00C8183
:105AD0000D9B21A8452B18BF5D461EA908BF0BF1E1
